:020000040800F2
:1000000028340024AD020008714B0008C1410008EB
:10001000694B0008F9090008F98300080000000096
:10002000000000000000000000000000496100081E
:10003000990A000800000000114E0008A1610008A4
:10004000DD020008DD020008DD020008DD02000814
:10005000DD020008DD020008DD020008DD02000804
:10006000DD020008DD020008DD020008DD020008F4
:10007000DD020008DD020008DD020008DD020008E4
:10008000DD020008DD020008DD020008DD020008D4
:10009000DD020008DD020008DD020008DD020008C4
:1000A000DD020008DD020008DD020008DD020008B4
:1000B000DD020008DD020008DD020008DD020008A4
:1000C000DD020008DD020008DD020008DD02000894
:1000D000DD020008DD020008DD020008DD02000884
:1000E000DD020008DD02000800000000DD0200085B
:1000F000DD020008DD020008DD020008DD02000864
:10010000DD020008DD020008DD020008DD02000853
:10011000DD020008DD020008DD020008DD02000843
:10012000DD020008DD020008DD020008DD02000833
:10013000DD020008DD020008DD020008DD02000823
:10014000DD020008DD0200080000000000000000E1
:10015000DD020008DD020008DD020008DD02000803
:10016000DD020008DD020008DD020008DD020008F3
:10017000DD020008DD020008DD02000800000000CA
:10018000DD020008DD020008DD020008DD020008D3
:10019000DD020008DD020008DD020008DD020008C3
:1001A000DD020008DD020008DD020008DD020008B3
:1001B000DD020008DD020008DD020008DD020008A3
:1001C000DD020008DD020008DD020008DD02000893
:1001D000DD020008A94B0008DD020008DD0200086E
:1001E000DD020008DD020008DD020008DD02000873
:1001F000DD020008DD020008DD020008DD02000863
:10020000DD020008DD020008DD020008DD02000852
:10021000DD020008DD020008DD020008DD02000842
:10022000DD020008DD020008DD0200080000000019
:10023000DD020008DD020008DD020008DD02000822
:10024000DD020008DD020008DD020008DD02000812
:10025000DD020008DD020008DD020008DD02000802
:10026000DD020008DD020008DD020008DD020008F2
:10027000DD020008DD020008DD020008DD020008E2
:10028000DD020008DD020008DD02000800000000B9
:10029000DD020008DD020008DFF80CD000F054FA9F
:1002A00000480047B9850008283400240C488047DE
:1002B0000C4800471EF0040F0CBFEFF30880EFF36B
:1002C000098021462A46334608F0DAB8FEE7FEE701
:1002D000FEE7FEE7FEE7FEE7FEE7FEE7FEE70000DB
:1002E000D1620008990200082DE9F05F0546002060
:1002F00092469B4688460646814640241BE0284697
:1003000041464746224600F057F853465A46C01A1F
:10031000914110D311461846224600F03EF82D1A9E
:1003200067EB01084F4622460120002100F035F816
:1003300017EB00094E41201EA4F10104DFDC484602
:1003400031462A464346BDE8F09FD2B201E000F8AC
:10035000012B491EFBD270470022F6E710B5134669
:100360000A4604461946FFF7F0FF204610BD30B597
:100370000B46014600202022012409E021FA02F563
:100380009D4205D303FA02F5491B04FA02F52844FD
:10039000151EA2F10102F1DC30BD202A04DB203A57
:1003A00000FA02F1002070479140C2F1200320FAC8
:1003B00003F3194390407047202A04DB203A21FAC6
:1003C00002F00021704721FA02F3D040C2F120026E
:1003D00091400843194670472DE9FE4F804681EA57
:1003E0000300C00F0C46009021F0004123F00045AF
:1003F000B8EB0200A94105D24046214690461C4672
:100400000B46024623F00040104347D0270DC7F3A8
:100410000A00C3F30A510290401A019040286BDA97
:10042000C3F3130040F4801B0098924620B10023D0
:10043000D2EB030A63EB0B0B01985946C0F1400263
:100440005046FFF7AAFF06460D4650465946019A08
:1004500000F08CF910EB08006141002487EA11528A
:1004600084EAE7731A4340D0009A62B3019A012AE2
:100470004FEA075215DC001B61EB02014FF000420E
:1004800002EA0752CDE90042001C41F580113246D4
:100490002B4600F08CF903B0BDE8F08F40462146B2
:1004A000F9E7001B61EB0201001C41F58013001805
:1004B0005B412018A2F5001747EB030140EAD57015
:1004C000B6196D4111E06D084FEA360645EAC07570
:1004D0004FEA0752001B61EB0201001C41F580113D
:1004E00049084FEA30000019514132462B4603B00B
:1004F000BDE8F04F00F04CB9009801224000002305
:10050000D0EB020263EBE073009821464FEAE074FF
:10051000B8EB000061EB0401E9E783F000435BE71F
:1005200081F0004158E72DE9FE4F81EA030404F011
:10053000004421F0004100944FF0000B23F00043F1
:1005400050EA01045ED052EA03045BD0C3F30A54BC
:10055000C1F30A552C44A4F2F3340194A0FB0254D5
:10056000C1F3130141F48011C3F3130343F4801367
:1005700001FB024400FB034E840A970A44EA8154BB
:1005800047EA8357A4FB076802958D0A05FB078598
:100590004FEA932C04FB0C542705029D4FEA0658A2
:1005A00047EA1637B5EB08056EEB070C870E920E7F
:1005B00047EA811742EA8312A7FB0201B6EB0B015F
:1005C00064EB00042B0D43EA0C335E1844EB1C5023
:1005D000DA465146E7FB0201C5F313044FEA0B3339
:1005E00043EA14534FEA0432019C43EA0603A4F1A0
:1005F0000C040294009CCDE900B400F0D8F803B0DC
:10060000BDE8F08F00200146F9E72DE9F04D81EAC1
:10061000030404F0004B21F0004514464FF0000A9B
:1006200023F0004150EA050220D054EA01021DD017
:10063000C5F30A570246C5F31303C1F31300C1F310
:100640000A5640F4801543F48013A7EB0608101BEC
:10065000D64608F2FD3873EB050002D308F1010815
:1006600001E092185B41B8F1000F03DA0020014667
:10067000BDE8F08D00204FF48011064684460EE060
:10068000171B73EB050705D3121B63EB050306432A
:100690004CEA010C49084FEA300092185B4150EADD
:1006A0000107EDD152EA030012D082EA040083EA86
:1006B0000501084305D0101BAB4106D201220023DF
:1006C00006E000224FF0004302E06FF001025310F9
:1006D0001AEB06004CEB085110EB0A0041EB0B0142
:1006E000BDE8F04D00F054B8C1F30A52C1F3130154
:1006F00040F2FF3341F480119A4202DA00200146B1
:10070000704740F233439A42A2F2334202DC524233
:10071000FFF752BEFFF741BE30B5041E71F1000471
:1007200004DB4FF00044404264EB0101141E73F1FE
:10073000000405DB1C464FF00043524263EB040308
:10074000994208BF904230BD064C074D06E0E06874
:1007500040F0010394E8070098471034AC42F6D308
:10076000FFF79EFDA8900008C8900008202A06DB2D
:10077000CB17203A41FA02F043EAE07306E041FA6F
:1007800002F3D040C2F1200291400843194670475D
:1007900010B5141E73F1000408DA401C41F1000189
:1007A00092185B411A4301D120F0010010BD2DE9E0
:1007B000F04D92469B4611B1B1FA81F202E0B0FAD7
:1007C00080F220329046FFF7E8FD04460F4640EAEB
:1007D0000A0041EA0B0153465A46084313D011461A
:1007E00053EA010019D0C8F140025046FFF7E4FD7A
:1007F00005460E46504659464246FFF7CEFD084391
:1008000005D0012004E020463946BDE8F08D0020E7
:10081000054346EAE0762C4337430A986305E40A29
:10082000A0EB08000022FD0A44EA47540A3002D532
:1008300000200146E9E7010510196941DDE9084595
:1008400000196941BDE8F04DA2E770B58C1810F8A9
:10085000015B15F0070301D110F8013B2A1106D105
:1008600010F8012B03E010F8016B01F8016B5B1E1F
:10087000F9D12B0705D40023521E0DD401F8013BFA
:10088000FAE710F8013BCB1A921C03E013F8015B66
:1008900001F8015B521EF9D5A142D8D3002070BDEA
:1008A00070B586B001280FD0E8B944F2E0410024C9
:1008B000C5F602010A6842F400720A60096801F490
:1008C00000710191019910E044F2E0410024C5F665
:1008D00002010A6842F480720A60096801F48071BA
:1008E0000191019901E06FF0010448F6FC71C0F636
:1008F000000151F820600121CDE90211032104918A
:1009000049F204010196C0F6000151F8205001A9F6
:10091000284600F011F9B1B20122284600F0DCF9B6
:10092000204606B070BD000000281CBF6FF001001B
:10093000704780B542F6AC10C2F2004000F0E4FC13
:10094000002818BF6FF0030080BD00000000000009
:1009500080B542F6AC114FF41E72C2F2004100FBAA
:10096000021000F0E5FC043818BF012080BD000033
:1009700000281CBF6FF00100704780B503F0E0FC59
:1009800042F6AC10C2F2004004F0D6F8002818BFBE
:100990006FF0030080BD000000281CBF6FF0010055
:1009A000704780B582B0642003FB00FC42F6AC10B7
:1009B000C2F20040CDF800C000F05AFD002818BF78
:1009C0006FF0030002B080BD00281CBF6FF0010073
:1009D000704780B582B0642003FB00FC42F6AC1087
:1009E000C2F20040CDF800C000F0CEFE002818BFD3
:1009F0006FF0030002B080BDFEE7000000000000C1
:100A000070B54EF61450CEF200000168890312D47E
:100A1000BFF34F8FBFF36F8F0021C0F83C12BFF3BD
:100A20004F8FBFF36F8F016841F400310160BFF356
:100A30004F8FBFF36F8F0168C90348BF70BD00219E
:100A40000167BFF34F8FC16E43F6E07CC1F3C9036A
:100A5000C1F34E3203F1010E9B0700BF0CEA4211B5
:100A60001C46754644EA0106013D04F14044C0F8C5
:100A70004C62F7D1002AA2F10102EFD1BFF34F8FF0
:100A8000016841F480310160BFF34F8FBFF36F8F76
:100A900070BD000000000000704700000000000072
:100AA0000A46014602A007F007FE00BFFEE700BFAE
:100AB0004572726F722025732025750A00000000B0
:100AC000B0B541F20001C5F6004108688A68801897
:100AD00008BFB0BD40F268154C68C2F2004508225C
:100AE000A91C03F089FB05F112010422204603F042
:100AF00083FBB0BD00000000B0B5044600F0FCF878
:100B000040F282110546C2F20041621C097818BF0A
:100B10000C4400BF00F0F0F8401BA042FAD3B0BD77
:100B200040F22040C5F60000016841F0010101607B
:100B300070470000000000002DE9F04F83B00C6802
:100B4000002C00F0C68000F1264242F2004702F17C
:100B5000FF72C5F602074FEAB22201920A22B8429A
:100B600008BF0922002500274FF0010A009209E082
:100B70000C68043734FA0AF20AF1010A05F1020599
:100B800000F0A780AAF10109012202FA09FE14EA85
:100B90000E08EDD0D1F804B00BF00304A4F1010C61
:100BA000BCF1010F11D803228668AA40CB6826EA5F
:100BB0000202AB401A438260CBF30013426822EA80
:100BC0000E0203FA09F31A434260032C1ED00323DA
:100BD000C268AB40022C22EA03028B6803FA05F3D9
:100BE00042EA0302C26011D16FF0030207F01C0653
:100BF00002EA59020F23024403FA06F4D2F820C095
:100C00000B692CEA0404B3402343136203230268F4
:100C1000AB404E689A4306F00303AB4016F4403FE6
:100C200042EA03020260A3D044F2F44340F2084EC9
:100C3000C5F60203C5F6000E1A6842F002021A60F9
:100C40001A6807F00C0302F002020292029A29F0DD
:100C50000302019C009E092C38BF26460F2452F83F
:100C60000EC09C402CEA040406FA03F34FF0B04C8B
:100C7000234342F80E30DCF800204B6842EA0806B5
:100C8000DC0258BF22EA08069C02CCF8006040F261
:100C9000040CC5F6000CDCF8002042EA080658BF38
:100CA00022EA08069C03CCF80060DCF8802042EAC7
:100CB000080658BF22EA0806DB03CCF88060DCF89F
:100CC0007C2042EA080658BF22EA0806CCF87C607D
:100CD0004EE703B0BDE8F08F002A08BF0904816128
:100CE000704700000000000041F20000C5F600401F
:100CF0000068000C7047000042F62440C2F2004039
:100D0000006870470000000046F28041C5F602010D
:100D100051F8200040F20031C8F20001401A18BF1B
:100D2000012070470000000046F2004241F440718B
:100D3000C5F6020242F820107047000000000000D3
:100D400040F2821042F62441C2F20040C2F2004159
:100D500000780A6810440860704700000000000036
:100D600080B5032000F070FE02F056FE44F21841F8
:100D700048F6D473C5F60201C0F600030A68096894
:100D800001F00F01C2F30322595C9A5C01F01F01CC
:100D900002F01F02D04040F28802C2F2004220FA64
:100DA00001F1116040F28401C2F2004108600020AC
:100DB00000F00AF800281CBF012080BD00F02CFEC6
:100DC000002080BD00000000B0B540F28211C2F2E8
:100DD0000041097801B3044640F28400C2F20040A9
:100DE0004FF47A72B2FBF1F10068B0FBF1F003F05E
:100DF000ABF90F2C4FF001050CD858B94FF0FF306C
:100E000000222146002500F00FFE40F28410C2F2BD
:100E1000004004602846B0BD0120B0BD00000000C5
:100E20002DE9F04383B004460320884684F834005B
:100E300020684268120301D4012204E040680422C1
:100E4000400358BF02222046414603F011FB0646EC
:100E5000002864D10021B8F1000FC0F2B7310AD0E8
:100E6000B8F5004F05D0B8F5804F0BD101F5807172
:100E700001E001F50071206804F022FF0646002E13
:100E80004DD103E04FF00066002E48D1616C206820
:100E9000090404F0B1FE0646B0FA80F04FEA50199A
:100EA0001EB100204FF6FF751FE02068002105F0FD
:100EB0008FF807464FF6FE75C00514D4616C2068A4
:100EC000090404F099FE0646B0FA80F04FEA501982
:100ED0004EB92068002105F07BF8013D074602D09D
:100EE00017F48070EAD007F08000B9F1000F18BF46
:100EF000002D04D1002D08BF4FF000460FE010B1C7
:100F00004FF480360BE094E80700D4E90437A66973
:100F10000296CDE90037434605F05EF800264FF013
:100F2000010084F8340066B1206840F6FF71C1F614
:100F3000E0718163A06B3043A063012003B0BDE882
:100F4000F083002003B0BDE8F08300000000000043
:100F5000B0B582B005460C4600200190D5E91612C6
:100F60008B0F2370C1F383636370C1F30163A370BC
:100F70000B0CE3700B0A23716171110DE1806FF0AE
:100F80007043C2F303412172C2F3C0316172C2F3F4
:100F90008031A172C2F34031E172C2F3003121739A
:100FA000607301A9D422284603F0FEFA10B1012093
:100FB00002B0B0BDE86B012829D0002872D1D5E974
:100FC0001710800F012261F38B002061286EC0F39F
:100FD000C2612175C0F302616175C0F34251A17510
:100FE000C0F38241E175C0F3C23020762069217ED2
:100FF000013001F0070102318840A864217A01F034
:101000000F0102FA01F1E9644A0A504304E0019831
:10101000A8644FF40071E9642A6E696E28654FF484
:1010200000706865C2F380306076C2F3C610A076A7
:1010300002F07F00E076C80F2077C1F3417060773F
:10104000C1F38260A077C1F38350E077C1F34050D1
:1010500084F82000C1F30042002084F8210084F8C5
:101060002220C1F3C03284F82320C1F3803284F8F7
:101070002420C1F3403284F82520C1F3003284F8E3
:101080002620C1F3812284F82720C1F3012284F8AD
:101090002820C9B2490884F82910012184F82A10AF
:1010A00002B0B0BD286840F6FF71C1F6E0718163FF
:1010B000A86B40F08050A863012085F8340002B08E
:1010C000B0BD0000000000002DE9F04F87B092464F
:1010D0000E460446FFF710FEAEB3834694F8340084
:1010E00001284FF0000040F0AE80A063032184F897
:1010F00034104FF0FF312268D06201914FF400713B
:101100000291902103910221CDE90410069001A9DA
:10111000104604F029FE2068C16841F04001C1601A
:10112000002104F04DFDB0B1216840F6FF72C1F618
:10113000E0728A63A16B0843A063012084F8340045
:1011400007B0BDE8F08FA06B40F00060A063012005
:1011500007B0BDE8F08F41F204090025CEF2000986
:101160008027D9F8008005E0FFF7C6FDA0EB0B0053
:1011700050456BD22068416B11F4957F27D1416BAC
:1011800089030BD4416B09040AD4416B012201F499
:10119000002182EAD14211462DB109E0102100E080
:1011A0000821012225B9002A1CBFD9F80080012599
:1011B00019B9D9E700270139D6D0002FD0F88020FF
:1011C000F8D0013F46F8042B0139F6D1CCE7C168CD
:1011D00021F04001C160D9F80050406B800602D573
:1011E00035A007F0E5FE2068416B09073FD4416B4D
:1011F000890745D4416B89064BD440F63A71C1F654
:1012000000018163012084F8340040F28400A5EBE2
:101210000801C2F2004001EE101A90ED000A2EA063
:10122000B8EE400BB8EE411B80EE010B9FED1E1B8C
:1012300020EE010B9FED1E1B20EE010B53EC102B3B
:1012400007F03AFA002007B0BDE8F08F206840F6BA
:10125000FF71C1F6E0718163A06B40F00040A063B4
:10126000012084F83400032007B0BDE8F08F40F679
:10127000FF71C1F6E0718163A06B40F008005BE78D
:1012800040F6FF71C1F6E0718163A06B40F002008F
:1012900052E740F6FF71C1F6E0718163A06B40F048
:1012A000200049E700BF00BF0000000000008040B0
:1012B0008DEDB5A0F7C6B03E48414C5F4D4D435F44
:1012C00047657443617264457874435344205258AF
:1012D0004F5645525200000048414C5F4D4D435F10
:1012E00047657443617264457874435344202531E3
:1012F0003075206379636C65732C2025352E326C34
:1013000066204D4270730A000246C06B0860136C81
:10131000506C4B60936CC1E90203D06C0861106D96
:1013200048610020526D8A61704700000000000093
:1013300010B582B004460020019001A9204603F0B8
:101340004BFA10B1A16B0843A0630198C0F343208E
:1013500002B010BD0000000010B5F0B1044690F8D6
:10136000340020B900202077204600F07DF80320CB
:1013700084F83400204600F017F801284FF00100EF
:1013800008BF10BD0021A163216384F83400E16827
:1013900029B12046FFF744FD08B1012010BD00200F
:1013A00010BD000000000000F0B583B004464FF40B
:1013B000803001F085FB60B348F659310646000ADB
:1013C000C0F24F11A0FB01012068002200230F0989
:1013D0000021CDE9001700210125029504F0FCFD54
:1013E000206804F00DFE780042F21011B6FBF0F018
:1013F000C0F20101B1FBF0F00130FFF77DFB2046A8
:1014000002F0FAFF60B184F83450A16B0843A06386
:1014100025E0012584F834504FF00060A0631EE001
:10142000204602F005FF30B1012584F83450A16B4D
:101430000843A06313E020684FF4007104F0F4FA4D
:1014400060B1216840F6FF72C1F6E07201258A633F
:10145000A16B0843A06384F8345000E000252846BF
:1014600003B0F0BD00000000704700000000000065
:101470002DE9F04F87B09B4617468A460446FFF792
:101480003BFCBAF1000F0FD0804694F834000128DD
:101490000ED10020A0630BEB0700216D88420FD90D
:1014A000A06B40F0007006E0A06B40F0006002E02E
:1014B000A06B40F00050A063012007B0BDE8F08FA2
:1014C00094F8B50060B15FEA4B7003D0A06B40F0B8
:1014D0008000F0E7780703D0A06B40F04000EAE717
:1014E000032084F834002068E16B012901A94FF042
:1014F0000002C2624FF0FF3301934FEA4B23029385
:101500004FF0900303934FF002060496059218BF24
:101510007F02069204F028FC2068BBF1020FC1682C
:1015200041F04001C16005D33946266304F0C4FA96
:1015300020BB05E001212163394604F0D9FAE8B95E
:101540002168029A084650F8343F13F4957F3DD045
:10155000C86820F04000C860486B800603D580A0B2
:10156000514607F0A9F82068BBF1020F416B14D374
:1015700011F4807111D004F077FB70B1216840F64E
:10158000FF72C1F6E0728A63A16B0843A063012079
:1015900084F8340007B0BDE8F08F2068416B09077C
:1015A00000F1C280416B890700F1C780416B890659
:1015B00000F1CC8040F63A71C1F600018163012050
:1015C00084F83400002007B0BDE8F08FDDF84090CB
:1015D0009708564607E000BF2168084650F8342FA8
:1015E00012F4957FB4D14A6B92030AD402681204B4
:1015F0000CD4026801234FF0000C23EAD2420023EE
:1016000008E010224FF0010C002303E008224FF005
:10161000000C0123082F06F003051ED3EDB9E3B13A
:10162000D1F880203260D1F884207260D1F888200F
:10163000B260D1F88C20F260D1F890203261D1F8FC
:1016400094207261D1F89820B26106F12002D1F89D
:101650009C10F161083F16464AE0102F3AD3B5FAC4
:1016600085F35B0913EA0C0334D0D1F88020326093
:10167000D1F884207260D1F88820B260D1F88C2033
:10168000F260D1F890203261D1F894207261D1F8E3
:101690009820B261D1F89C20F261D1F8A02032628A
:1016A000D1F8A4207262D1F8A820B262D1F8AC209F
:1016B000F262D1F8B0203263D1F8B4207263D1F86D
:1016C000B820B26306F14002D1F8BC10F163103FBC
:1016D00016460DE01AB90BE00027013A08D0002F9A
:1016E000D1F88030F8D0013F46F8043B013AF6D1FA
:1016F000006800037FF570AFFFF7FEFAA0EB08006B
:101700004845FFF469AF206840F6FF71C1F6E0710B
:101710008163A06B40F00040A063012084F8340096
:10172000032007B0BDE8F08F40F6FF71C1F6E0710D
:101730008163A06B40F0080028E740F6FF71C1F616
:10174000E0718163A06B40F002001FE740F6FF717B
:10175000C1F6E0718163A06B40F0200016E700BF86
:1017600048414C5F4D4D435F52656164426C6F630D
:101770006B732052584F5645525220416464723A5E
:10178000253038580A0000002DE9F04F87B09A46FE
:1017900016460F460446FFF7AFFA7FB1804694F82D
:1017A000340001280ED10020A0630AEB0600216D51
:1017B00088420FD9A06B40F0007006E0A06B40F0AB
:1017C000006002E0A06B40F00050A063012007B071
:1017D000BDE8F08F94F8B50060B15FEA4A7003D0BD
:1017E000A06B40F08000F0E7700703D0A06B40F0E2
:1017F0004000EAE7032084F834002068E16B012907
:1018000001A94FF00002C2624FF0FF3301934FEA8B
:101810004A2302934FF090030592CDE9033218BF9B
:101820007602069204F0A0FA2068BAF1020FC168AD
:1018300041F04001C16006D320212163314604F00C
:101840005BFA30B914E010212163314604F070FADC
:1018500070B1216840F6FF72C1F6E0728A63A16B35
:101860000843A063012084F8340007B0BDE8F08F7E
:10187000DDF840906E46DDF808B005E0FFF73CFA71
:10188000A0EB080048454BD22068416B11F48D7FD6
:1018900021D1BBF1200F406BF0D310F48040EDD08C
:1018A000043F082517F8040F0090797840EA0120DA
:1018B0000090B97840EA01400090F97840EA016070
:1018C00000902068314604F0BFFB013DEAD1ABF146
:1018D000200B0437D2E7C168BAF1020F21F04001B2
:1018E000C160416B06D311F4807103D004F0BCF9E0
:1018F0000028AED12068416B090720D4416B8907CD
:1019000026D4416BC9062CD440F63A71C1F60001C9
:101910008163012084F83400002007B0BDE8F08F17
:10192000206840F6FF71C1F6E0718163A06BA0638F
:10193000012084F83400032007B0BDE8F08F40F6A2
:10194000FF71C1F6E0718163A06B40F0080088E789
:1019500040F6FF71C1F6E0718163A06B40F00200B8
:101960007FE740F6FF71C1F6E0718163A06B40F044
:10197000100076E700000000B0B502784EF69C5CDF
:10198000CEF2000C43784CF8043CF2B14368CCF83A
:101990000030037BC17A90F80AE0457B447A42EA42
:1019A0000372837B42EA0161C27B41EACE41007A45
:1019B00041EA854141EA434141EA024141EA0421C9
:1019C00041EA4000CCF80400B0BD0020CCF8000093
:1019D000CCF80400B0BD00004EF62450CEF200005A
:1019E000BFF35F8F016821F480310160002101673E
:1019F00070470000000000004EF6245140F0010046
:101A0000CEF200010867086840F480300860BFF338
:101A10004F8FBFF36F8F70477047000000000000CA
:101A200080B506F0EDFC80BD70B514460D46064647
:101A300006F0F6FC2946224603F09EF801463046A1
:101A400006F0F6FC70BD000080B506F005FD80BD17
:101A500001680122C0F8FC23002280F8F423886981
:101A600040F000608861486D40F08052002042F0F4
:101A700003024A6570470000704700000000000044
:101A8000026800205162704710B5D0F800C0DCF841
:101A90002400D9B1DCF82830B1F1010E00EB13437A
:101AA0000CD00021002000BF0CEB81010130D1F8E7
:101AB0000441C1B28E4503EB1443F5D80CEB8E0004
:101AC00043EA0241C0F80411002010BD40EA024080
:101AD000CCF82800002010BD80B5D0F8040405F033
:101AE0008BFA80BD0000000080B5C1EBC10200EBA5
:101AF0008202D0F80404926C05F0F2F980BD000077
:101B000080B5C1EBC10200EB8202D0F80404D2F828
:101B1000082205F039FA80BD80B5D0F8040405F03C
:101B20006FFA80BD0000000010B5044601F00F0000
:101B30000A06C0EBC00104EB810205D402F5FE7178
:101B4000002382F8FD3104E002F13C01012382F818
:101B50003D3094F8BC230870012A01D1022010BD49
:101B6000012084F8BC03206805F096FF002084F86B
:101B7000BC0310BD00000000B0B5044601F00F002A
:101B80006268904201D90120B0BD090609D4C0EBBA
:101B9000C001002304EB810202F5FE7182F8FD31E1
:101BA00008E0C0EBC001012304EB810202F13C011B
:101BB00082F83D3094F8BC2300258D70012A08700E
:101BC00001D10220B0BD012084F8BC03206806F0DA
:101BD00033F9284684F8BC53B0BD00000000000073
:101BE00010B5044690F8BC03012801D1022010BDB5
:101BF00001200A0684F8BC03206802D406F050FADB
:101C000003E001F00F0106F06FFA002084F8BC0336
:101C100010BD00000000000001F00F01C1EBC10188
:101C200000EB8100D0F814027047000000000000B3
:101C3000B0B5054601F00F000C06C0EBC00105EB86
:101C4000810C05D40CF5FE7100248CF8FD4104E0F4
:101C50000CF13C0101248CF83D404C7808708A60FE
:101C6000002CCB7018BFC880022B01D10020087156
:101C700095F8BC03012801D10220B0BD012085F8F0
:101C8000BC03286805F03CFE002085F8BC03B0BD0D
:101C900080B501F00F0CCCEBCC0100EB810E0021E4
:101CA000CEE984310369CEF808228EF8FD11012BAC
:101CB0008EF8FCC10EF5FE7108BFCEF80C22BCF107
:101CC000000F0068DAB203D006F006F9002080BDEC
:101CD00006F002F8002080BDB0B5044601F00F0503
:101CE0004068854201D90120B0BD080609D4C1EB86
:101CF000C100002204EB800000F5FE7180F8FD2198
:101D000008E0C5EBC500012204EB800000F13C01B6
:101D100080F83D2094F8BC2301208870012A0D70C2
:101D200001D10220B0BD84F8BC03206806F0ACF8F5
:101D30002DB9217C04F57172206806F04DF8002061
:101D400084F8BC03B0BD0000B0B501F00F0CD0F8B2
:101D500010E00024BEF1010FCCEBCC0100EB8105BB
:101D6000294601F83CCF8C614FF001044C70CA60E9
:101D70004B6108BFEA64BCF1000F00685FFA8EF2A5
:101D800003D006F0A9F80020B0BD05F0A5FF0020A3
:101D9000B0BD0000000000002DE9F04F81B0D0F888
:101DA00000908246484606F0D3F910B101B0BDE874
:101DB000F08FDAF8000006F0FBF90028F6D0DAF828
:101DC000000006F0F5F9800705D5DAF80000416952
:101DD00001F002014161DAF8000006F0E9F9C006FD
:101DE00041D5DAF80000816921F010018161D9F84C
:101DF000204004F00F05C4F3434006281CD00228FD
:101E00002BD147F6F070044027D0C5EBC50022095E
:101E10000AEB80054846D5F8081206F0CDF9D5F84A
:101E20000802D5F8141200EB1410C5F8080201EBF3
:101E30001410C5F8140210E00AF571710822484622
:101E400006F0BAF9C5EBC500C4F30A110AEB80002D
:101E5000D0F814221144C0F81412DAF80000816995
:101E600041F010018161DAF8000006F0A1F90003E9
:101E700046D5DAF8000006F077F9002840D006468B
:101E800009F530674FF000084FF0010B002508E01E
:101E9000B8EB560F05F101054FEA560607F120078A
:101EA0002ED0F007F4D0E9B2DAF8000006F078F9A5
:101EB0000446C00708D120070ED4E00614D4A006BB
:101EC00016D4A004E4D517E050462946C7F808B058
:101ED00002F0A6FE2007F0D50820B860504629463B
:101EE00002F076FEE006EAD51020B860A006E8D53C
:101EF0002020B860A004CBD54FF40050B860C7E7ED
:101F0000DAF8000006F054F9400372D5DAF8000060
:101F100006F022F900286CD0064609F510640AF193
:101F20004408002500270AF5717000900BE000BFFF
:101F3000B5EB560F07F101074FEA560604F12004EE
:101F400008F11C0855D0F007F2D05FFA87FBDAF8E9
:101F50000000594606F010F90546C00716D12807BB
:101F60003AD4E8063CD468063ED4A80705D54846CE
:101F7000394606F0B9F80220A06028064FF00005A7
:101F8000D6D55046394602F0B7FED1E707F00F002C
:101F9000012202FA00F0D9F8341821EA0000C9F849
:101FA0003408A260DAF8100001280FD1D8E9000146
:101FB0000844C8F804004FB9D8F80C0030B9DAF872
:101FC00000000121009A05F007FF00BF5046594666
:101FD000FFF78AFD2807C4D50820A060E806C2D50F
:101FE0001020A0606806C0D54020A060A807BED41D
:101FF000C3E7DAF8000006F0DBF8B0F1FF3F1ADCC7
:10200000D9F8040820F00100C9F804089AF8F4038C
:10201000012807D100208AF8F40300215046FFF779
:102020002BFD02E0504600F0D3FADAF800004169D7
:1020300001F000414161DAF8000006F0B9F800054E
:102040000CD5D9F80808C00702D0504600F010FBA4
:10205000DAF80000416901F400614161DAF800003A
:1020600006F0A6F8000118D5DAF80000416901F081
:10207000006141619AF8F41319B1504600F0F8FA82
:102080000BE001218AF8F413406D0121C0F38300B5
:10209000CAF8F8035046FFF7EFFCDAF8000006F044
:1020A00087F8C0045BD5D9F80408102120F001009E
:1020B000C9F80408DAF8000009F5006406F014F81D
:1020C000DAF80400F0B109F51060DAF80410002223
:1020D0004FF67F338360013207688A4227F4001786
:1020E0000760C0F80832D0F8007227F40017C0F873
:1020F0000072D0F8007247F00067C0F8007200F17B
:102100002000E7D3E06940F00110E061DAF8300028
:1021100040B1D4F8840040F00B00C4F8840004F10E
:10212000440006E0606942F22B010843606104F15B
:10213000100001680AF5717241F00B01016020681E
:1021400020F4FE6020609AF81010DAF8000005F024
:1021500043FEDAF80000416901F480514161DAF888
:10216000000006F025F880041CD5DAF8000005F020
:1021700013FCDAF8000005F0DBFFCAF80C00DAF80F
:10218000004001F0F9FB9AF80C200146204606F0C9
:102190008BF8504600F00CFADAF80000416901F4BF
:1021A00000514161DAF8000006F002F8000708D596
:1021B000504600F015FADAF80000416901F0080114
:1021C0004161DAF8000005F0F3FFC00209D50021F3
:1021D000504600F03DF8DAF80000416901F4801142
:1021E0004161DAF8000005F0E3FF800209D5002123
:1021F000504600F035F8DAF80000416901F40011AA
:102200004161DAF8000005F0D3FF400008D55046E0
:10221000FFF762FCDAF80000416901F0804141619A
:10222000DAF8000005F0C4FF40077FF5BFADDAF82B
:1022300000004468600702D55046FFF76DFCDAF8ED
:10224000000041682143416001B0BDE8F08F00000B
:1022500080B5D0F8040404F02BFF80BD000000001E
:1022600080B5D0F8040404F033FF80BD0000000006
:102270002DE9F04F8BB0002800F0878004460568F8
:1022800090F8BD0328B9002084F8BC03204600F074
:1022900093F8032084F8BD03E86BC00501D4002047
:1022A0002061206805F010FD20680A9004F1040EFA
:1022B00004F11C0AD4E90C509EE80E589AE8C007B5
:1022C000CDE9085003A88DE8005880E8C0070A98B7
:1022D00005F072FB002855D120680021002505F08B
:1022E00093FF6168C1B1616801200023002200BF33
:1022F000C3EBC30304EB8307D3B287F83C2001325E
:10230000A7F84230D3B287F83D00994287F83F5092
:102310007D64BD643D65EBD8B1B10020002300228F
:10232000C3EBC30304EB830787F8FC210132D3B26C
:1023300087F8FD01994287F8FF01C7F80402C7F842
:102340000802C7F81002EBD804F1140E04F1240AB5
:102350002268A0680A90D4E903379EE840589AE8BA
:102360000007D4E90C50CDE9085002A8CDE9007669
:1023700080E8005805A880E8000710460A9A05F092
:10238000F3FB30B1022084F8BD0301200BB0BDE89F
:10239000F08F002084F83800012084F8BD03606AC3
:1023A000012802D12046FFF753FB206805F0CCFB43
:1023B00000200BB0BDE8F08F2DE9F04786B000217A
:1023C0000068C4F20401884252D00021C4F208011E
:1023D000884240F0EA8044F2E0460024C5F6020656
:1023E000C5F6020401AD00273068294640F001001F
:1023F000306030684FF00A0800F001000190019849
:102400004FF4C05001900220029003200490204617
:102410000397CDF81480FEF78FFB4FF40070294628
:10242000CDE9010720460397FEF786FB4FF4806055
:102430000190122002900120039020462946CDF8F9
:102440001480FEF779FB56F8080C062140F0006076
:1024500046F8080C56F8080C002200F000600090C6
:102460000098306A20F0805030626520652497E043
:1024700044F2E0460025C5F60206C5F6020501ACA9
:102480004FF002083068214640F0010030603068AB
:102490004FF0000900F0010001900198306840F011
:1024A0000200306030684FF0030A00F00200019033
:1024B0000198306840F00400306030680A2700F06E
:1024C000040001900198306840F08000306030686E
:1024D00000F0800001900198306840F48070306016
:1024E000306800F480700190019820200190284607
:1024F000CDF80880CDF80C90CDF810A00597FEF728
:102500001BFB01A90820059781E801072846214601
:10251000FEF712FB01A943F62340059781E801036A
:1025200005F580602146FEF707FB01A9012005970C
:1025300081E8010305F500602146FEF7FDFA01A9D7
:102540001020059781E8010305F5E0502146FEF7CC
:10255000F3FA01A94FF40060059781E8010305F53E
:1025600000502146FEF7E8FA56F8080C012140F029
:10257000806046F8080C56F8080C002200F08060D5
:102580000090009856F8080C40F0007046F8080CCF
:1025900056F8080C4D2400F00070009000984D2073
:1025A000FFF742FA2046FFF73BFA06B0BDE8F08796
:1025B000B0B5C5680446002D18BF0125D0F8040445
:1025C00004F0AAFDD4F80404294604F0F5FDB0BDDA
:1025D00080B5D0F8040404F0D3FD80BD00000000F5
:1025E00080B5D0F8040404F0D7FD80BD00000000E1
:1025F00010B5044690F8BC03012801D1022010BD9B
:10260000012084F8BC0384F83810206805F030FEFF
:10261000002084F8BC0310BD80B5D0F8042400F578
:102620007171104604F0D4FD80BD00000000000070
:1026300010B5044690F8BC03012801D1022010BD5A
:10264000A16A206801294FF0010184F8BC1306D16A
:10265000A169012903D0816B41F48031816305F0C8
:1026600017FD206805F060FA002084F8BC0310BD57
:1026700080B5D0F8040404F0E7FD80BD0000000040
:1026800070B544F60C060446C5F60206316830689B
:1026900001F00701062913D120F03F0020433060EC
:1026A000FEF72AFB054600BF56F8080C80040DD43F
:1026B000FEF722FB401BB0F57A7FF5D9012070BDF3
:1026C00000F03F00001B18BF012070BDA4F11D01E8
:1026D0000020112912D8012202FA01F111F0031F82
:1026E0000CD0FEF709FB04463068C00307D4FEF7A0
:1026F00003FB001BB0F57A7FF6D9012070BD0020E6
:1027000070BD00000000000044F60C00C5F6020099
:10271000016841F080710160704700000000000016
:1027200080B501F029F944F2204148F6D472C5F68B
:102730000201C0F600020968C1F30211515C01F008
:102740001F01C84080BD000080B544F2304EC5F680
:10275000020E5EF8083C5EF8081CC1F3051C5EF82A
:10276000041CBCF1000FDEF8042016D0C2F3CC022A
:1027700001F00101514303F00303022B00EE101A94
:10278000B8EE400A0ED0012B0FD01BB95EF8301CFA
:1027900089060DD49FED341A18E000218160C0E94C
:1027A000001180BD9FED2F1A10E09FED2D1A0DE056
:1027B0005EF8301C49F20002C0F2D032C1F3C10110
:1027C00022FA01F101EE101AB8EE411ADEF80010FB
:1027D0009FED263A6FF35F2102EE101ADEF800102B
:1027E000C1F34621B8EE422A00EE032A00EE10CAD9
:1027F000B7EE003AB8EE400A81EE000A32EE031A54
:1028000002EE101AB8EE422A20EE010A32EE031A46
:1028100080EE011ABCEEC11A80ED001ADEF800103D
:10282000C1F3064101EE101AB8EE411A31EE031A57
:1028300080EE011ABCEEC11A80ED011ADEF800101C
:10284000C1F3066101EE101AB8EE411A31EE031A17
:1028500080EE010ABCEEC00A10EE101A816080BD45
:102860000024744A20BCBE4B0024744C0000003984
:1028700080B544F2384EC5F6020E5EF8103C5EF8A4
:10288000101CC1F3053C5EF80C1CBCF1000FDEF817
:10289000042014D0C1F30011C2F3CC02514300EE66
:1028A000101A03F003010229B8EE400A0CD071B9E6
:1028B0005EF8381C89060DD49FED341A18E000210B
:1028C0008160C0E9001180BD9FED2F1A10E09FEDDF
:1028D0002D1A0DE05EF8381C49F20002C0F2D03229
:1028E000C1F3C10122FA01F101EE101AB8EE411A4A
:1028F000DEF800109FED263A6FF35F2102EE101A0A
:10290000DEF80010C1F34621B8EE422A00EE032A99
:1029100000EE10CAB7EE003AB8EE400A81EE000AA7
:1029200032EE031A02EE101AB8EE422A20EE010A25
:1029300032EE031A80EE011ABCEEC11A80ED001AC5
:10294000DEF80010C1F3064101EE101AB8EE411A8C
:1029500031EE031A80EE011ABCEEC11A80ED011AA5
:10296000DEF80010C1F3066101EE101AB8EE411A4C
:1029700031EE031A80EE010ABCEEC00A10EE101A06
:10298000816080BD0024744A20BCBE4B0024744C7E
:10299000000000390000000080B544F2404EC5F64A
:1029A000020E5EF8183C5EF8181CC1F3055C5EF878
:1029B000141CBCF1000FDEF8042014D0C1F3002178
:1029C000C2F3CC02514300EE101A03F003010229B6
:1029D000B8EE400A0CD071B95EF8401C89060DD4DF
:1029E0009FED341A18E000218160C0E9001180BD1C
:1029F0009FED2F1A10E09FED2D1A0DE05EF8401CA0
:102A000049F20002C0F2D032C1F3C10122FA01F151
:102A100001EE101AB8EE411ADEF800109FED263ACA
:102A20006FF35F2102EE101ADEF80010C1F34621A9
:102A3000B8EE422A00EE032A00EE10CAB7EE003AC2
:102A4000B8EE400A81EE000A32EE031A02EE101AC6
:102A5000B8EE422A20EE010A32EE031A80EE011A85
:102A6000BCEEC11A80ED001ADEF80010C1F3064179
:102A700001EE101AB8EE411A31EE031A80EE011A77
:102A8000BCEEC11A80ED011ADEF80010C1F3066138
:102A900001EE101AB8EE411A31EE031A80EE010A67
:102AA000BCEEC00A10EE101A816080BD0024744A8A
:102AB00020BCBE4B0024744C000000390000000014
:102AC00080B584B00146B0F5805F4FF0000023DB95
:102AD000B1F5004F5BDB00F07880B1F5803F00F08E
:102AE000B380B1F5002F40F01E8144F20040C5F6DE
:102AF0000200816D01F44031B1F5003F00F0198111
:102B0000B1F5803F00F0FF80002940F02F81006880
:102B1000000140F12B81C5E0B1F5806F1CDAB1F501
:102B2000807F00F06B80B1F5007F40F0FC8044F2C4
:102B30000041C5F60201086DC0F38212042A00F2BA
:102B4000158148F20000C0F2BB00DFE812F09F00E0
:102B5000A800AF00EC00B80000F06380B1F5006F92
:102B600040F0E18044F20041C5F60201886DC0F3F7
:102B70000262042A00F2FA8048F20000C0F2BB00B0
:102B8000DFE812F084008D009400D1009D00B1F5C3
:102B9000805F00F06880B1F5804F40F0C48044F25F
:102BA0000040C5F60200816DC1F30271052900F2F3
:102BB000DD80DFE811F00600CA00D100D800DE0099
:102BC0001C00FFF7ADFD04B080BD44F20040C5F627
:102BD0000200016D01F04051B1F1005F00F09C80F6
:102BE000B1F1805F00F0A180002940F0BF80006853
:102BF00047F640018003C0F27D11C0E044F200417D
:102C0000C5F60201086D00F00702042A00F2AE804A
:102C100048F20000C0F2BB00DFE802F0384148850E
:102C2000510044F20041C5F60201886DC0F34252E2
:102C3000042A00F29B8048F20000C0F2BB00DFE8EB
:102C400002F0252E35723E0044F20040C5F6020027
:102C5000C16C0068C9031AD5000140F1878001A842
:102C6000FFF706FE55E044F20041C5F60201086D8B
:102C7000C0F30232042A00F2798048F20000C0F268
:102C8000BB00DFE802F0030C13501C000868800151
:102C90006CD501A8FFF758FD029804B080BD086804
:102CA000000163D501A8FFF7E3FD05E00868800097
:102CB0005CD501A8FFF770FE019804B080BDC86C18
:102CC0000B6810F0405208680CD113F0040309D0CF
:102CD000C0F3C10049F20001C0F2D03121FA00F086
:102CE00004B080BDB2F1805F02D110F4807050D189
:102CF000086810F400301CBF47F64000C0F27D1099
:102D0000B2F1005F57E0006880002FD501A8FFF7FF
:102D100043FE039804B080BD0068000126D501A8D9
:102D2000FFF7A6FD029804B080BD006880011DD5A4
:102D3000AFE7C16C036811F04051026823D113F072
:102D4000040320D0C2F3C100C4E7006800010DD520
:102D500001A8FFF78DFD9FE70068800006D501A858
:102D6000FFF71AFE98E70168490718D4002004B05D
:102D700080BD006840F60011C005C0F23D0101EAC7
:102D8000E07004B080BDB1F1805F0AD112F48072AE
:102D900007D040F60010C0F23D0004B080BD0068CE
:102DA00096E7006810F400301CBF47F64000C0F200
:102DB0007D10B1F1005F18BF002004B080BD00009D
:102DC0002DE9F04381B00446C07844F22C49000755
:102DD000C5F6020901D400262DE0606E4FEA30509E
:102DE00003280DD80026DFE800F0020E1613D9F8EC
:102DF0000000002640F40030C9F800004EB912E08F
:102E0000012636B90FE0201D022102F005F8064622
:102E10004EB1B04611E004F12400022102F08CF81A
:102E20000646002EF5D1D9F82400616E20F440103A
:102E30000843C9F824004FF000086078C0072FD07D
:102E4000606D042807D8DFE800F00A131B030300B5
:102E5000F6B1B04624E00126002EFAD118E0D9F8E8
:102E6000000040F40030C9F80000002EF1D10FE05E
:102E7000201D002101F0D0FF0646002EE9D107E019
:102E800004F12400002102F057F80646002EE0D19C
:102E9000D9F82400616D20F007000843C9F8240028
:102EA0006078800731D5A06D4FEAB010042807D8AC
:102EB000DFE800F00A131B030300F6B1B04624E07C
:102EC0000126002EFAD118E0D9F8000040F40030B5
:102ED000C9F80000002EF1D10FE0201D002101F003
:102EE0009BFF0646002EE9D107E004F124000021F3
:102EF00002F022F80646002EE0D1D9F82400A16D98
:102F000020F4E0700843C9F824006078400733D506
:102F1000D4F8A4004FEA7050042807D8DFE800F086
:102F20000A131B030300F6B1B04625E00126002E6C
:102F3000FAD118E0D9F8000040F40030C9F80000D8
:102F4000002EF1D10FE0201D002101F065FF0646A3
:102F5000002EE9D107E004F12400002101F0ECFF8C
:102F60000646002EE0D1D9F82C00D4F8A41020F4A5
:102F700060000843C9F82C006078000733D5D4F806
:102F8000A8004FEA3060042807D8DFE800F00A13F1
:102F90001B030300F6B1B04625E00126002EFAD14E
:102FA00018E0D9F8000040F40030C9F80000002E05
:102FB000F1D10FE0201D002101F02EFF0646002E6A
:102FC000E9D107E004F12400002101F0B5FF064635
:102FD000002EE0D1D9F82C00D4F8A81020F0E06041
:102FE0000843C9F82C00E078800727D5A06C4FEA89
:102FF0003010032806D8DFE800F002091202AEB153
:10300000B0461BE00126002EFAD10FE0D9F80000EF
:1030100040F40030C9F80000002EF1D106E0201D78
:10302000022101F0F9FE0646002EE9D1D9F8200070
:10303000A16C20F030000843C9F820006078C00679
:1030400031D5E06D4FEA3030042807D8DFE800F0D2
:103050000A131B030300F6B1B04624E00126002E3C
:10306000FAD118E0D9F8000040F40030C9F80000A7
:10307000002EF1D10FE0201D002101F0CDFE06460B
:10308000002EE9D107E004F12400002101F054FFF3
:103090000646002EE0D1D9F82400E16D20F4E0408E
:1030A0000843C9F824006078800625D5206E4FEAD1
:1030B0003040052807D8DFE800F0030A0F030303B8
:1030C00096B1B04618E00126002EFAD10CE0201D82
:1030D000012101F0A1FE04E004F12400012101F02E
:1030E0002BFF0646002EECD1D9F82400216E20F4E7
:1030F000E0200843C9F824006078400627D5D4F8BA
:10310000AC004FEA3070052807D8DFE800F0030A6A
:103110000F03030396B1B04619E00126002EFAD141
:103120000CE0201D012101F077FE04E004F12400F1
:10313000012101F001FF0646002EECD1D9F82C0048
:10314000D4F8AC1020F0E0400843C9F82C006078B7
:1031500000061FD5E06ED0B1B0F1005F12D0B0F123
:10316000805F24D1D9F8000040F40030C9F8000095
:103170007EB9D9F82400E16E20F040500843C9F828
:10318000240007E0201D012101F046FE0646002E26
:10319000EFD0B046E078C00729D0606C03280AD889
:1031A000DFE800F0020D1602CEB1B0461FE00126A6
:1031B000002EEED1DDE70126002EF6D10FE0D9F882
:1031C000000040F40030C9F80000002EEDD106E008
:1031D000201D022101F020FE0646002EE5D1D9F87F
:1031E0002000616C20F003000843C9F82000A0789B
:1031F000400643D5D9F8D40340F48070C9F8D4030D
:10320000FDF77AFD074600BFD9F8D403C00505D401
:10321000FDF772FDC01B6528F6D303266EBBD9F8F7
:103220004410D4F8B000414011F4407F11D0D9F8D7
:103230004410D9F8442042F48032C9F84420D9F827
:10324000442021F4407122F48032C9F84420C9F8A6
:103250004410B0F5807F0FD1FDF74EFD074641F2D7
:10326000893500BFD9F84400800705D4FDF744FD37
:10327000C01BA842F6D3032686B1B0462078C0070B
:1032800041D0A06F4FEAF000052823D8DFE800F016
:1032900003262B03030376B3B04634E04FF6CF7317
:1032A000D4F8B00059F81C2CC0F2FF0300F44071B0
:1032B00022F47C5203EA1013B1F5407F08BF1A4391
:1032C0006FF31F3049F81C2CD9F844100843C9F893
:1032D0004400D3E70126002EDED10CE0201D0121A1
:1032E00001F09AFD04E004F12400012101F024FE24
:1032F0000646002ED0D1D9F82800A16F20F0380062
:103300000843C9F828002078800723D5606F052876
:1033100007D8DFE800F0030A0F03030396B1B046B5
:1033200018E00126002EFAD10CE0201D012101F049
:1033300073FD04E004F12400012101F0FDFD0646C7
:10334000002EECD1D9F82800616F20F00700084367
:10335000C9F828002078400725D5D4F89000052822
:1033600007D8DFE800F0030A0F03030396B1B04665
:1033700019E00126002EFAD10CE0201D012101F0F8
:103380004BFD04E004F12400012101F0D5FD0646C7
:10339000002EECD1D9F82C00D4F8901020F00700C2
:1033A0000843C9F82C002078800627D5D4F88C0073
:1033B0004FEA3070052807D8DFE800F0030A0F0352
:1033C000030396B1B04619E00126002EFAD10CE0B5
:1033D000201D002101F020FD04E004F12400022161
:1033E00001F0AAFD0646002EECD1D9F82800D4F849
:1033F0008C1020F0E0400843C9F8280020784006EF
:1034000027D5D4F898004FEAB020052807D8DFE880
:1034100000F0030A0F03030396B1B04619E001263A
:10342000002EFAD10CE0201D002101F0F5FC04E093
:1034300004F12400022101F07FFD0646002EECD1AC
:10344000D9F82C00D4F8981020F4E0500843C9F8BB
:103450002C002078000627D5D4F89C004FEA703065
:10346000052807D8DFE800F0030A0F03030396B12D
:10347000B04619E00126002EFAD10CE0201D0021F3
:1034800001F0CAFC04E004F12400022101F054FD23
:103490000646002EECD1D9F82C00D4F89C1020F46C
:1034A00060400843C9F82C002078000716D5D4F8EE
:1034B0008000B0F5805F08D104F12400022101F002
:1034C0003BFD002818BF4FF00108D9F82800D4F8B8
:1034D000801020F440500843C9F828002078C00626
:1034E00016D5D4F89400B0F5807F08D104F12400FB
:1034F000022101F021FD002818BF4FF00108D9F882
:103500002C00D4F8941020F440700843C9F82C0023
:10351000A078000721D5D4F8A000B0F5003F19D05D
:10352000B0F5803F10D0C0BB201D002101F074FC1D
:1035300006468EB9D9F82C00D4F8A01020F44030FB
:103540000843C9F82C0008E004F12400022101F02E
:10355000F3FC0646002EEDD0B046A078400729D5F2
:10356000D4F88400B0F5401F21D0B0F5001F18D06A
:10357000B0F5801F40F0C180D9F8000040F4003061
:10358000C9F80000AEB9D9F82800D4F8841020F4A6
:1035900040100843C9F828000CE00126002EDBD1BA
:1035A000C8E704F12400012101F0C6FC0646002E04
:1035B000E9D0B046A078C0071FD0E06CB0F5803FDE
:1035C00010D0B0B9D9F8000040F40030C9F80000BC
:1035D00096B9D9F82000E16C20F480300843C9F88E
:1035E00020000AE0201D022101F016FC06461EB94B
:1035F000EFE70126002EECD0B046E078800608D533
:1036000004F12400022101F097FC002818BF4FF0BC
:103610000108206881031ED4C10234D4C1003CD407
:10362000810245D441004DD4B0F1FF3F5ADD000284
:1036300008D5D9F82800D4F8881020F440000843B1
:10364000C9F82800B8F1000F18BF4FF00108404634
:1036500001B0BDE8F083E16F6FF0010202EB3122AF
:10366000022A0AD34FEA31223AB1012A4AD1D9F8C3
:10367000002042F40032C9F80020002E45D04FF05F
:103680000108C102CAD5D9F82410226F21F00041E7
:103690001143C9F82410C100C2D559F81C1CD4F834
:1036A000B42021F48041114349F81C1C8102B9D592
:1036B000D9F82410A26E21F080711143C9F82410AA
:1036C0004100B1D559F81C1C21F4004149F81C1CDB
:1036D000D4F8B81059F81C2C114349F81C1CB0F14F
:1036E000FF3FA4DCD9F82010226D21F04051114396
:1036F000C9F820100002A5D59BE70126002E7FF413
:1037000058AF40E70126002EB9D1D9F8282022F47D
:1037100040721143C9F82810C1027FF57FAFB2E7AC
:103720002DE9F04381B0002800F0F48042F2000857
:103730000446C5F200288946D8F8000000F00F00C2
:1037400088420ED2D8F8000020F00F0040EA0900AD
:10375000C8F80000D8F8000000F00F00484540F01D
:10376000D980206844F218474107C5F602070AD5F8
:1037700021693A6802F07002914204D93A6822F055
:1037800070021143396001070AD561697A6802F055
:103790007002914204D97A6822F070021143796074
:1037A000C1060AD5A1697A6802F4E062914204D99F
:1037B0007A6822F4E0621143796081060AD5E169F2
:1037C000BA6802F07002914204D9BA6822F070021D
:1037D0001143B96081070AD5E1683A6802F00F0227
:1037E000914204D93A6822F00F0211433960C007B0
:1037F0007ED1206881070AD5E1683A6802F00F029D
:10380000914204D23A6822F00F0211433960D8F88D
:10381000001001F00F0149450DD9D8F8001021F032
:103820000F0141EA0901C8F80010D8F8001001F0B2
:103830000F0149456ED141070AD521693A6802F066
:103840007002914204D23A6822F07002114339604A
:1038500001070AD561697A6802F07002914204D2C8
:103860007A6822F0700211437960C1060AD5A16915
:103870007A6802F4E062914204D27A6822F4E0624B
:103880001143796080060AD5E069B96801F07001DA
:10389000884204D2B96821F070010843B86000F092
:1038A000BBF8396848F6D472C0F600023B68C1F331
:1038B000032103F00F03515CD25C01F01F01C840EB
:1038C00002F01F0140F2880220FA01F1C2F2004228
:1038D000116040F2840140F28412C2F20041C2F24F
:1038E000004208601068FDF76FFA01B0BDE8F08390
:1038F000386820F47061D4E90102012841EA02012C
:1039000039600BD003282BD002282ED157F8181C71
:10391000890307D4012001B0BDE8F08357F8181CD3
:10392000C905F7D557F8081C21F00701084347F8E7
:10393000080CFDF7E1F9064641F2883557F8080C06
:10394000616800F03800B0EBC10F3FF452AFFDF7F3
:10395000D3F9801BA842F1D9032001B0BDE8F08360
:1039600057F8181C8901D5D5DCE757F8181C49070A
:10397000D0D5D7E70000000080B500F04DF844F244
:10398000184148F6D473C5F60201C0F600030A6870
:10399000096801F00F01C2F30322595C9A5C02F03E
:1039A0001F0220FA02F201F01F0040F2880122FA01
:1039B00000F0C2F20041086040F28401C2F200410E
:1039C0000A6080BD0000000080B5FFF7D5FF44F21B
:1039D0001C4148F6D472C5F60201C0F6000209681F
:1039E000C1F30211515C01F01F01C84080BD00000D
:1039F00080B5FFF7C1FF44F21C4148F6D472C5F60A
:103A00000201C0F600020968C1F30221515C01F015
:103A10001F01C84080BD000044F20041C5F602010C
:103A20000869C0F3C20003280FD002282AD070BB57
:103A30000868800649F20000C0F2D03058BF7047D5
:103A40000968C1F3C101C84070478A6A886AC0F337
:103A5000051CC86ABCF1000F4B6B1DD0C3F3CC032F
:103A600000F00100584302F00302022A00EE100A9F
:103A7000B8EE400A12D0A2B90868800614D49FEDAF
:103A8000261A1EE047F64000C0F27D10704740F64F
:103A90000010C0F23D007047002070479FED1D1AD6
:103AA0000FE09FED1B1A0CE0086849F20002C0F21B
:103AB000D032C0F3C10022FA00F001EE100AB8EED5
:103AC000411A086B9FED153A6FF35F2002EE100A62
:103AD000086BC0F34620B8EE422A013000EE032AFC
:103AE00000EE10CAB7EE003AB8EE400A81EE000AC6
:103AF00032EE031A20EE010A01EE100AB8EE411A66
:103B000080EE010ABCEEC00A10EE100A704700BF3A
:103B10000024744A20BCBE4B0024744C00000039C1
:103B20002DE9F04381B0F8B18046007844F20049B5
:103B3000C007C5F602095AD0D9F8100000F03801C4
:103B4000D9F82800102905D018290FD100F003005A
:103B500002280BD1D9F80000800344D5D8F804001E
:103B6000002840D101272FE0012735E2D8F8044092
:103B70002CB1B4F5A02F0DD0B4F5803F10D0D9F8FA
:103B8000000020F48030C9F80000D9F8000020F4CB
:103B9000802009E0D9F8000040F48020C9F8000036
:103BA000D9F8000040F48030C9F80000FDF7A4F80F
:103BB0000546A4B1D9F80000800314D4FDF79CF8A1
:103BC000401B6428F6D903270020002800F0048257
:103BD0000DE000BFFDF790F8401B6428F3D8D9F83A
:103BE00000008003F6D40120002800F0F58198F849
:103BF0000000800740F18480D9F8100010F03801EF
:103C0000D9F828001CD0182908BF5FEA807017D0A7
:103C1000D8F80C00D9F80010002847D021F019017D
:103C20000843C9F80000FDF767F80546D9F8000019
:103C300040072AD4FDF760F8401B0228F6D91EE0A1
:103C4000D9F80000400704D5D8F80C00002800F08F
:103C50009181D9F80000D8F80C1020F01900084321
:103C6000C9F80000FDF748F8054600BFD9F8000084
:103C700040070AD4FDF740F8401B0228F6D9032775
:103C80000024002C00F0A8813AE0FDF72DF841F265
:103C90000301884223D8D8F81000D9F8041040282E
:103CA00021F47C3124D141F4003023E021F00100E3
:103CB000C9F80000FDF720F805460126D9F80000F4
:103CC00010F0040086EA900417D0FDF715F8401BA9
:103CD0000328F3D30327002C00F07E8110E0D9F8ED
:103CE0000400D8F8101020F0FE4040EA016001E026
:103CF00041EA0030C9F804000124002C00F06C8176
:103D000098F80000C00674D5D9F8100000F038010A
:103D1000D9F82800082905D018291CD100F0030083
:103D2000012818D1D9F80000C00503D5D8F81C0027
:103D3000802859D1FCF7D8FF41F20301884222D8EC
:103D4000D8F82000D9F80410202821F0F84142D1F9
:103D500041F0804041E0D8F81C000028D9F800006C
:103D600020D040F08000C9F80000FCF7C5FF0546F0
:103D7000D9F80000C005DDD4FCF7BEFF401B0228C7
:103D8000F6D9032731E0D9F80C00D8F8201020F03C
:103D90007C50012440EA0160C9F80C00002C00F0BE
:103DA0001B8126E020F08000C9F80000FCF7A4FF8A
:103DB00005460126D9F8000010F4807086EA102428
:103DC0000ED0FCF799FF401B0328F3D30327002CE8
:103DD00000F002810DE041EA8060C9F8040001248E
:103DE000002C00F0F98004E001270024002C00F0F2
:103DF000F38098F8000000071CD498F800008006B3
:103E000031D498F80000400745D4D8F82440002C5D
:103E100000F0E180D9F8100000F03800182840F0D8
:103E20008880012CD9F82810D9F8300040F0A480FF
:103E30000127D1E0D8F814000028D9F874003ED04A
:103E400040F00100C9F87400FCF756FF054600BFBA
:103E5000D9F874008007D0D4FCF74EFF401B02282D
:103E6000F6D90327B8E0D8F818000028D9F80000E0
:103E70004BD040F48050C9F80000FCF73DFF0546E8
:103E8000D9F800008004BCD4FCF736FF401B0228A0
:103E9000F6D90327A0E0D9F8000440F48070C9F8EF
:103EA0000004FCF729FF0546D9F80004C0051AD420
:103EB000FCF722FF401B6428F6D903278CE020F092
:103EC0000100C9F87400FCF717FF0546032700BF7F
:103ED000D9F8740080077FF590AFFCF70DFF401B09
:103EE0000228F5D978E0D8F808401CB1052C77D025
:103EF000012C7BD0D9F8700020F00100C9F87000C7
:103F0000D9F8700020F0040074E020F48050C9F863
:103F10000000FCF7F1FE0546032700BFD9F80000BA
:103F200080047FF56EAFFCF7E7FE401B0228F5D951
:103F300052E0D9F8000020F08070C9F80000FCF7CA
:103F4000DBFE022C05464FF0030709D1D9F800002B
:103F5000800171D5FCF7D0FE401B0228F6D93BE06A
:103F6000D9F80000800136D5FCF7C6FE401B0228B8
:103F7000F6D931E0012783E601F00302D8F82830B2
:103F80009A4240F0D380C1F30511D8F82C20914219
:103F900040F0CE800146D8F830206FF35F21013A1F
:103FA000914240F0C780C0F34622D8F8341001395E
:103FB0008A4240F0C180C0F30642D8F83810013977
:103FC0008A4240F0BB80C0F30660D8F83C1001394B
:103FD000884240F0B5800027F8B201B0BDE8F08318
:103FE000D9F8700040F00400C9F87000D9F87000EA
:103FF00040F00100C9F87000FCF77EFE002C054679
:1040000041F288344FF0030711D000BFD9F8700097
:1040100080073FF5FAAEFCF76FFE401BA042F5D9D2
:10402000DAE700BFFCF768FE401BA042D4D8D9F8FD
:1040300070008007F6D4E8E608F12807D9F82800D0
:1040400040F2F33188438ECF0843591E40EA0210F4
:104050004FF47E426FF35F21C9F8280002EB47203E
:104060004FF4FE0280B2D8F83C300844D8F838103B
:1040700002EB01414FF0FE4201F4FE0102EB03624C
:10408000084402F0FE410844C9F83000D9F82C0079
:104090004FF6F87120F00100C9F82C00D9F834006F
:1040A000D8F84820884340EAC200C9F83400D9F85B
:1040B0002C00D8F8401020F00C000843C9F82C0060
:1040C000D9F82C00D8F8441020F002000843C9F8B1
:1040D0002C00D9F82C0040F48030C9F82C00D9F815
:1040E0002C0040F40030C9F82C00D9F82C0040F422
:1040F0008020C9F82C00D9F82C0040F00100C9F844
:104100002C00D9F8000040F08070C9F80000FCF7DE
:10411000F3FD04460327D9F8000080013FF55BAFAB
:10412000FCF7EAFD001B0228F5D955E7012753E704
:10413000012751E701274FE701274DE701274BE70B
:10414000012749E70000000080B502F011F880BDAA
:1041500010B5B0B10446D0F8840028B9002084F826
:104160008000204600F028F82420C4F8840020684D
:10417000016821F001010160204602F001FA0128E6
:1041800001D1012010BDA06A10B1204602F0F4F860
:104190002068416821F490414160816821F02A0142
:1041A0008160016841F001010160204602F054F98C
:1041B00010BD00000000000070470000000000007B
:1041C000FEE700000000000040F60061CEF20001B2
:1041D000D1F88020D2071CBF09685FEAC17100D105
:1041E00070474FF0604100BF0A680AB900BFFBE7A3
:1041F000087070470000000010B5002A08BF10BD0D
:1042000002394FF0370C4FF0000E00BF030FB0F132
:10421000204F0CEB107438BF03F13004013A4FEA21
:10422000001001F8024F81F801E0EFD110BD00004D
:1042300070B58EB00446006801F0C6FE002850D06C
:10424000206801F08DFC054600284CD12068002133
:1042500001F0BEFEA0662068042101F0B9FEE06610
:104260002068082101F0B4FE206720680C2101F0CD
:10427000AFFE606720680221022601F0D9FC0546E6
:1042800088BB20684FF40031666401F081FC05466C
:1042900048BB2068002101F09BFEA0652068042136
:1042A00001F096FEE0652068082101F091FE20668D
:1042B00020680C2101F08CFE60662068042101F06A
:1042C00087FE616C000D20642068090401F02CFC5D
:1042D000054640B903A92046FCF73AFE30B1A56B6C
:1042E00001E04FF0806528460EB070BD616C20681B
:1042F000090401F081FC10B1A16B0843A06304F133
:1043000078014FF0FF322046FCF7DEFE08B1A56BC6
:10431000E9E7616C2068090401F06EFC10B1A16B43
:104320000843A06394E80700D4E90436A569029520
:10433000CDE900360023002501F04EFED3E7000052
:10434000B0B586B044F2E04040F20044C5F6020049
:10435000C5F6020401AD50F80C1C41F4803140F860
:104360000C1C50F80C1C01F480310191019901687A
:1043700041F002010160016801F00201019101991F
:10438000016841F004010160016801F0040101913C
:104390000199016841F0080101600068294600F0B8
:1043A0000800019001980220029001200390032050
:1043B00004900C2005904FF4FE50019004F58060AD
:1043C000FCF7BAFB0420019004F500602946FCF7D5
:1043D000B3FB4FF44070019020462946FCF7ACFB3C
:1043E000312005210022FDF71FFB3120FDF718FBCE
:1043F00006B0B0BD0000000070B582B00021019190
:104400000446006801F02CFB08B102B070BD48F210
:1044100000054FF6FF76C8F2FF0500BF0198B042D5
:1044200000F10100019015D02068294601F02CFB15
:10443000A0B92068002101F0CBFDB0F1FF3FEDDC19
:1044400000F07F40B0F1404F0CD10120E06300202C
:1044500002B070BD4FF0807002B070BD4FF0805060
:1044600002B070BD0020E06302B070BD000000002B
:104470002DE9F04182B00D46164604460020B1F504
:10448000004F18BFB5F5804F1FD1019001A9BB2285
:104490004FF0FF33204600F087F8074660B13AA09E
:1044A00004F086FD4FF48030022E0BD0042E0FD185
:1044B00094F867114FB90FE09DF8070001900020B4
:1044C000022EF3D194F8421137B102B0BDE8F08169
:1044D00094F84311002FF8D1B5F5004F08BF090932
:1044E000019800F00F0001F00F01884203D1002075
:1044F00002B0BDE8F08100222068C0F2BB3242EA7F
:10450000012101F0DDFB0028DFD1616C2068090486
:1045100001F072FB0546B0FA80F04FEA50181DB169
:1045200000204FF6FF7721E02068002101F050FDC8
:1045300006464FF6FE77C00514D4616C2068090466
:1045400001F05AFB0546B0FA80F04FEA50184DB919
:104550002068002101F03CFD013F064602D016F420
:104560008070EAD04FF0805000EA4650B8F1000F5A
:1045700018BF002FA9D1002F08BF4FF000452846D3
:1045800002B0BDE8F08100BF4D4D435F52656164EC
:1045900045787443534420313837204661696C654F
:1045A00064000000000000002DE9F04F89B098463B
:1045B00091460E460446FCF79FFB0021A16322684A
:1045C000834610464FF0FF33D1620125079103A9BE
:1045D00003934FF4007304939023059302230693EF
:1045E000089501F0C1FB2068002101F0E9FA58B1FB
:1045F000216840F6FF72C1F6E0728A63A16B08433E
:10460000A06384F83450B3E041F204004FF0000A94
:10461000CEF20000006801904FEA99004FF00009C7
:10462000029005E0FCF768FBA0EB0B0040456AD266
:104630002068416B11F4957F1FD1406B0004F1D5C8
:10464000BAF1000F05D141F20400CEF2000000687B
:10465000019002980025A0EB090700BF206801F037
:10466000D7FCAF4205F1010508BF3060082DF5D138
:1046700009F108094FF0010AD4E741F20401CEF232
:1046800000010D68406B800602D53FA004F090FC4D
:104690002068416B090745D4416B89074FD4416BB2
:1046A000890659D4616C019A0904AD1A01F0A4FA83
:1046B00010B1A16B0843A063206840F63A71C1F6BF
:1046C000000101EE105A8163012084F8340040F2A9
:1046D0008400C2F20040B8EE411B294690ED000A6A
:1046E00030A0B8EE400B80EE010B9FED231B20EEB7
:1046F000010B9FED231B20EE010B53EC102B03F05D
:10470000DBFF002534E0206840F6FF71C1F6E07160
:1047100003258163A06B40F00040A063012084F872
:10472000340025E040F6FF710125C1F6E071816398
:10473000A06B40F00800A06384F8345018E040F605
:10474000FF710125C1F6E0718163A06B40F00200AA
:10475000A06384F834500BE040F6FF710125C1F6E8
:10476000E0718163A06B40F02000A06384F83450B6
:10477000284609B0BDE8F08F00000000000080402E
:104780008DEDB5A0F7C6B03E48414C5F4D4D435F3F
:10479000526561644578744353442052584F5645DE
:1047A0005252000048414C5F4D4D435F5265616479
:1047B0004578744353442020202025313075204310
:1047C00079636C65732C2025352E326C66204D4242
:1047D00070730A000000000070B551B10C46416CC6
:1047E00006460068090401F007FA054620B128468C
:1047F00070BD4FF0006070BD30680021002501F0F1
:10480000E7FB2060284670BD70B584B00025CDE977
:104810000255CDE90055FDF7DFF86C460120ADF8F3
:1048200000001F208DF808008720ADF80900204601
:10483000019540F201168DF80B500396FDF79CF898
:104840004FF01050019012208DF8080003208DF8D1
:104850000B004FF48070ADF809002046ADF8006001
:104860000395FDF789F80420FDF7C6F804B070BD84
:10487000B0B5D0F8BC52ADB1044642F2180028449D
:10488000017981B18121204602F0CEFC687A0228AC
:1048900018BFB0BD8121204602F0C6FC0121204690
:1048A00002F0C2FCB0BD00680028EBD0687A002896
:1048B000E8D10121204602F0B7FCE3E70000000048
:1048C00070B5D0F8BC52002D48D0044642F210001A
:1048D0002E18012170687062B068B062204602F044
:1048E000A3FB1F280DD145F255313068C4F2423187
:1048F000884206D1717B012903D8B07B013810288A
:104900000BD3717B05222023204600F00DFF0220EF
:1049100068722046FFF7ACFF70BD42F21F002A18F4
:10492000204600F029FC297AB0F1FF3F0BDD481E3C
:10493000032838BF70BDEA6862B105F11001204656
:1049400000F0DAF870BD0529E3D10121204600F01E
:10495000B3F870BD0021204600F0AEF870BD000035
:1049600010B50446D0F8BC02B0B1407A022808D194
:104970008121204602F058FC0121204602F054FC1F
:1049800010BD49B2B1F1FF3F06DC012808BF10BDE0
:104990000121204600F090F810BD0000000000004A
:1049A00010B50446D0F8BC0238B1017ACA1E022AFA
:1049B00004D20021204600F07FF810BD0229FCD16E
:1049C00042F21D0142F21F020244415C204600F007
:1049D000D3FBB0F1FF3FC8BF10BD0121204600F05E
:1049E0006BF810BD0000000010B50446D0F8BC0202
:1049F000C0B1017A012904D0A1B92046FFF760FFB8
:104A000010BD42F21D0142F21F020244415C2046E9
:104A100000F0B2FBB0F1FF3FC8BF10BD012120463E
:104A200000F04AF810BD0000D0F8BC0200281CBFFE
:104A30000021017270470000B0B5D0F8BC52002DC3
:104A400008BFB0BD044642F260002844002129811D
:104A50000180D4F8C02281700020116888470121AC
:104A6000204602F0D9FA8121204602F0D5FA42F21E
:104A7000100001212A181F23204602F045FBB0BD7B
:104A8000B0B5D0F8BC52002D08BFB0BD04464FF4FD
:104A9000807028818121204602F012FA01212046EF
:104AA00002F00EFA42F2100001212A181F232046BC
:104AB00002F02AFBB0BD0000B0B5D0F8BC52002D0A
:104AC00008BFB0BD044642F230002A1845F2553006
:104AD000C5F242300D23106000201173812128722D
:104AE000204602F0BDFB42F2100001212A181F23CC
:104AF000204602F009FBB0BD10B5D0F8BCE2BEF113
:104B0000000F08BF10BD8C4642F218010EEB0104E5
:104B10005EF80130934228BF1346216A891A216248
:104B2000002184F8241004218EF8081081216246A7
:104B300002F096FB10BD000080B547F200014FF473
:104B40000042C5F2002101600021C0E90111C0E965
:104B5000032102214161FCF7FFFB002818BF01205F
:104B600080BD000000000000FEE700000000000023
:104B7000704700000000000000F007004FF0FF3C0D
:104B800080F00703042B28BF0423033838BF00201C
:104B90000CFA03F399430CFA00F301FA00F022EA4D
:104BA000030108437047000080B542F2A450C2F2EE
:104BB0000040FDF7F1F880BD44F61C01C4F200018D
:104BC0000A681206FCD5C8607047000000000000AB
:104BD00070B50446006843F20B06056C00EB41100B
:104BE000C4F65476B542D0F8081B07D311F400413F
:104BF0001EBF00F530604FF4004181602046FDF794
:104C00000BFDB54209D32069012818BF70BD20688B
:104C100004F57172012103F0DFF870BD000000009F
:104C200070B5044600680E4600EB4111036CD1F8E4
:104C3000082B2569012D01F530612BD115073BD4D7
:104C4000950654D412F0280F18BF70BD43F20B051F
:104C5000C4F65475AB4202D312F4004235D1C6EB10
:104C6000C60209696FF3DF4104EB8202D2E98135A4
:104C7000A3EB0101C2F8141205EB0301C2F80812FC
:104C8000AEB9D2F8101291B904F57172012103F096
:104C9000A3F80CE043F20B05C4F65475FF35AB42A4
:104CA00017D1100411D4900601D520208860F1B2EC
:104CB0002046FCF725FF70BD43F20B00C4F654708C
:104CC000834213D312F4004010D04FF400408860A8
:104CD00070BD3EB9D4F8101221B904F571720021EB
:104CE00003F07AF8F1B22046FCF70AFF70BD2020ED
:104CF000886070BD000000002DE9F04F83B0C1EB6B
:104D0000C102064600EB8200054655F8503F2C468E
:104D100054F8042F934250D30746D6F800C09A1A8D
:104D200057F8443F9A4288BF1A46CDE9011C0CEB64
:104D300041110332D1F818399BB2B3EB920F2BD348
:104D400000F1480801985FFA80FA01F5106B00BF86
:104D50002068296881421FD9A1EB00093868814584
:104D6000327C88BF8146D8F8001000921FFA89F380
:104D70000298524603F024FBD8F800004844C8F8D3
:104D8000000020684844206009F10300DBF8181097
:104D900089B2B1EB900FDBD2286821688842019874
:104DA0000BD8029A00F00F00012101FA00F0D2F8AE
:104DB000341821EA0000C2F8340803B0BDE8F08FCF
:104DC00010B5B0B001ACBC212046FBF7C5FA4FF4DA
:104DD00080300190149008200790052002906020F8
:104DE0000390042006900221CDE9041000200890D1
:104DF0002046FDF7E5FF002804BF30B010BD49F2A2
:104E0000640040F21711C0F60000FBF749FE0000F5
:104E10007047000000000000F0B581B044F22C475C
:104E2000C5F6020757F8042C02F00302032A02D148
:104E3000012001B0F0BD054657F82C0C0C4620F0BF
:104E4000806047F82C0CFBF757FF064657F82C0CF0
:104E5000000105D5FBF750FF801B0228F6D964E05E
:104E600057F8040CEE6895E80E0020F47C30012C15
:104E700040EA0130A2F101016FF35F214FF47E425D
:104E800002EB432247F8040C92B24FF0FE4302EBD0
:104E900001004FF4FE012A6901EB064101F4FE0115
:104EA00003EB0262084402F0FE410844F8603868EF
:104EB000696920F0C00040EA010038603868A969DB
:104EC00020F0200040EA0100386038684FF6F871A1
:104ED00020F0100038603869EA6920EA01004FF4D8
:104EE000001140EAC2003861386808BF4FF48011F1
:104EF00040F01000002C386008BF4FF400213868E3
:104F00000843386057F82C0C40F0806047F82C0CB0
:104F1000FBF7F2FE044600BF57F82C0C000107D443
:104F2000FBF7EAFE001B0328F6D3032001B0F0BD17
:104F3000002001B0F0BD0000F0B581B044F22C4774
:104F4000C5F6020757F8042C02F00302032A02D127
:104F5000012001B0F0BD054657F82C0C0C4620F09E
:104F6000805047F82C0CFBF7C7FE064657F82C0C70
:104F7000800005D5FBF7C0FE801B0228F6D964E04F
:104F800057F8040CEE6895E80E0020F07C70012CB8
:104F900040EA0150A2F101016FF35F214FF47E421C
:104FA00002EB432247F8040C92B24FF0FE4302EBAF
:104FB00001004FF4FE012A6901EB064101F4FE01F4
:104FC00003EB0262084402F0FE410844786138684D
:104FD000696920F4406040EA010038603868A969D6
:104FE00020F4007040EA0100386038684FF6F8712C
:104FF00020F480703860B869EA6920EA01004FF057
:10500000807140EAC200B861386808BF4FF40001FF
:1050100040F48070002C386008BF4FF4800138687D
:105020000843386057F82C0C40F0805047F82C0C9F
:10503000FBF762FE044600BF57F82C0C800007D433
:10504000FBF75AFE001B0328F6D3032001B0F0BD86
:10505000002001B0F0BD0000D0F8BC0250B10979C9
:1050600042F26202002918BF012181540021C1606F
:1050700048B27047FF2148B27047000000000000AE
:1050800080B5D0F8BC1259B142F2680C1A4451F8FC
:105090000C108A4207D900210522212300F044FB8D
:1050A000FF2040B280BD002040B280BD0000000063
:1050B00080B58446D0F8BC0290B342F21803C358BE
:1050C00083B15378DB0711D1DCF8C03201EBC101A9
:1050D0001279DB6903EB81010B790533934238BF09
:1050E0001A4612E000210522202316E0917880293B
:1050F00006D079B940F252010622C2F2004104E022
:1051000040F258010822C2F2004100F085FB002065
:1051100040B280BD002105222423604600F004FB3C
:10512000FF2040B280BD000080B5D0F8BC0260B165
:105130000A7A40F22001C2F200411B2A28BF1B223A
:1051400000F06AFB002040B280BDFF2040B280BD6D
:1051500080B5D0F8BC0260B10A7940F23B01C2F2DE
:105160000041172A28BF172200F056FB002040B24A
:1051700080BDFF2040B280BDB0B5D0F8BC52002D3C
:1051800000F0848013789D2B00F337805A2B00F2B7
:105190007680DFE803F02E74743C74747474747455
:1051A00074747474747474744174747474747474F2
:1051B000454A74744E7474747453745774745B7485
:1051C0005F747474746374747474747474747474C5
:1051D000747474747474747474747474747474748F
:1051E000747474747474747474747474747474747F
:1051F000670000F0E5FA40B2B0BD9E2B37D0A82B77
:1052000039D0AA2B3BD100F09FFB40B2B0BD114674
:1052100000F04AFA40B2B0BDFFF74AFF40B2B0BD5D
:105220001146FFF795FF40B2B0BD00F09DFA40B2C5
:10523000B0BD1146FFF710FF40B2B0BD00F0F8F965
:1052400040B2B0BD00F070F940B2B0BD00F0C8F897
:1052500040B2B0BD00F00CFB40B2B0BD00F0ECFAC3
:1052600040B2B0BD1146FFF75FFF40B2B0BD00F0E5
:1052700093F940B2B0BD00F007F940B2B0BD0021D3
:105280000522202300F050FA02206872FF2040B26D
:10529000B0BD0000000000002DE9F041D0F8BC7264
:1052A000002F40D0044642F2700042F2640207F13F
:1052B00010083858BB5AD4F8C02200FB03F542F25C
:1052C00038003E18B5F5005F28BF4FF40055D2F8FE
:1052D00010C0726BB5FBF3F083B208464146E0475D
:1052E000B0F1FF3F19DD8121204642462B4601F0F7
:1052F000B7FFB08D3168D6E90D23B5FBF0F002445D
:10530000181A7263B063A1EB0500306001D103206D
:105310003872002040B2BDE8F08100210422112340
:10532000204600F001FAFF2040B2BDE8F081000005
:105330002DE9F0410446D0F8BC02002842D042F2E8
:10534000700242F26403D4F8C05200F1100882588F
:10535000C35A02FB03F642F238028718B6F5005F23
:1053600028BF4FF400566D697A6BB6FBF3F083B239
:1053700008464146A847B0F1FF3F1DDDB88D3A68A9
:10538000D7E90D35B6FBF0F10B44691A7B63A2EB4C
:105390000602B9633A6019D001FB00F301212046EF
:1053A0004246B3F5005F28BF4FF4005301F0ACFE56
:1053B000002568B2BDE8F0810021042203232046C5
:1053C00000F0B2F9FF2568B2BDE8F0810021204667
:1053D0000025FFF771FB68B2BDE8F0810000000016
:1053E0002DE9F041D0F8BC7257B30446387A0D4627
:1053F00048B14FF40050F86020462946FFF74CFFB3
:1054000040B2BDE8F08142F2180007EB000898F9BD
:105410000400002803D40021052220230DE098F881
:105420004A00022806D0D4F8C002164681682846F1
:10543000884748B1002102223A23204600F074F93F
:10544000FF2040B2BDE8F081D6F80200294602BA3A
:10545000C8F85420B6F80700000403BA2046C8F87C
:105460005830FFF70DFE0028EAD4D8F85800B8F8F5
:105470004C104843D8F800108142CCD10220387239
:10548000B7E70000000000002DE9F041D0F8BC7241
:1054900057B30446387A0D4648B14FF40050F860CF
:1054A00020462946FFF7F8FE40B2BDE8F08142F2FF
:1054B000180007EB000898F90400002803D4002125
:1054C000052220230DE098F84A00022806D0D4F8DF
:1054D000C002164681682846884748B1002102224A
:1054E0003A23204600F020F9FF2040B2BDE8F081C9
:1054F000D6F80200294602BAC8F85420D6F80600A9
:1055000003BA2046C8F85830FFF7BAFD0028EBD49C
:10551000D8F85800B8F84C104843D8F80010814229
:10552000CDD102203872B8E72DE9F041D0F8BC7235
:10553000BFB142F262020446D0F8C002BD18AE1DEF
:1055400005F102084368084631464246984710B9BB
:105550002878022809D1002102223A23204600F0AF
:10556000E3F8FF2040B2BDE8F08130680138F874FC
:10557000010E3974010C7974010AB974B8F800107D
:105580000020B88240B209BA090CF9820821F960FA
:10559000BDE8F081000000002DE9F04381B0D0F8B3
:1055A000BC42D4B1904642F262020746D0F8C00233
:1055B000A518AE1D05F102094368084631464A4662
:1055C000984710B92878022809D1002102223A23ED
:1055D000384600F0A9F8FF2025E0FF2023E0D8F8A6
:1055E0000A0000BAE06050B100200022002100BF94
:1055F0000131A318CAB2E76897421874F8D8306826
:105600000138E075010E2175010C6175010AA17563
:10561000B9F800100020208309BA090C6183D8F87A
:105620000A1009BAE16040B201B0BDE8F0830000A1
:10563000B0B582B0D0F8BC52BDB10446D0F8C002BB
:10564000EC460DF10602436808466146984720B9CA
:1056500042F26200285C022809D1002102223A238A
:10566000204600F061F8FF2019E0FF2017E000203D
:105670002861009968610139A8610822EA740A0E5C
:105680002A750A0C6A750A0AAA75BDF80620E9751A
:105690000221298311BA090C69830C21E96040B207
:1056A00002B0B0BD0000000010B5D0F8BC22C2B3FB
:1056B00042F2180302EB030CDCF8003063B39CF8F1
:1056C000480000239CF849E013615361704513843E
:1056D000D36193614FF0700313744FF00C03D375D3
:1056E00011D002EBC0034FF4015E03F50154013009
:1056F00013F80E309374A488C3B29483043B18BF8C
:1057000003468CF848301220D0600879122898BFE0
:10571000D060002040B210BD00210522202300F0FF
:1057200003F8FF2040B210BDB0B5D0F8BC0200288D
:1057300008BFB0BD42F2610C4FF4015410F80CE008
:1057400000EBCE0101F501550A550EF10101CAB277
:105750002B71043A4FF000036B7118BF0A4600F832
:105760000C20B0BD0000000080B5D0F8BC1279B1AB
:1057700042F2620C11F80C30012B0CD1137903F0BA
:105780000303022B07D1002105222423FFF7CCFFBE
:10579000FF2040B280BD107900F003020020012AF2
:1057A00018BF032A06D101EB0C0210700020C8605C
:1057B00040B280BD022AF9D10220F4E700000000C7
:1057C000B0B5D0F8BC52F5B1044642F218002844F6
:1057D000026832B10021052220232046FFF7A4FFF2
:1057E00011E090F84A00022805D0D4F8C00282687F
:1057F0000846904750B1002102223A232046FFF785
:1058000093FF05202872FF2040B2B0BD0020E86061
:1058100040B2B0BD0000000050B1002AC26008BF15
:10582000704701390F3000BF8B5C8354013AFBD1C4
:10583000704700000000000010B5D0F8BC42A4B1D1
:10584000527892070CD442F26C02A318D3E90023D9
:10585000FFF716FC002808D40020E06040B210BD1D
:10586000002105222423FFF75FFFFF2040B210BD77
:105870002DE9F041D0F8BC72002F5FD00446387A91
:105880000D4630B120462946FFF752FD40B2BDE833
:10589000F08142F2180007EB0008D8F80000002859
:1058A00046D098F90400B0F1FF3F41DDD4F8C002C2
:1058B000164681682846884718B1002102223A23FB
:1058C00039E0D4F8C002C1682846884718B10021E1
:1058D000022227232FE0D6F80200294602BAC8F890
:1058E0005420B6F80700000403BA2046C8F8583020
:1058F000FFF7C6FB002821D4D8F85800B8F84C10A0
:1059000000FB01F3D8F80000984211D1B3F5005F15
:105910004FF0010028BF4FF40053387207F1100216
:105920000121204601F0F0FB002040B2BDE8F081EB
:105930000021052220232046FFF7F6FEFF2040B27B
:10594000BDE8F081000000002DE9F041D0F8BC7204
:10595000002F63D00446387A0D4630B120462946E0
:10596000FFF7E6FC40B2BDE8F08142F2180007EB19
:105970000008D8F8000000284AD098F90400B0F1D7
:10598000FF3F45DDD4F8C0021646816828468847A7
:1059900018B1002102223A2308E0D4F8C002C168FD
:1059A0002846884740B10021022227232046FFF7DE
:1059B000BBFE0520387231E0D6F80200294602BA53
:1059C000C8F85420D6F8060003BA2046C8F8583064
:1059D000FFF756FB002821D4D8F85800B8F84C102F
:1059E00000FB01F3D8F80000984211D1B3F5005F35
:1059F0004FF0010028BF4FF40053387207F1100236
:105A00000121204601F080FB002040B2BDE8F0817A
:105A10000021052220232046FFF786FEFF2040B20A
:105A2000BDE8F0810000000010B586B00446019189
:105A3000102002904FF480700390002004904FF4E7
:105A40008050059001A9204600F0E6FA102141F2AD
:105A50008832204600F0C0F906B010BD00000000FA
:105A600010B586B00446002104914FF48050CDE972
:105A70000211019101A90590204600F0CDFA2046BF
:105A800000F08AF906B010BD10B586B00446019149
:105A9000012002904FF480700390002004904FF496
:105AA0008050059001A9204600F0B6FA204600F08B
:105AB0005FFA06B010BD000010B586B00446019133
:105AC000122002904FF480700390002004904FF455
:105AD0008050059001A9204600F09EFA122141F263
