:020000040800F2
:1000000018160224AD02000843540008B502000887
:10001000415400087D100008CD6200080000000077
:100020000000000000000000000000005F5B00080E
:10003000411300080000000093540008615B0008B1
:10004000DD020008DD020008DD020008DD02000814
:10005000DD020008DD020008DD020008DD02000804
:10006000DD020008DD020008DD020008DD020008F4
:10007000DD020008DD020008DD020008DD020008E4
:10008000DD020008DD020008DD020008DD020008D4
:10009000DD020008DD020008DD020008DD020008C4
:1000A000DD020008DD020008DD020008DD020008B4
:1000B000DD020008DD020008DD020008DD020008A4
:1000C000DD020008DD020008DD020008DD02000894
:1000D000DD020008DD020008DD020008DD02000884
:1000E000DD020008DD02000800000000DD0200085B
:1000F000DD020008DD020008DD020008DD02000864
:10010000DD020008A3560008DD020008DD02000839
:10011000DD020008DD020008DD020008DD02000843
:10012000DD020008DD020008DD020008DD02000833
:10013000DD020008DD020008DD020008DD02000823
:1001400000000000000000000000000000000000AF
:10015000DD020008DD020008DD020008DD02000803
:10016000DD020008DD020008DD020008DD020008F3
:10017000DD020008DD020008DD02000800000000CA
:10018000DD020008DD020008DD020008DD020008D3
:10019000DD020008DD020008DD020008DD020008C3
:1001A000DD020008DD020008DD020008DD020008B3
:1001B000DD020008DD020008DD020008DD020008A3
:1001C000DD020008DD020008DD020008DD02000893
:1001D000DD020008DD020008DD020008DD02000883
:1001E000DD020008DD020008DD020008DD02000873
:1001F000DD020008DD020008DD020008DD02000863
:10020000DD020008DD020008DD020008DD02000852
:10021000DD020008DD020008DD020008DD02000842
:10022000DD020008DD020008DD0200080000000019
:10023000DD020008DD02000800000000DD02000809
:10024000DD020008DD020008DD020008DD02000812
:10025000DD020008DD020008DD020008DD02000802
:10026000DD020008DD020008DD020008DD020008F2
:10027000DD020008DD020008DD02000800000000C9
:10028000DD020008DD020008DD02000800000000B9
:1002900000000000DD020008DFF80CD000F076FA64
:1002A00000480047E99C0008181602240C488047C3
:1002B0000C4800471EF0040F0CBFEFF30880EFF36B
:1002C000098021462A46334609F06EBBFEE7FEE769
:1002D000FEE7FEE7FEE7FEE7FEE7FEE7FEE70000DB
:1002E0009F5B0008990200082DE9F05F0546002099
:1002F00092469B4688460646814640241BE0284697
:1003000041464746224600F079F853465A46C01AFD
:10031000914110D311461846224600F060F82D1A7C
:1003200067EB01084F4622460120002100F057F8F4
:1003300017EB00094E41201EA4F10104DFDC484602
:1003400031462A464346BDE8F09F40EA01039B0739
:1003500003D009E008C9121F08C0042AFAD203E03A
:1003600011F8013B00F8013B521EF9D27047D2B29E
:1003700001E000F8012B491EFBD270470022F6E78E
:1003800010B513460A4604461946FFF7F0FF20460B
:1003900010BD421C10F8011B0029FBD1801A7047C8
:1003A000034611F8012B00F8012B002AF9D1184659
:1003B000704730B50B46014600202022012409E099
:1003C00021FA02F59D4205D303FA02F5491B04FA0E
:1003D00002F52844151EA2F10102F1DC30BD202AED
:1003E00004DB203A00FA02F1002070479140C2F18C
:1003F000200320FA03F3194390407047202A04DBBE
:10040000203A21FA02F00021704721FA02F3D0408D
:10041000C2F1200291400843194670472DE9FE4F72
:10042000804681EA0300C00F0C46009021F0004195
:1004300023F00045B8EB0200A94105D24046214611
:1004400090461C460B46024623F00040104347D01E
:10045000270DC7F30A00C3F30A510290401A019016
:1004600040286BDAC3F3130040F4801B00989246D7
:1004700020B10023D2EB030A63EB0B0B0198594622
:10048000C0F140025046FFF7AAFF06460D4650460F
:100490005946019A00F08CF910EB080061410024E4
:1004A00087EA115284EAE7731A4340D0009A62B394
:1004B000019A012A4FEA075215DC001B61EB020189
:1004C0004FF0004202EA0752CDE90042001C41F51C
:1004D000801132462B4600F08CF903B0BDE8F08F56
:1004E00040462146F9E7001B61EB0201001C41F583
:1004F000801300185B412018A2F5001747EB030199
:1005000040EAD570B6196D4111E06D084FEA360624
:1005100045EAC0754FEA0752001B61EB0201001C5F
:1005200041F5801149084FEA300000195141324627
:100530002B4603B0BDE8F04F00F04CB90098012203
:1005400040000023D0EB020263EBE07300982146E9
:100550004FEAE074B8EB000061EB0401E9E783F0D7
:1005600000435BE781F0004158E72DE9FE4F81EA47
:10057000030404F0004421F0004100944FF0000B0C
:1005800023F0004350EA01045ED052EA03045BD03A
:10059000C3F30A54C1F30A552C44A4F2F334019472
:1005A000A0FB0254C1F3130141F48011C3F3130300
:1005B00043F4801301FB024400FB034E840A970AB4
:1005C00044EA815447EA8357A4FB076802958D0AE1
:1005D00005FB07854FEA932C04FB0C542705029D6D
:1005E0004FEA065847EA1637B5EB08056EEB070CDD
:1005F000870E920E47EA811742EA8312A7FB020197
:10060000B6EB0B0164EB00042B0D43EA0C335E18D0
:1006100044EB1C50DA465146E7FB0201C5F31304D4
:100620004FEA0B3343EA14534FEA0432019C43EA86
:100630000603A4F10C040294009CCDE900B400F080
:10064000D8F803B0BDE8F08F00200146F9E72DE9A6
:10065000F04D81EA030404F0004B21F000451446FC
:100660004FF0000A23F0004150EA050220D054EA7E
:1006700001021DD0C5F30A570246C5F31303C1F3A7
:100680001300C1F30A5640F4801543F48013A7EB1E
:100690000608101BD64608F2FD3873EB050002D39E
:1006A00008F1010801E092185B41B8F1000F03DA8C
:1006B00000200146BDE8F08D00204FF48011064671
:1006C00084460EE0171B73EB050705D3121B63EB83
:1006D000050306434CEA010C49084FEA3000921822
:1006E0005B4150EA0107EDD152EA030012D082EAE1
:1006F000040083EA0501084305D0101BAB4106D274
:100700000122002306E000224FF0004302E06FF0D8
:10071000010253101AEB06004CEB085110EB0A00D3
:1007200041EB0B01BDE8F04D00F054B8C1F30A52A3
:10073000C1F3130140F2FF3341F480119A4202DA0F
:1007400000200146704740F233439A42A2F23342FE
:1007500002DC5242FFF752BEFFF741BE30B5041E25
:1007600071F1000404DB4FF00044404264EB0101EE
:10077000141E73F1000405DB1C464FF00043524287
:1007800063EB0403994208BF904230BD064C074D0D
:1007900006E0E06840F0010394E807009847103451
:1007A000AC42F6D3FFF77CFDF8BB000818BC00088C
:1007B000202A06DBCB17203A41FA02F043EAE07325
:1007C00006E041FA02F3D040C2F120029140084312
:1007D0001946704710B5141E73F1000408DA401C66
:1007E00041F1000192185B411A4301D120F0010050
:1007F00010BD2DE9F04D92469B4611B1B1FA81F240
:1008000002E0B0FA80F220329046FFF7E8FD04469D
:100810000F4640EA0A0041EA0B0153465A46084394
:1008200013D0114653EA010019D0C8F140025046D6
:10083000FFF7E4FD05460E46504659464246FFF78F
:10084000CEFD084305D0012004E020463946BDE82E
:10085000F08D0020054346EAE0762C4337430A98A2
:100860006305E40AA0EB08000022FD0A44EA4754AD
:100870000A3002D500200146E9E701051019694157
:10088000DDE9084500196941BDE8F04DA2E770B502
:1008900086B0022802D96FF001042FE044F2E04153
:1008A0000128C5F602014FF0000418BF00280A68AD
:1008B00042F002020A60096801F002010191019907
:1008C0004BF2B811C0F60001039431F810504FF00C
:1008D000010102914FF0030104914BF2C011C0F6E7
:1008E0000001019551F8206001A9304601F04CFB50
:1008F0004FF000023046294601F037FC204606B092
:1009000070BD10B5022802D96FF001040FE04BF260
:10091000B8114BF2C012C0F60001C0F6000200246C
:1009200031F8101052F82000002201F01EFC204681
:1009300010BD022802D96FF00100704780B54BF25C
:10094000B8114BF2C012C0F60001C0F6000231F837
:10095000101052F82000012201F007FC002080BD99
:1009600010B16FF00100704780B540F29C30C2F2C8
:10097000004001F01DFF002818BF6FF0030080BD8C
:1009800080B540F29C314FF41D72C2F2004100FB71
:10099000021001F01EFF043818BF012080BD40F294
:1009A0009C314FF41D72C2F2004100FB021001F0B5
:1009B00025BF0000B0B586B010B16FF001007AE03D
:1009C0003FA00AF077FB40A00AF074FB44F2E0403D
:1009D00040F20044C5F60200C5F6020401AD50F82D
:1009E0000C1C41F4803140F80C1C50F80C1C01F434
:1009F000803101910199016841F0020101600168B3
:100A000001F0020101910199016841F004010160C6
:100A1000016801F0040101910199016841F00801A8
:100A200001600068294600F008000190019802204A
:100A3000029000200390032004900C2005904FF4B6
:100A4000FE50019004F5806001F09EFA04200190B0
:100A500004F50060294601F097FA4FF440700190C8
:100A60002046294601F090FA31200521002202F0AB
:100A700048FA312002F036FA40F29C30C2F20040CF
:100A800004F0C8FCA8B940F29C304FF40041C2F217
:100A9000004001F05FFC08B10DA008E040F29C307E
:100AA0000421C2F2004001F0DFFB30B10DA00AF0DA
:100AB00001FB6FF0030006B0B0BD0020FBE700BFF4
:100AC00020382D42495400002044445200000000C8
:100AD000382D626974205769647468204661696CB6
:100AE00073000000444452204661696C73000000AA
:100AF00010B16FF00100704780B540F29C30C2F237
:100B0000004002F0BEF8002818BF6FF0030080BD5F
:100B100040F2EC220121C2F2004201FA00F0106022
:100B2000704710B16FF00100704780B540F29C3003
:100B3000C2F2004002F01AF9002818BF6FF003005B
:100B400080BD40F284320121C2F2004201FA00F07D
:100B500010607047000000002DE9F04F81B02DEDCE
:100B6000068BADF5187D83464FF400400AF06AFA13
:100B7000002800F0C480054658460AF09BFA40F26F
:100B800014004CF65561C2F20040CCF2AC519FED1E
:100B9000608B00684FF0010A9FED5F9B016040F29F
:100BA0001C00C2F2004002AE9FED5DAB006801AFD9
:100BB000016841F08071016040F210000021C2F232
:100BC00000400068016040F20C01C2F20041096877
:100BD0000A6842F001020A6040F2F0210122C2F2EA
:100BE0000041D1F80090D0F800803046594607F017
:100BF00063FB28B101464BF26640C0F6000025E0D9
:100C0000002400BF4FF40042304629463B4607F01F
:100C10009FFD0146019A60B9B2F5004F09D1013C30
:100C200014F57A7FEED1304606F0CFFA014648B986
:100C30001DE063423CA009F04BFD304606F0C5FACA
:100C4000014688B14BF25140C0F600005A4609F007
:100C50003FFD5FEACA704FD040F210004FF0000A2B
:100C6000C2F200400068B7E714F57A7FF1D140F294
:100C7000100040F2F021C2F20040C2F200410068D0
:100C800000680968A0EB08084BF2A640A1EB09092F
:100C90004FF0FA71C0F60000424609F019FD40F22B
:100CA000240001EE108AC2F2004090ED000AB8EE76
:100CB000411BB8EE400B23A080EE010B20EE080B89
:100CC00080EE090B53EC102B09F002FD4BF20B40A8
:100CD0004946C0F6000009F0FBFC00EE109A4BF20A
:100CE0000830C0F60000B8EE400B8AEE000B53EC63
:100CF000102B09F0EDFCACE728460AF07BF90DF566
:100D0000187DBDEC068B01B0BDE8F08F00BF00BFC1
:100D10000000000000407F410000000080842E4160
:100D2000000000000000E040726573203D20256453
:100D300020665F726561642025642C20692025642B
:100D40000A00000025352E326C66204D427073205B
:100D50005265616420284661744673290A000000C8
:100D60002DE9F04F81B02DED068BADF5187D0546D0
:100D70004FF400400AF066F9002800F009810446AB
:100D800040F21C00C2F2004040F21008C2F20048DB
:100D900047F6FC730068016841F08071016040F221
:100DA00014004CF65561C2F20040CCF2AC51006820
:100DB00001600020D8F80010086040F20C01C2F277
:100DC000004109680A6842F001020A6043F24431B6
:100DD00048F22032C1F22211CEF6B85282EA51070F
:100DE000CE0700F1040608BF4F089842215039464B
:100DF0003046F3D34BF2E80100204FF0FF36C0F647
:100E0000000100BF002200BFA35C0132B2F5004F19
:100E100083EA060303F00F0751F8277087EA1313DC
:100E200003F00F0751F8277087EA1316ECD1013051
:100E3000B0F57A7FE6D160A0314609F049FC9FED1C
:100E4000588B9FED599B9FED5AAB4FF0010B0DF165
:100E500008092F46009500BF40F2F0200A22C2F296
:100E6000004039460568D8F80000D0F800A0484690
:100E700007F022FA40B101464BF26640C0F600008E
:100E80003A4609F025FC6FE04FF47A7801AF00BFD5
:100E90004FF40042484621463B4607F0E7FE014634
:100EA000019A30B9B2F5004F03D1B8F10108EFD182
:100EB00002E048A009F00CFC484606F086F968B14B
:100EC00001464BF25140009FC0F600003A4609F03F
:100ED000FFFB40F21008C2F2004845E040F2100863
:100EE00040F2F021C2F20048C2F20041D8F80000FE
:100EF00000680968A0EB0A0A4BF2A6404D1B4FF0B0
:100F0000FA71C0F60000524609F0E2FB40F22400FC
:100F100001EE10AAC2F2004090ED000AB8EE411BAB
:100F2000B8EE400B31A080EE010B20EE080B80EEF6
:100F3000090B53EC102B09F0CBFB4BF20B4029466D
:100F4000C0F6000009F0C4FB00EE105A4BF2083066
:100F5000C0F60000B8EE400B8AEE000B53EC102BED
:100F600009F0B6FB009F00BF4FF40061384600F067
:100F700019F9B04206D15FEACB704FF0000B7FF455
:100F80006BAF02E020A00AF095F820460AF032F894
:100F90000DF5187DBDEC068B01B0BDE8F08F00BFEC
:100FA0000000000000407F410000000080842E41CE
:100FB000000000000000E04043524333322025305F
:100FC000386C58204D656D6F727920496D61676589
:100FD0000A000000726573203D20256420665F775B
:100FE000726974652025640A0000000025352E32E0
:100FF0006C66204D427073205772697465202846D4
:1010000061744673290A000053616E697479206324
:101010006865636B206661696C73000010B509F048
:101020009BFA0446FFF7B5F9C8B1211811F8012C55
:10103000411E08462F2AF7D189B10020605420466E
:1010400006F09CF9052805D12046FFF7E7FF20466A
:1010500006F094F918B904A0214609F039FB20469E
:10106000BDE8104009F0C6BF437265617465642035
:101070007061746820272573270A0000FEE70000CE
:1010800010B54EF6005041F20001CEF20000C5F658
:10109000004104680A686FF31F320868030C1DA042
:1010A000214609F015FB04F07F40B0F1824F14D1C6
:1010B000C4F30B1304F00F02C4F30351A3F5426011
:1010C00007280FD8DFE800F0041B161D1F16162195
:1010D0004BF2E530C0F6000018E017A0BDE8104064
:1010E00009F0E8BFB3F5466F04D14BF2D230C0F639
:1010F00000000BE04BF2D560C0F60000EEE724A044
:1011000004E01EA002E018A000E012A0BDE810401C
:1011100009F0DEBA43505549442025303858204460
:1011200045564944202530335820524556494420DD
:10113000253034580A000000556E6B6E6F776E20B4
:10114000434F524520494D504C454D454E54455214
:1011500000000000436F72746578204D37207225BF
:10116000647025640A000000436F72746578204D36
:1011700034207225647025640A000000436F727485
:101180006578204D33207225647025640A000000C4
:10119000436F72746578204D312072256470256428
:1011A0000A0000002DE9F04FADF51B7D804601F1EE
:1011B00020000E4609F046FF50B90024B4EB560F4C
:1011C00069D0760806F1200009F03CFF0028F5D030
:1011D00005461F3020F01F0448A02946224633460A
:1011E000CDF8008009F074FA04A80122414607F006
:1011F00063F850B101464BF26640C0F6000042462B
:1012000009F066FA4FF0FF376AE0DDF820A0CDF86C
:101210000480BAF1000F41D04BF2E80802944FF07D
:10122000FF37C0F600084FF000090024B346B2456E
:1012300038BFD3464C454FF00000039008D340F22E
:1012400000012E20C2F2004109F032FF09F5801999
:1012500004A802995A4603AB07F07AFA18BB039820
:10126000A0B10299024600BF11F8013B013A83EA9E
:10127000070303F00F0758F8277087EA131303F0EA
:101280000F0758F8277087EA1317EDD1BAEB000A59
:101290000444CBD10CE04FF0FF372AE04FF0FF378A
:1012A0004FF0000904E0014619A0019A09F010FA74
:1012B000B9F1000F06D040F200010A20C2F200414D
:1012C00009F0F6FE04A805F080FFDDF8048038B1CF
:1012D00001464BF25140C0F60000424609F0F8F9D1
:1012E000FA4310A03946434609F0F2F9284609F0BE
:1012F00081FE38460DF51B7DBDE8F08F253038584E
:101300002025303858202535642025730A00000038
:10131000726573203D20256420665F7265616420DC
:1013200025730A0043524333322025303858205069
:101330004B5A495020253038582025730A000000A8
:10134000704700002DE9F04381B028B344F61C0536
:1013500040F23809044688460026C4F20005C2F26D
:10136000004900BF2746102C28BF102730464246B0
:10137000394600F015F899F8000048B1494600BF19
:101380002A681206FCD5E86011F8010F0028F7D191
:10139000E41BB8443E44E5D101B0BDE8F083000051
:1013A000F0B581B04BF2E263070FC0F6000340F2E4
:1013B0003804C0F30366C2F20044C0F30355DF5D96
:1013C00004F80B7B9F5DC0F3034604F80A7C5F5D65
:1013D000C0F3033504F8097C9F5D0E46C0F303217A
:1013E00004F8087C5F5D1546C0F3031200F00F009F
:1013F000595C04F8061C995C185C04F8077C04F836
:10140000051C04F8040C43F6202024F8030C4FF0CC
:10141000200004F8010CD6B1002000BF295C072889
:101420004FEA1111595C04F8031B295C00F101001B
:1014300001F00F01595C04F8021C4FF0200108BFB5
:101440002D21864204F8011CE8D10F2E09D8A6EB05
:101450008600202200F1300720463946FEF787FF3C
:101460003C4456B115F8010BA0F120015F2928BFBB
:101470002E20013E04F8010BF4D140F60D2020800F
:1014800040F238000021C2F20040A17001B0F0BD6E
:1014900010B544F61C041DA0C4F2000409F00AFEB5
:1014A00020688006FCD5A06840F02000C0B27928F2
:1014B00022D14FF4007009F0C5FDF8B1044619A01F
:1014C00009F0F8FD002005F037FE1AA009F0F2FD42
:1014D0004FF40071E5222046FEF749FF002000226C
:1014E0000123214605F061FE15A009F0E3FD204629
:1014F000BDE8104009F07EBD1FA003E04BF2DA709A
:10150000C0F60000BDE8104009F0D4BD457261731B
:101510006520654D4D43204D42523F2028592F4EA6
:1015200029000000496E697469616C697A696E67A7
:101530002E2E000045726173696E672E2E0000002A
:101540004D42522045726173652053756363656532
:101550006465642C20526573657420746F20737405
:10156000617274206170706C69636174696F6E2060
:101570006F766572000000004572617365204162FC
:101580006F727465642121000A46014602A009F0C9
:101590009FF800BFFEE700BF4572726F722025738F
:1015A0002025750A000000000022AFF3008080B5FE
:1015B00040F2903EC2F2004E9EF809300BB101207D
:1015C00080BD9EF80930844600200EF803009EF886
:1015D00009300EEB8303C3F804C09EF8093073444E
:1015E0001A729EF80920531C8EF8093030320A70A6
:1015F00042F63A72A1F80120C87080BD2DE9F04F83
:10160000E1B040F6CC210FF27C50C0F2010109F0AC
:101610005FF840F22400C2F2004001680FF27850F7
:1016200009F056F802F0D1FD01464BF2C030C0F689
:10163000000009F04DF802F0DBFD01464BF2C93025
:10164000C0F6000009F044F80FF2645009F032FDD2
:1016500040F288044FF40E71C2F200442046FEF7B7
:101660008DFE4BF62B110022C0F60001204606F03D
:10167000E1FD38B101460FF2485061B0BDE8F04FCE
:1016800009F026B84BF2E67044F61C04C0F60000E0
:10169000C4F2000409F00EFD4BF22430C0F6000045
:1016A00009F008FD4BF62D00C0F6000009F002FD20
:1016B0004BF2B270C0F6000009F0FCFC4BF2C670B1
:1016C000C0F6000009F0F6FC4BF27750C0F60000BF
:1016D00009F0F0FC0FF2FC4009F0ECFC0FF20C50AA
:1016E00009F0E8FC20688006FCD5A0684FF0000AED
:1016F000A0F161014FF00109C9B21A2938BF2038A1
:10170000C0B2482814DD49281FD0572826D05828B1
:101710004FF0010B4FF001082ED14BF233704FF018
:10172000010A4FF00009C0F600004FF0010B12E073
:1017300045284BD046284FF0010B4FF001081BD134
:1017400061B0BDE8F04F00F06BBB4BF21A704FF088
:10175000000BC0F600004FF001080BE04BF24F7099
:101760004FF0000A4FF00109C0F600004FF0010BE6
:101770004FF0000809F09EFC4BF62B104CA9C0F668
:10178000000004AA05F04CFD90B104464BF2F7307E
:10179000C0F60000214608F09BFF0D2C54D14BF2FF
:1017A0008470C0F6000009F085FC00F039FBE6E12A
:1017B000049800780138C1B204290CD240B24BF22F
:1017C000D801C0F6000151F8200006E061B0BDE884
:1017D000F04FFFF75DBE0FF2384009F06BFC049844
:1017E0004C9DC1694489881E4BF2967100FB04F63A
:1017F000C0F6000105FB04F7700808F02DFD4BF260
:10180000A8717808C0F6000108F026FD05FB1460F9
:101810004BF21571C0F60001400808F01DFD4BF6B3
:10182000CA00C0F6000009F045FC4BF62B114CA88D
:10183000C0F6000106F00DFF58B101464BF23040F2
:10184000C0F6000008F044FF4BF2BF50C0F60000A5
:1018500093E104AD4CA8294607F055F8CDF80C905B
:1018600010B10146002448E0CDE901BA4BF22E59EF
:101870004BF2864A4BF62B1B05F11A060024C0F6E4
:101880000009C0F6000AC0F6000B4CAF9DF82A0014
:10189000002800F00A819DF81C000134C1064FF0B9
:1018A000440158BF2D21C2074FF0520208BF2D221C
:1018B00043074FF0530358BF2D2380074FF04800D4
:1018C00058BF2D2000904BF22450C0F6000008F0C5
:1018D000FFFE0499484608F0FBFE50465946324642
:1018E00008F0F6FE3846294607F00DF80028CDD05E
:1018F0000146DDF80C90DDE901BA4BF21C40C0F660
:10190000000008F0E5FE3CB14BF28D402146C0F6E8
:10191000000008F0DDFE05E04BF26370C0F6000049
:1019200009F0C8FBB8F1000F19D14BF2F250C0F624
:10193000000003F033F928B14BF2F250C0F600007A
:1019400007F0F2F84BF2F250C0F6000003F026F96F
:1019500028B94BF2F250C0F60000FFF701FA4BF243
:10196000F250C0F6000003F019F930B14BF2F2501A
:10197000C0F60000FFF7F0F805E04BF24350C0F668
:10198000000008F0A5FE40F29C38BBF1000FC2F247
:10199000004817D1D8F84C00A0F5483543F2FD3087
:1019A000CCF6A610A5FB00014BF2BB30C0F6000040
:1019B0000C0D214608F08CFE45F20000C0F2140028
:1019C000854201D2002423E04BF2B0302146C0F61C
:1019D000000008F07DFE4BF203760025C0F60006FD
:1019E00004AF00BF384631462A4608F081FE38462B
:1019F00003F0D4F810B9384600F010F90135A542CB
:101A0000F0D340F200010A20C2F2004109F050FB7D
:101A100054EA0A005ED0D8F84C00A0F548354BF2E5
:101A2000A1302C0CC0F60000214608F051FE002029
:101A3000B0EB154F45D043F27E7843F6F42A4BF2D3
:101A4000037640F2000BC8F292180025C1F2363A34
:101A5000C0F6000604AFC2F6A00B00BF3846314600
:101A60002A4608F045FE384603F098F8C8B1024609
:101A7000B0F1007FC14602D05A45D14607D14FF49C
:101A800080313846FFF78EFB48450AD012E04BF212
:101A9000BB403946C0F6000008F01AFE384607F091
:101AA00043F80135AC42D9D10BE0DDF80C90DDE90B
:101AB00001BA28E74BF2444004A9C0F6000008F040
:101AC00007FE40F200010A20C2F2004109F0F0FADC
:101AD000DDF80C90B9F1000F4BD14BF23060C0F63D
:101AE000000003F05BF8002843D0B0F1007F04D180
:101AF00043F27E74C8F2921403E043F6F424C1F278
:101B000036344BF230604FF48051C0F60000FFF7DE
:101B100049FBA04227D14BF230604FF48041C0F620
:101B20000000FFF73FFBA0421DD14BF230604FF4A5
:101B3000F041C0F60000FFF735FBA04213D14BF295
:101B400030604FF40041C0F60000FFF72BFBA042CD
:101B500009D14BF230604FF48031C0F60000FFF73E
:101B600021FBA04205D04BF23450C0F6000009F032
:101B7000A1FA4BF23D50C0F6000009F09BFA61B0AB
:101B8000BDE8F08F46617446732054657374696EC6
:101B90006720282564290A0053797374656D436FA3
:101BA0007265436C6F636B3A2025640A0000000085
:101BB0004D6F756E74696E672046617446730000E0
:101BC000726573203D20256420665F6D6F756E74AD
:101BD0000A00000045202D20457261736520654D87
:101BE0004D4320284D425229000000000A6F722008
:101BF000616E79206F7468657220746F20646F2045
:101C0000626173696320636865636B730000000041
:101C1000556E6B6E6F776E20464154002DE9F04F84
:101C2000ADF5197D06464FF400404FF4004509F02C
:101C300009FA38B94FF400456D08284609F002FA50
:101C40000028F9D0044632A0314608F041FD02A830
:101C50001222314606F030FB052807D13046FFF747
:101C6000DDF902A80A22314606F026FB20B12BA09E
:101C7000314608F02DFD44E040F2000A48F22036DB
:101C800000274FF0FF380DF108090DF1040BC2F6E3
:101C9000A00ACEF6B85600BF380306D140F20001C4
:101CA0002E20C2F2004109F003FA75B12046294600
:101CB000424600BF86EA5208D30708BF4FEA5208DF
:101CC00000F8012B01394246F4D1484621462A4604
:101CD0005B4606F0CBFF0146019A28B9AA4203D120
:101CE0002F445745D8DB02E012A008F0F1FC40F287
:101CF00000010A20C2F2004109F0DAF902A805F059
:101D000064FA204609F076F90DF5197DBDE8F08FEB
:101D100057726974696E672025730A00556E616297
:101D20006C6520746F206F70656E20272573270AFD
:101D3000000000005772697465204661696C2025B7
:101D4000642025640A00000010B584B04EF6347497
:101D5000CEF2000421686268A368E068D4F810C07D
:101D6000D4F814E0CDE9000C0EA0CDF808E008F09E
:101D7000AFFCE06860B140F22121C1F2110188425C
:101D800008D02121C1F21101884205D11AA004E036
:101D90000CA002E00DA000E01EA004B0BDE81040C1
:101DA00009F088B92530385820253038582025309A
:101DB00038580A25303858202530385820253038F2
:101DC000580A00004E6F2046505500004650552DD1
:101DD000442053696E676C652D7072656369736921
:101DE0006F6E20616E6420446F75626C652D707239
:101DF00065636973696F6E004650552D53205369B2
:101E00006E676C652D707265636973696F6E206FA4
:101E10006E6C7900556E6B6E6F776E204650550074
:101E2000B0B582B044F61C0429A0C4F2000409F045
:101E300041F900BF20688006FCD5A06840F0200072
:101E4000C0B2792808D14FF400404FF4004409F0A3
:101E5000F9F818B105460FE037A028E04FF4004428
:101E600025466408204609F0EDF8B5F5806F054673
:101E700001D3002DF4D0B5B11AA009F01BF940F23E
:101E800088000721C2F2004000222B46009405F092
:101E900085FB88B91BA009F00DF9284602B0BDE802
:101EA000B04009F0A7B84BF2DA70C0F6000002B0FB
:101EB000BDE8B04009F0FEB80EA009F0FBF84BF207
:101EC000F96040F20641C0F60000FFF75DFB00BF7D
:101ED000466F726D617420654D4D433F2028592F28
:101EE0004E290000466F726D617474696E672E2E04
:101EF00000000000466F726D6174204661696C6578
:101F000064212100466F726D6174205375636365AF
:101F1000656465642C20526573657420746F20734A
:101F200074617274206170706C69636174696F6E42
:101F3000206F766572000000466F726D61742041FB
:101F4000626F72746564212100000000B0B5044620
:101F500000F017F940F22C010546C2F20041621C64
:101F6000096818BF0C4400BF00F00BF9401BA042E9
:101F7000FAD3B0BD40F22040C5F60000016841F040
:101F800001010160704700002DE9F04F86B00F6835
:101F90000290002F00F0E68002988C4600F1264265
:101FA0000A2102F1FF7342F20042C5F602024FF02D
:101FB000000990424FEAB32208BF0921092A4FF0D5
:101FC000010238BF4FEAB32101264FF0000A4FF05B
:101FD00000080091CDF804C0701E02FA00FE17EA56
:101FE0000E0100F0A980DCF804B00491BBF1120FDF
:101FF00000F2B18002FA0BF717F0061F00F0AB8079
:10200000029C032101FA0AF2A368DCF80C709343E6
:10201000D14307FA0AF21A43A26062684FEA1B131F
:102020004FEA480522EA0E0283401A4362604BF0F1
:102030001003E268122BDCF8083002EA010203FA0E
:1020400005F3039142EA0302E26014D16FF0030149
:1020500009F01C0701EA50020F212244B940D2F8CE
:1020600020E0DCF810302EEA0101BB40029C19434D
:102070001162DCF804B00BF003012268039BA94055
:102080001A405FEACB0341EA02012160DDF804C097
:102090004FF00102049C4FD544F2F44240F2084E46
:1020A000C5F60202C5F6000E0F27116841F00201C5
:1020B0001160116801F00201059120F00301059AF9
:1020C00009F00C024FF0B04051F80E309740BB437E
:1020D000009F07FA02F21A4341F80E2040F2040E64
:1020E000C5F6000EDEF87C10DCF8042041EA04039B
:1020F000D70358BF21EA04039703CEF87C30DEF8FB
:10210000801041EA040358BF21EA0403D702CEF845
:102110008030016841EA040358BF21EA04039202B7
:102120004FF001020360DEF8001041EA040358BFDB
:1021300021EA0403CEF80030DCF8007008F1010851
:1021400037FA06F10AF1020A06F1010609F104095B
:102150007FF442AF06E00321554601FA0AF7029CDC
:10216000F94364E706B0BDE8F08F002A08BF090410
:102170008161704741F20000C5F600400068000C24
:10218000704740F21060C2F200400068704740F2B1
:102190002C0040F21061C2F20040C2F2004100681F
:1021A0000A6810440860704780B5032000F0D8FE2C
:1021B00002F032F844F218414BF22813C5F602013E
:1021C000C0F600030A68096801F00F01C2F3032298
:1021D000595C9A5C01F01F0102F01F02D04040F2EE
:1021E0002802C2F2004220FA01F1116040F22401FB
:1021F000C2F2004108600F2000F007F808B101208A
:1022000080BD00F06EFE002080BDB0B540F22C0114
:10221000C2F200410968F9B1044640F22400C2F25A
:1022200000404FF47A72B2FBF1F10068B0FBF1F0BC
:1022300002F0DEFA0F2C4FF001050ED868B94FF00E
:10224000FF3000222146002500F05BFE40F2300006
:10225000C2F20040046000E001252846B0BD70478E
:10226000704770477047000070B5044604294FF06E
:10227000030020632ED8D4F83801DFE801F0030D05
:10228000242B2F0021684207496802D511F44041F0
:1022900033D1800719D441E020684068400307D556
:1022A0000021204602F08CFC10B1616B0843606392
:1022B00020684068000331D500212046002502F047
:1022C00019FD40BB31E080072AD50121204602F0EC
:1022D00011FD1FE0606B40F0006024E021684007C2
:1022E00048681DD510F440401AD00121204602F064
:1022F00001FD38B10120FFF729FE0121204602F03F
:10230000F9FC40B920684068800507D001212046CB
:1023100002F056FC10B1616B08436063002504E0D5
:10232000606B40F0805001256063FFF72AFF06468E
:10233000204600F04EFA042808D0FFF722FF801B49
:102340000130F5D103254FF0004060630120206388
:10235000284670BD70B582B0044603200D46206348
:1023600020684268120301D4012204E0406804227C
:10237000400358BF02222046294602F06FFDC0BB31
:102380000021C0F2B73155B1B5F5004F05D0B5F514
:10239000804F2CD101F5807101E001F500712068BA
:1023A00003F07AFA28BB0221CFF6FF710E46216CAA
:1023B0002068090403F024FAD8B92068002103F04A
:1023C000AAFB26B110F4807106F10101EED0F6B13E
:1023D00000061FD494E80700D4E90436CDE900369E
:1023E0002B4603F09BFB0120206300210CE04FF003
:1023F000006001212163226840F6FF73C1F6E0739B
:102400009363626B10436063084602B070BD4FF087
:102410000040EEE74FF48030EBE77047B0B582B094
:1024200005460C4600200190D5E915128B0F23704C
:10243000C1F383636370C1F30163A3700B0CE3709A
:102440000B0A23716171110DE1806FF07043C2F3CB
:1024500003412172C2F3C0316172C2F38031A172B3
:10246000C2F34031E172C2F300312173607301A9FC
:10247000D422284602F064FD08B1012084E0A86B54
:1024800001282DD0002873D1D5E91610800F012323
:1024900061F38B002061E86DC0F3C2612175C0F368
:1024A00002616175C0F34251A175C0F38241E175CB
:1024B000C0F3C23121762169227E013102F0070288
:1024C000023291406964227A02F00F0203FA02F2AA
:1024D000AA64530A5943E9644FF40071296507E07F
:1024E000019868644FF400712965C5E91210E86D20
:1024F000C0F380316176C0F3C611A17600F07F0091
:10250000E076296EC80F2077C1F341706077C1F380
:102510008260A077C1F38350E077C1F3405084F824
:102520002000C1F30042002084F8210084F822201A
:10253000C1F3C03284F82320C1F3803284F8242010
:10254000C1F3403284F82520C1F3003284F82620FC
:10255000C1F3812284F82720C1F3012284F82820C6
:10256000C9B2490884F82910012184F82A100BE027
:10257000286840F6FF71C1F6E0718163686B40F036
:10258000805068630120286302B0B0BD00000000E5
:102590002DE9F04F87B092460E460446FFF7F1FD55
:1025A0007EB38346206B01284FF000002ED160637C
:1025B000032121634FF0FF312268D06201914FF473
:1025C00000710291902103910221CDE9041006903F
:1025D00001A9104603F096F92068C16841F0400156
:1025E000C160002103F0FAF898B1216840F6FF724B
:1025F000C1F6E0728A63616B084360630120206367
:1026000004E0606B40F000606063012007B0BDE84B
:10261000F08F41F204090025CEF200098027D9F895
:10262000008000BF2068416B11F4957F37D1416B6A
:1026300089030BD4416B09040AD4416B012201F4D4
:10264000002182EAD142114604E000BF102100E0DF
:10265000082101221DB912B1D9F80080012551B11C
:10266000D0F8802027B1013F46F8042B01E000BFDD
:1026700000270139F4D1FFF784FDA0EB0B00504592
:10268000D0D3206840F6FF71C1F6E0718163606BC2
:1026900040F000406063012020630320B6E7C1687A
:1026A00021F04001C160D9F80050416B890603D583
:1026B0002BA008F0FFFC2068416B09072BD4416B6D
:1026C000890731D4416B890637D440F63A71C1F697
:1026D000000181630120206340F22400A5EB080182
:1026E000C2F2004001EE101A90ED000A24A0B8EEEC
:1026F000400BB8EE411B80EE010B9FED151B20EE49
:10270000010B9FED151B20EE010B53EC102B07F076
:10271000DFFF00207AE740F6FF71C1F6E0718163C8
:10272000606B40F0080068E740F6FF71C1F6E071A9
:102730008163606B40F002005FE740F6FF71C1F615
:10274000E0718163606B40F0200056E700BF00BF7E
:1027500000000000000080408DEDB5A0F7C6B03E3F
:1027600048414C5F4D4D435F47657443617264451A
:1027700078744353442052584F564552520000003B
:1027800048414C5F4D4D435F4765744361726445FA
:1027900078744353442025313075206379636C6528
:1027A000732C2025352E326C66204D4270730A0042
:1027B0000246806B0860D36B106C4B60536CC1E9B0
:1027C0000203906C0861D06C48610020126D8A6130
:1027D000704710B5016C04460068090403F010F856
:1027E00020B1616B08436063002010BD20680021A8
:1027F00003F091F9C0F3432010BD00002DE9F04132
:1028000082B004460068E56A416B15F0080618BFFF
:1028100011F4004128D1416BC9053CD4002E416B15
:102820006BD011F4804168D0216A2029C0F0EA8081
:10283000E66900270DF10408F519F15D01916A7848
:1028400041EA02210191AA7841EA02410191EA7824
:1028500041EA02610191414603F07BF91C2F00F02F
:10286000C98020680437E7E7A16A2029C0F0CA8040
:10287000656A03F06BF90426286000BF206803F046
:1028800065F9A8510436202EF8D1A8196062A06A13
:102890002038A062B6E04FF480718163C16B4CF2C6
:1028A0003A129143C163C16B2A0621F08051C16382
:1028B000C16821F04001C16074D4002E00F0A280F4
:1028C00015F0220F08D002F0C0FF28B1616B084359
:1028D00060632046FFF7A1FD206840F63A71C1F61B
:1028E00000018163A8074FF0010020637CD12046DE
:1028F00002B0BDE8F04100F036BA416B11F03A0F7A
:10290000416B7DD0890703D5616B41F002016163A2
:10291000416B090703D5616B41F008016163416BAD
:10292000890603D5616B41F020016163416BC906E3
:1029300003D5616B41F01001616340F63A71C1F655
:1029400000018163C16B21F49D71C163C16821F0F5
:102950004001C160C16A41F40051C162C16841F0E7
:102960008001C16002F071FF2168626B10436063F7
:10297000C86820F08000C8604FF4006088634EB9DA
:1029800028063FD5606BE8B3C86B20F08050C86361
:102990000020086501202063204602B0BDE8F04118
:1029A000FFF73BBD15F0220F4FF000018162C162BD
:1029B000016508D002F049FF28B1616B08436063EC
:1029C0002046FFF72AFD206840F63A7115F0300FD7
:1029D000C1F6000181634FF00100206302D0204660
:1029E00000F0C1F9A8070DD0204602B0BDE8F041C3
:1029F00000F0B6B9281DE061206A2038206201E0AD
:102A0000C90002D402B0BDE8F0814FF0805181636B
:102A1000006D400705F0200006D460B9204602B0E2
:102A2000BDE8F041FFF71CBC58B9204602B0BDE834
:102A3000F041FFF714BC204602B0BDE8F041FFF7BB
:102A400011BC204602B0BDE8F041FFF70ABC10B54A
:102A5000D8B10446006B20B90020A061204600F0E8
:102A60000FF903202063204600F014F801284FF0EE
:102A7000010008BF10BD00216163E1622063E168CD
:102A800029B12046FFF766FC08B1012010BD0020E7
:102A900010BD0000F0B58DB004464FF4803000F05A
:102AA0007BFC50B348F659310546000AC0F24F117D
:102AB000A0FB01012068002200230E09002100274D
:102AC0000097019603F02AF8206803F038F87000A8
:102AD00042F21011B5FBF0F0C0F20101B1FBF0F0D1
:102AE0000130FFF733FA0297206802F0EFFD60B182
:102AF00001212163626B104303E0012121634FF048
:102B00000060606308460DB0F0BD48F200054FF666
:102B1000FF76C8F2FF0500BF0298B04200F1010045
:102B200002907ED02068294602F0FAFD00287BD171
:102B30002068002102F0EFFFB0F1FF3FECDC00F075
:102B40007F4000F18040B0FA80F04009A063206827
:102B500002F0DDFF00286AD0206802F024FE002881
:102B6000C6D12068002102F0D6FF606620680421EB
:102B700002F0D1FFA0662068082102F0CCFFE066D9
:102B800020680C2102F0C7FF20672068022102257F
:102B900002F048FE0028ABD120684FF400312564D4
:102BA00002F00FFE0028A3D12068002102F0B3FF3D
:102BB00060652068042102F0AEFFA065206808214E
:102BC00002F0A9FFE06520680C2102F0A4FF206656
:102BD0002068042102F09FFF216C000DE063206853
:102BE000090402F0CEFD00287FF482AF02A920463E
:102BF000FFF714FC80B9216C2068090402F000FE84
:102C000010B1616B0843606304F174014FF0FF324F
:102C10002046FFF7BDFC68B1606B00287FF468AF09
:102C20001AE04FF0807063E74FF0805060E74FF09C
:102C300080605DE7216C2068090402F0E1FD10B1BD
:102C4000616B0843606394E80700D4E9043700939C
:102C50000023019702F062FF20684FF4007102F038
:102C600023FD58B1216840F6FF72C1F6E0728A6315
:102C7000616B084301216063216343E7002141E761
:102C80007047F0B587B0044679B1206B012812D1A6
:102C9000002060630F469818E16C1E461546884276
:102CA0000CD9606B40F0007002E0606B40F0006097
:102CB0006063012000E0022007B0F0BD94F8B1008D
:102CC00058B1700703D0606B40F08000F0E76807F0
:102CD00003D0606B40F04000EAE7032020632068E7
:102CE0000022A16B4FF0FF33012901A9C262676284
:102CF00001934FEA4623A36202934FF0900303939C
:102D00004FF002030493059218BF6D02069202F081
:102D1000F9FD2068022EC16841F04001C16087655D
:102D20004FF00101016505D38221E162294602F0DD
:102D300004FD04E08121E162294602F010FD2168D2
:102D400040B140F6FF72C1F6E0728A636063012011
:102D50002063B1E7C86B40F49570C8630020ABE70F
:102D60000020FDF7D5BE0020FDF7EBBE2DE9F041B8
:102D700086B0044679B1206B012812D1002060632F
:102D80000F469818E16C1E46154688420DD9606BB7
:102D900040F0007002E0606B40F000606063012072
:102DA00000E0022006B0BDE8F08194F8B10058B10F
:102DB000700703D0606B40F08000EFE7680703D036
:102DC000606B40F04000E9E70320206320680022A8
:102DD000A16B4FF0FF3301296946C2624FF09008A2
:102DE000E76100934FEA462323620193CDE9028213
:102DF000049218BF6D02059202F084FD2068022E35
:102E0000C16841F04001C16087654FF00101016573
:102E100005D3A021E162294602F050FD04E02946D5
:102E2000C4F82C8002F05CFD216850B140F6FF72BE
:102E3000C1F6E0728A63616B08436063012020631E
:102E4000B0E7C86B40F48D70C8630020AAE7B0B546
:102E500002784EF6985CCEF2000C4378CCF8003045
:102E6000E2B14368CCF80430037BC17A90F80AE001
:102E7000457B447A42EA0372837B42EA0161C27B6A
:102E800041EACE41007A41EA854141EA434141EAC3
:102E9000024141EA042141EA400002E00020CCF86E
:102EA0000400CCF80800B0BD4EF62450CEF200006D
:102EB000BFF35F8F016821F4803101600021016759
:102EC00070474EF6245140F00100CEF20001086731
:102ED000086840F480300860BFF34F8FBFF36F8FF6
:102EE0007047704700280BD400F01F01012202FA3E
:102EF00001F14EF200124009CEF2000242F8201019
:102F0000704770B54EF60C5C4FF0FF36CEF2000CF9
:102F100000F16045DCF80030C3F3022E8EF00703A9
:102F2000042B28BF0423BEF1030406FA03F321EAAD
:102F3000030100F00F0338BF0024043BB0F1FF3F52
:102F4000634406FA04F003F10C0301FA04F1C8BF6C
:102F500005F5644322EA000008430001187070BDC3
:102F60004EF60C514FF6FF03CEF200010A681A40EC
:102F700060F30A2242F0806040F0FD700860704704
:102F800070B544F60C060446C5F602063168306892
:102F900001F00701062912D120F03F0020433060E4
:102FA000FFF7EFF8054600BF56F8080C80040CD474
:102FB000FFF7E7F8401BB0F57A7FF5D91DE000F088
:102FC0003F00001B18BF012070BDA4F11D010020AF
:102FD000112913D8012202FA01F111F0031F0DD0BB
:102FE000FFF7CFF8044600BF3068C00307D4FFF7EF
:102FF000C8F8001BB0F57A7FF6D9012070BD00201B
:1030000070BD80B501F0BBF844F220414BF22812AC
:10301000C5F60201C0F600020968C1F30211515C55
:1030200001F01F01C84080BD80B544F2004EC5F6D6
:10303000020EDEF82830DEF82810C1F3051CDEF899
:103040002C10BCF1000FDEF8342016D0C2F3CC02F5
:1030500001F00101514303F00303022B00EE101AAB
:10306000B8EE400A0DD0012B0ED01BB9DEF80010CF
:1030700089060CD49FED341A17E00021C0E9001135
:103080005BE09FED301A10E09FED2D1A0DE0DEF8A9
:10309000001049F20002C0F2D032C1F3C10122FA9D
:1030A00001F101EE101AB8EE411ADEF830109FED72
:1030B000273A6FF35F2102EE101ADEF83010C1F3E9
:1030C0004621B8EE422A00EE032A00EE10CAB7EEFF
:1030D000003AB8EE400A81EE000A32EE031A02EE20
:1030E000101AB8EE422A20EE010A32EE031A80EEE0
:1030F000011ABCEEC11A80ED001ADEF83010C1F3DF
:10310000064101EE101AB8EE411A31EE031A80EEB4
:10311000011ABCEEC11A80ED011ADEF83010C1F3BD
:10312000066101EE101AB8EE411A31EE031A80EE74
:10313000010ABCEEC00A10EE101A816080BD00BF0B
:103140000024744A20BCBE4B0024744C000000399B
:1031500080B544F2004EC5F6020EDEF82830DEF8E7
:103160002810C1F3053CDEF82C10BCF1000FDEF88E
:103170003C2014D0C1F30011C2F3CC02514300EE45
:10318000101A03F003010229B8EE400A0BD069B906
:10319000DEF8001089060CD49FED341A17E00021E8
:1031A000C0E900115BE09FED301A10E09FED2D1A91
:1031B0000DE0DEF8001049F20002C0F2D032C1F397
:1031C000C10122FA01F101EE101AB8EE411ADEF83F
:1031D00038109FED273A6FF35F2102EE101ADEF8E8
:1031E0003810C1F34621B8EE422A00EE032A00EE61
:1031F00010CAB7EE003AB8EE400A81EE000A32EE8D
:10320000031A02EE101AB8EE422A20EE010A32EE3C
:10321000031A80EE011ABCEEC11A80ED001ADEF826
:103220003810C1F3064101EE101AB8EE411A31EE22
:10323000031A80EE011ABCEEC11A80ED011ADEF805
:103240003810C1F3066101EE101AB8EE411A31EEE2
:10325000031A80EE010ABCEEC00A10EE101A81605B
:1032600080BD00BF0024744A20BCBE4B0024744CB7
:103270000000003980B544F2004EC5F6020EDEF8BB
:103280002830DEF82810C1F3055CDEF82C10BCF104
:10329000000FDEF8442014D0C1F30021C2F3CC02A9
:1032A000514300EE101A03F003010229B8EE400A60
:1032B0000BD069B9DEF8001089060CD49FED341AE2
:1032C00017E00021C0E900115BE09FED301A10E02B
:1032D0009FED2D1A0DE0DEF8001049F20002C0F259
:1032E000D032C1F3C10122FA01F101EE101AB8EE99
:1032F000411ADEF840109FED273A6FF35F2102EE8E
:10330000101ADEF84010C1F34621B8EE422A00EE52
:10331000032A00EE10CAB7EE003AB8EE400A81EE7A
:10332000000A32EE031A02EE101AB8EE422A20EE1C
:10333000010A32EE031A80EE011ABCEEC11A80EDCA
:10334000001ADEF84010C1F3064101EE101AB8EE83
:10335000411A31EE031A80EE011ABCEEC11A80ED5B
:10336000011ADEF84010C1F3066101EE101AB8EE42
:10337000411A31EE031A80EE010ABCEEC00A10EECB
:10338000101A816080BD00BF0024744A20BCBE4B6F
:103390000024744C0000003910B584B00146B0F52B
:1033A000805F4FF0000020DBB1F5004F58DB00F0EC
:1033B0007F80B1F5803F00F0B580B1F5002F40F07F
:1033C0005F8144F20040C5F60200816D01F4403196
:1033D000B1F5003F00F00E81B1F5803F00F0F680BE
:1033E000002940F000810068BFE0B1F5806F1CDA71
:1033F000B1F5807F00F07080B1F5007F40F0408132
:1034000044F20041C5F60201086DC0F38212042A9D
:1034100000F2E98048F20000C0F2BB00DFE812F0E1
:10342000A200A400AB003001B30000F06880B1F549
:10343000006F40F0258144F20041C5F60201886D1D
:10344000C0F30262042A00F2CE8048F20000C0F20B
:10345000BB00DFE812F0870089009000150198009A
:10346000B1F5805F00F06C80B1F5804F40F00881CD
:1034700044F20044C5F60204A06DC0F302700528B2
:1034800000F2B180DFE810F00600C200C900D000F1
:10349000D500DC0000F073FE216A4BF22812C0F662
:1034A0000002C1F30211515C01F01F01C840E7E0C6
:1034B00044F20040C5F60200016D01F04051B1F147
:1034C000005F00F08B80B1F1805F00F089800029FF
:1034D00040F089800068B4E044F20041C5F6020182
:1034E000086D00F00702042A00F27D8048F2000017
:1034F000C0F2BB00DFE802F036383FC4470044F2B8
:103500000041C5F60201886DC0F34252042A00F260
:103510006A8048F20000C0F2BB00DFE802F0232519
:103520002CB1340044F20040C5F60200C16C0068C2
:10353000C90356D5000156D501A8FFF709FE4BE097
:1035400044F20041C5F60201086DC0F30232042ABC
:1035500049D848F20000C0F2BB00DFE802F00305E2
:103560000C91140008683CE0086800013BD501A8F4
:10357000FFF7EEFD05E00868800034D501A8FFF7ED
:1035800079FE01987CE0C86C0B6810F04052086826
:103590000BD113F0040308D0C0F3C10049F20001BD
:1035A000C0F2D03121FA00F06AE0B2F1805F02D1BE
:1035B00010F4807053D1086810F400301CBF47F637
:1035C0004000C0F27D10B2F1005F57E0006880005B
:1035D00009D501A8FFF74EFE039851E0006816E0F8
:1035E0000068800101D400204AE001A8FFF71CFD1B
:1035F000029845E0C16C036811F04051026828D17F
:1036000013F0040325D0C2F3C100C7E7206800010E
:10361000E9D501A8FFF79CFDEAE720688000E2D524
:1036200001A8FFF727FEE3E720684007DBD5206805
:10363000B2E7206840F60011C005C0F23D0105E088
:10364000206847F640018003C0F27D1101EAE07076
:1036500016E0B1F1805F07D112F4807204D040F619
:103660000010C0F23D000BE0006810F400301CBFF9
:1036700047F64000C0F27D10B1F1005F18BF002096
:1036800004B010BD2DE9F0470446C07844F210485C
:103690000007C5F6020825D5606E4FEA30510329B0
:1036A0000AD8DFE801F0020B1018D8F81C1041F41A
:1036B0000031C8F81C100EE0012614E0201D022184
:1036C00001F0E8FE04E004F12400022101F066FFAD
:1036D000064640B9606ED8F8401021F44011084306
:1036E000C8F8400000266078C00701D1354629E0BF
:1036F000606D04280DD83546DFE800F0030E13197D
:103700001900D8F81C00354640F40030C8F81C00F9
:103710000DE00125012716E0201D002101F0BAFE71
:1037200004E004F12400002101F038FF05462F4693
:103730004DB9D8F84000616D20F00700002508431E
:10374000C8F8400037466078800729D5A06D4FEA59
:10375000B01004280BD8DFE800F0030D1218180091
:10376000D8F81C0040F40030C8F81C000DE001251A
:10377000012616E0201D002101F08CFE04E004F17A
:103780002400002101F00AFF05462E464DB9D8F865
:103790004000A16D20F4E07000250843C8F8400007
:1037A0003E46607840072CD5D4F8A4004FEA70500C
:1037B00004280BD8DFE800F0030E13191900D8F81D
:1037C0001C0040F40030C8F81C000EE001254FF04A
:1037D000010917E0201D002101F05CFE04E004F166
:1037E0002400002101F0DAFE0546A94655B9D8F8B3
:1037F0004800D4F8A41020F4600000250843C8F85D
:103800004800B146607800072BD5D4F8A8004FEAED
:10381000306004280BD8DFE800F0030D1218180000
:10382000D8F81C0040F40030C8F81C000DE0012559
:10383000012717E0201D002101F02CFE04E004F117
:103840002400002101F0AAFE05462F4655B9D8F8FC
:103850004800D4F8A81020F0E06000250843C8F81C
:1038600048004F46E078800722D5A06C4FEA301020
:1038700003280AD8DFE800F011020C11D8F81C0068
:1038800040F40030C8F81C0007E00125012610E0D4
:10389000201D022101F0FEFD05462E464DB9D8F847
:1038A0003C00A16C20F0300000250843C8F83C0023
:1038B0003E466078C00629D5E06D4FEA30300428D6
:1038C0000BD8DFE800F0030D12181800D8F81C0020
:1038D00040F40030C8F81C000DE00125012716E077
:1038E000201D002101F0D6FD04E004F12400002198
:1038F00001F054FE05462F464DB9D8F84000E16D61
:1039000020F4E04000250843C8F8400037466078BE
:10391000800622D5206E4FEA3040052809D8DFE81E
:1039200000F011030B111111201D012101F0B2FD56
:1039300007E00125012611E004F12400012101F036
:103940002DFE05462E464DB9D8F84000216E20F4D4
:10395000E02000250843C8F840003E466078400655
:1039600024D5D4F8AC004FEA3070052809D8DFE838
:1039700000F011030B111111201D012101F08AFD2E
:1039800007E00125012712E004F12400012101F0E4
:1039900005FE05462F4655B9D8F84800D4F8AC10B6
:1039A00020F0E04000250843C8F84800374660781A
:1039B00000061ED5E06E88B1B0F1005F09D0B0F10D
:1039C000805F28D1D8F81C0040F40030C8F81C00F3
:1039D00004E0201D012101F05DFD05462E464DB994
:1039E000D8F84000E16E20F0405000250843C8F8A8
:1039F00040003E46E078C00724D0606C03280DD814
:103A0000DFE800F015021015D8F81C0040F4003073
:103A1000C8F81C000BE001250126EBE701254FF05B
:103A2000010910E0201D022101F034FD0546A946E0
:103A30004DB9D8F83C00616C20F003000025084324
:103A4000C8F83C00B146A078400601D44F4617E0C4
:103A5000D8F8F00340F48070C8F8F003FEF791FB4B
:103A6000064600BFD8F8F003C00507D4FEF789FB6F
:103A7000801B6428F6D90325032701E02F468DB16A
:103A80002078C00753D0A06F4FEAF00005283AD83D
:103A9000DFE800F042033C424242201D012101F0D8
:103AA000F9FC38E0D8F86010D4F8B000414011F4C7
:103AB000407F11D0D8F86010D8F8602042F48032EE
:103AC000C8F86020D8F8602021F4407122F48032D8
:103AD000C8F86020C8F86010B0F5807F40F00E8212
:103AE000FEF74FFB064641F2883A0325032700BF45
:103AF000D8F86000800700F1FF81FEF742FB801BD1
:103B00005045F5D9BCE70125012611E004F1240058
:103B1000012101F043FD05462E464DB9D8F8440079
:103B2000A16F20F0380000250843C8F844003E4645
:103B30002078800720D5606F052809D8DFE800F0DD
:103B400011030B111111201D012101F0A3FC07E04D
:103B50000125012711E004F12400012101F01EFDDF
:103B600005462F464DB9D8F84400616F20F0070094
:103B700000250843C8F8440037462078400722D57E
:103B8000D4F89000052809D8DFE800F011030B11E4
:103B90001111201D012101F07DFC07E00126012506
:103BA00012E004F12400012101F0F8FC05462E4644
:103BB00055B9D8F84800D4F8901020F00700002537
:103BC0000843C8F848003E462078800624D5D4F83B
:103BD0008C004FEA3070052809D8DFE800F01103A7
:103BE0000B111111201D002101F054FC07E00127E9
:103BF000012512E004F12400022101F0CFFC05466A
:103C00002F4655B9D8F84400D4F88C1020F0E04085
:103C100000250843C8F8440037462078400624D5DC
:103C2000D4F898004FEAB020052809D8DFE800F062
:103C300011030B111111201D002101F02BFC07E0D5
:103C40000126012512E004F12400022101F0A6FC66
:103C500005462E4655B9D8F84800D4F8981020F4F7
:103C6000E05000250843C8F848003E46207800068A
:103C700024D5D4F89C004FEA7030052809D8DFE835
:103C800000F011030B111111201D002101F002FCA5
:103C900007E00127012512E004F12400022101F0D0
:103CA0007DFC05462F4655B9D8F84800D4F89C103D
:103CB00020F4604000250843C8F8480037462068D3
:103CC000010716D5D4F88010B1F5805F0AD104F150
:103CD0002400022101F062FC002818BF012720689F
:103CE000D4F88010D8F8442022F440521143C8F888
:103CF0004410C10616D5D4F89410B1F5807F0AD1CE
:103D000004F12400022101F049FC002818BF01271A
:103D10002068D4F89410D8F8482022F44072114357
:103D2000C8F8481000031FD5D4F8A000B0F5003F34
:103D30000ED0B0F5803F05D068BB201D002101F0FA
:103D4000A9FB04E004F12400022101F027FC054650
:103D50002E4655B9D8F84800D4F8A01020F44030C9
:103D600000250843C8F848003E46A078400727D5FC
:103D7000D4F88400B0F5401F16D0B0F5001F0DD068
:103D8000B0F5801F40F0B580D8F81C0040F400303A
:103D9000C8F81C0008E001260125E6E704F124002C
:103DA000012101F0FBFB05462F4655B9D8F8440028
:103DB000D4F8841020F4401000250843C8F84400CB
:103DC0003746A078C00701D13E461EE0E06CB0F552
:103DD000803F07D0B8B9D8F81C0040F40030C8F8CC
:103DE0001C0004E0201D022101F054FB05462E4674
:103DF0005DB9D8F83C00E16C20F480300025084320
:103E0000C8F83C00E0E7012601252068810008D5BC
:103E100004F12400022101F0C1FB002818BF012693
:103E2000206881031BD5E16F6FF0010202EB3122A4
:103E3000022A0AD34FEA31223AB1012A06D1D8F830
:103E40001C2042F40032C8F81C200DB1012606E007
:103E5000D8F8442022F440721143C8F84410C1023B
:103E600007D5D8F84010226F21F000411143C8F85F
:103E70004010C10008D5D8F80010D4F8B42021F4BF
:103E800080411143C8F80010810207D5D8F84010CE
:103E9000A26E21F080711143C8F8401041000CD58A
:103EA000D8F8001021F40041C8F80010D4F8B81078
:103EB000D8F800201143C8F80010B0F1FF3F07DC2C
:103EC000D8F83C10226D21F040511143C8F83C1045
:103ED000000208D5D8F84400D4F8881020F4400037
:103EE0000843C8F84400002E18BF01263046BDE83C
:103EF000F0870127012564E7D4F8B0004FF6CF73AF
:103F0000D8F80020C0F2FF0300F4407122F47C5284
:103F100003EA10136FF31F30B1F5407F08BF1A4357
:103F20000025C8F80020D8F860100843C8F86000E1
:103F30008CE500002DE9F04381B0002800F01B81E2
:103F400042F200080446C5F200288946D8F800006D
:103F500000F00F0088420ED2D8F8000020F00F00C9
:103F600040EA0900C8F80000D8F8000000F00F008F
:103F7000484540F00081206844F200474107C5F6FB
:103F800002070AD52169BA6902F07002914204D988
:103F9000BA6922F070021143B96101070AD561695B
:103FA000FA6902F07002914204D9FA6922F07002B3
:103FB0001143F961C1060AD5A169FA6902F4E06208
:103FC000914204D9FA6922F4E0621143F961810651
:103FD0000AD5E1693A6A02F07002914204D93A6A5C
:103FE00022F070021143396210F002010AD0E26837
:103FF000BB6903F00F039A4204D9BB6923F00F0396
:104000001A43BA61C20738D0B86920F47061D4E9A4
:104010000102012841EA0201B96107D0032809D051
:1040200002280BD1396889030CD4A4E03968C9058A
:1040300008D4A0E03968890104D49CE039684907B4
:1040400040F19980396921F0070108433861FEF792
:1040500098F8064641F288353869616800F0380002
:10406000B0EBC10F06D0FEF78CF8801BA842F3D945
:10407000032081E0206800F0020151B1E168BA69D3
:1040800002F00F02914204D2BA6922F00F021143EA
:10409000B961D8F8001001F00F0149450DD9D8F8E1
:1040A000001021F00F0141EA0901C8F80010D8F80A
:1040B000001001F00F0149455DD141070AD5216982
:1040C000BA6902F07002914204D2BA6922F0700219
:1040D0001143B96101070AD56169FA6902F07002FA
:1040E000914204D2FA6922F070021143F961C106CB
:1040F0000AD5A169FA6902F4E062914204D2FA6930
:1041000022F4E0621143F96180060AD5E069396A58
:1041100001F07001884204D2396A21F0700108432D
:10412000386200F079F8B9694BF22813BA69C0F621
:104130000003C1F3032102F00F02595C9A5C01F005
:104140001F0120FA01F102F01F0040F2280221FABB
:1041500000F0C2F20042106040F2300040F224024F
:10416000C2F20040C2F200420068116001B0BDE836
:10417000F043FEF74AB8012001B0BDE8F08380B5F6
:1041800000F04AF844F218414BF22813C5F6020138
:10419000C0F600030A68096801F00F01C2F30322A8
:1041A000595C9A5C02F01F0220FA02F201F01F0033
:1041B00040F2280122FA00F0C2F20041086040F209
:1041C0002401C2F200410A6080BD80B5FFF7D7FF2D
:1041D00044F21C414BF22812C5F60201C0F600025F
:1041E0000968C1F30211515C01F01F01C84080BD94
:1041F00080B5FFF7C4FF44F21C414BF22812C5F60C
:104200000201C0F600020968C1F30221515C01F00D
:104210001F01C84080BD000044F20041C5F6020104
:104220000869C0F3C20003280FD002282AD070BB4F
:104230000868800649F20000C0F2D03058BF7047CD
:104240000968C1F3C101C84070478A6A886AC0F32F
:10425000051CC86ABCF1000F4B6B1DD0C3F3CC0327
:1042600000F00100584302F00302022A00EE100A97
:10427000B8EE400A12D0A2B90868800614D49FEDA7
:10428000261A1EE047F64000C0F27D10704740F647
:104290000010C0F23D007047002070479FED1D1ACE
:1042A0000FE09FED1B1A0CE0086849F20002C0F213
:1042B000D032C0F3C10022FA00F001EE100AB8EECD
:1042C000411A086B9FED153A6FF35F2002EE100A5A
:1042D000086BC0F34620B8EE422A013000EE032AF4
:1042E00000EE10CAB7EE003AB8EE400A81EE000ABE
:1042F00032EE031A20EE010A01EE100AB8EE411A5E
:1043000080EE010ABCEEC00A10EE100A704700BF32
:104310000024744A20BCBE4B0024744C00000039B9
:10432000F0B581B0002800F03D810446007844F2E9
:104330000046C007C5F6020612D0306900F0380109
:10434000B06A102905D018292BD100F003000228EB
:1043500027D13068800303D56068002800F02281EF
:104360002078800740F18F80306910F03801B06A02
:1043700027D0182908BF5FEA807022D0E068316832
:10438000E0B321F0190108433060FDF7FAFE05465D
:10439000306840071CD4FDF7F4FE401B0228F7D913
:1043A0004BE16068D8B3B0F5A02F51D0B0F5803F95
:1043B00052D0306820F480303060306820F48020A3
:1043C0004DE03068400703D5E068002800F0EA803F
:1043D000FDF7D0FE41F20301884208D820697168D8
:1043E000402821F47C314BD141F400304AE0706820
:1043F000216920F0FE4040EA016043E021F0010025
:104400003060FDF7BEFE0546306840073BD5FDF73E
:10441000B8FE401B02284FF00300F5D90EE13068CA
:1044200020F480303060306820F480203060FDF768
:10443000A8FE054641F28837306880037FF590AFCB
:10444000FDF79FFE401BB8424FF00300F4D9F5E0A2
:10445000306840F480203060306840F48030306054
:10446000FDF78FFE054641F2883700BF30688003B4
:104470003FF576AFFDF785FE401BB842F6D9DCE08C
:1044800041EA003070602078C00651D5306900F0F4
:104490003801B06A082905D0182918D100F00300A6
:1044A000012814D13068C00502D5E069802879D18F
:1044B000FDF760FE41F2030188421CD8206A716852
:1044C000202821F0F84130D141F080402FE0E06910
:1044D0000028306817D040F080003060FDF751FEB2
:1044E000054600BF3068C005E2D4FDF74AFE401B18
:1044F0000228F7D9A1E0F068216A20F07C5040EA58
:104500000160F06014E020F080003060FDF739FEBB
:10451000054600BF3068C0050AD5FDF732FE401BD6
:1045200002284FF00300F5D988E041EA806070600E
:104530002078000738D42078800648D420784007B7
:1045400059D4656A65B3306900F03800182840F026
:104550009980012DB16A306B24D001F00302A36A67
:104560009A421FD1C1F30511E26A91421AD1014664
:10457000226B6FF35F21013A914213D1C0F34622BF
:10458000616B01398A420DD1C0F30642A16B01393A
:104590008A4207D1C0F30660E16B0139884201D13C
:1045A00000204BE0012049E060690028706F35D0A1
:1045B00040F001007067FDF7E4FD0546706F80076D
:1045C000B9D4FDF7DEFD401B0228F7D935E0A0691C
:1045D0000028306843D040F480503060FDF7D1FDB2
:1045E000054600BF30688004A8D4FDF7CAFD401B13
:1045F0000228F7D921E0D6F8000440F48070C6F80C
:104600000004FDF7BEFD0546D6F80004C00517D42A
:10461000FDF7B7FD401B6428F6D90EE020F001003D
:104620007067FDF7AEFD0546706F80077FF583AFBD
:10463000FDF7A7FD401B0228F6D9032001B0F0BD0D
:10464000A068002840D0052858D001285AD0306FE3
:1046500020F001003067306F20F0040055E020F4B6
:1046600080503060FDF78DFD054600BF3068800446
:104670007FF564AFFDF785FD401B02284FF0030076
:10468000F4D9DBE7306820F080703060FDF779FD09
:10469000022D05460CD100BF3068800148D5FDF7DA
:1046A00070FD401B02284FF00300F5D9C6E700BF9C
:1046B000306880017FF574AFFDF763FD401B022871
:1046C0004FF00300F4D9B9E7306F20F001003067F4
:1046D000306F20F004003067FDF753FD054641F2CE
:1046E000883700BF306F80077FF52BAFFDF749FD9E
:1046F000401BB8424FF00300F4D99FE7306F40F001
:1047000004003067306F40F001003067FDF739FD7D
:10471000054641F2883700BF306F80073FF511AF83
:10472000FDF72FFD401BB8424FF00300F4D985E799
:1047300004F12807B06A40F2F33188438ECF084372
:10474000591E40EA02104FF47E426FF35F21B062BF
:1047500002EB47204FF4FE0280B2E36B0844A16BEA
:1047600002EB01414FF0FE4201F4FE0102EB036255
:10477000084402F0FE4108443063F06A4FF6F871D5
:1047800020F00100F062706BA26C884340EAC20026
:104790007063F06A216C20F00C000843F062F06A4C
:1047A000616C20F002000843F062F06A40F480304F
:1047B000F062F06A40F40030F062F06A40F4802069
:1047C000F062F06A40F00100F062306840F0807002
:1047D0003060FDF7D6FC0446306880013FF5E0AE5E
:1047E000FDF7CFFC001B02284FF00300F4D925E7AA
:1047F000411E0020B0EB116F01D0012070474EF236
:104800001002F023CEF2000251604EF62351CEF298
:1048100000010B70072190601160704710B5B0B1B6
:104820000446D0F8840028B90020C4F8800020464F
:1048300000F026F82420C4F884002068016821F0E4
:1048400001010160204601F0E3FA012801D10120B5
:1048500010BDA06A10B1204601F0E6F92068416859
:1048600021F490414160816821F02A018160016852
:1048700041F0010101602046BDE8104001F037BA67
:10488000704700002DE9F04381B00446D0F8840061
:10489000202809D10E464FF0010031B1174622B150
:1048A000D4F88000012803D1022001B0BDE8F083D4
:1048B0001D460120C4F880004FF00009C4F88C9018
:1048C0002120C4F88400FDF75CFCA4F85470A4F81F
:1048D00056700746A168B1F5805F07D120690028AE
:1048E0001CBF30464E46B046064601E04FF0000879
:1048F000C4F88090B4F85600D8B180210022204638
:104900003B46009501F08AFCD8B92EB1206816F814
:10491000011B816207E000BF38F8020B2168002606
:104920006FF35F208862B4F856000138A4F856008F
:10493000E0E74021002220463B46009501F06EFC56
:1049400008B10320B1E72020C4F884000020ACE7C0
:1049500041F20000C5F6004001684BF2DE506FF3F3
:104960001F31C0F60000B1F5866F20DDB1F58C6F08
:104970002EDCA1F23141212900F25380DFE801F061
:104980001151416F75515151515151515151517BFB
:104990008187518D9351999FA5515151515151A8E2
:1049A000ABAE4BF2E850C0F6000006F083BBA1F2BC
:1049B0001142082A1DD8DFE802F005343A344034A9
:1049C00046344C004BF28B60C0F6000006F072BB20
:1049D000B1F58E6F17DB00F08480B1F5906F00F0B9
:1049E000838040F28340814204BF47A006F062BB4F
:1049F00017E040F22142914279D040F223429142A5
:104A00000FD106F057BB40F26140814275D040F2B1
:104A10006240814205D14BF6B400C0F6000006F0BA
:104A200049BB4BF20E60C0F6000006F043BB4BF2F0
:104A30008160C0F6000006F03DBB4BF66A00C0F690
:104A4000000006F037BB4BF22260C0F6000006F013
:104A500031BB4BF2AD60C0F6000006F02BBB4BF251
:104A6000BF60C0F6000006F025BB4BF69E00C0F606
:104A7000000006F01FBB4BF29560C0F6000006F088
:104A800019BB4BF2FE50C0F6000006F013BB4BF210
:104A9000C960C0F6000006F00DBB4BF25F60C0F6C7
:104AA000000006F007BB4BF27560C0F6000006F090
:104AB00001BB4BF24160C0F6000006F0FBBA4BF2BE
:104AC000A160C0F6000006F0F5BA28A006F0F2BA20
:104AD00017A006F0EFBA1FA006F0ECBA17A006F078
:104AE000E9BA28A006F0E6BA0CA006F0E3BA4BF249
:104AF0005560C0F6000006F0DDBA4BF68800C0F63F
:104B0000000006F0D7BA00BF53544D333248373255
:104B100078206F72204837337800000053544D33AB
:104B20003248374178206F722048374278000000C1
:104B300053544D33324837787800000053544D3386
:104B400032463732787878206F722046373378785B
:104B50007800000053544D33324637367878782049
:104B60006F722046373778787800000053544D3301
:104B700032463734787878206F7220463735787827
:104B80007800000053544D33324C345278787820FA
:104B90006F72204C345378787800000080B5ADF502
:104BA000167D01466846012203F086FB08B100200D
:104BB00003E0684602F009FB04980DF5167D80BD00
:104BC000F0B581B0054600680C46002941684FF0F9
:104BD000000625D111F4802122D0406840040FD472
:104BE0004FF400410222284600F038F90646B8B9D1
:104BF00040F200112868C0F2B73101F580710CE075
:104C00004FF480410222284600F028F9064638B9C0
:104C100040F200112868C0F2B73100F03DFE0646B0
:104C2000286841683CB311F4802124D140684004D5
:104C30000FD44FF400410422284600F00FF9064635
:104C4000002844D140F20010C0F2B73000F5A06156
:104C50000DE04FF480410422284600F0FFF806469C
:104C6000A8BB40F20010C0F2B73000F580612868A0
:104C700000F012FE064656BB0221CFF6FF7100BFC0
:104C80000F46296C2868090400F0BAFDC0B92868ED
:104C9000002100F040FF27B110F4807107F10101FD
:104CA000EED07FB1000610D42868002C4FF000062B
:104CB00041680CBF21F4802141F4802141600AE069
:104CC000064604E04FF0004601E04FF0805603A096
:104CD000314605F0FDFC304601B0F0BD4D4D435F5F
:104CE0004444525F4D6F64653A4641494C2025303B
:104CF00038580A002DE9F04182B0044600680D469C
:104D0000002941684FF0000612D111F400210FD0A4
:104D10004068012200F44041204600F09FF806461A
:104D200030B900212068C0F2B93100F0B5FD064667
:104D300020684168ADB111F4002112D1406802220F
:104D400000F44041204600F089F8064600286ED164
:104D500000212068C0F2B93101F5807100F09CFD9E
:104D60000646002E63D10221CFF6FF710F46216C5B
:104D70002068090400F044FD00283FD1206800218C
:104D800000F0C9FE27B110F4807107F10101EDD0E8
:104D9000B7B3000637D494E881012669002D416835
:104DA00001F4404532D04FF48030FEF7F5FAE0B31D
:104DB00047F200514EF6A502C0F21931CAF2305244
:104DC00001444FF0010CA1FB0212910E4B00B0FB0D
:104DD000F3F042F24013C0F2413398422B4688BFB1
:104DE0000CEB926120684246CDE90061394600F043
:104DF00095FE2068416841F4002113E0064616E064
:104E00004FF0004613E04FF0805610E061694246D3
:104E1000CDE9006139462B4600F080FE20684168EC
:104E200021F400214160002605E04FF0006604A057
:104E3000314605F04DFC304602B0BDE8F08100BFC0
:104E40004D4D435F4869676853706565643A4641F4
:104E5000494C20253038580A00000000F0B581B0D8
:104E60000D46164604460020B1F5004F18BFB5F5B3
:104E7000804F36D100906946BB224FF0FF33204669
:104E800000F05EF8074628B125A006F013F94FF4AC
:104E9000803003E09DF8030000900020022E04D033
:104EA000042E05D194F8631104E094F83E1101E05A
:104EB00094F83F11AFB9B5F5004F08BF0909009844
:104EC00000F00F0001F00F01884201D1002008E03E
:104ED00000222068C0F2BB3242EA012100F0DCFC73
:104EE00008B101B0F0BD0125CFF6FF75216C206837
:104EF000090400F085FC70B92068002100F00BFE69
:104F0000013502D010F48071F0D035B14FF08051EE
:104F100001EA4050E5E7002DE3D14FF00040E0E723
:104F20004D4D435F5265616445787443534420316D
:104F30003837204661696C6564000000000000009D
:104F40002DE9F04F87B0984691460E460446FDF78E
:104F500018F90027676322684FF0FF318246104638
:104F6000D762012501914FF40071029190210391C4
:104F70000221049101A90597069500F0C3FC206861
:104F8000002100F02BFC48B1216840F6FF72C1F609
:104F9000E0728A63616B08436063A0E041F2040041
:104FA000A7EB9909CEF2000000250068009000BF31
:104FB0002068416B11F4957F30D1416B090419D5FC
:104FC0002DB941F20401CEF200010968009109EB0C
:104FD00007054FF0000B00BF00F0B8FD5D4508BFAE
:104FE00030601BF1070003D02068ABF1010BF3E741
:104FF00008370125FDF7C5F8A0EB0A004045D7D3D7
:10500000206840F6FF71C1F6E07103258163606B93
:1050100040F0004060630120206361E041F2040140
:10502000CEF200010D68416B890603D532A006F06F
:1050300041F82068416B090735D4416B89073BD49F
:10504000416B890641D4216C009A0904AD1A00F025
:10505000D7FB10B1616B08436063206840F63A717A
:10506000C1F6000101EE105A81630120206340F275
:105070002400C2F20040B8EE411B294690ED000A20
:1050800024A0B8EE400B80EE010B9FED171B20EE25
:10509000010B9FED171B20EE010B53EC102B05F0BD
:1050A00017FB00251CE040F6FF71C1F6E07181633B
:1050B000606B40F0080010E040F6FF71C1F6E0714F
:1050C0008163606B40F0020007E040F6FF71C1F6BB
:1050D000E0718163606B40F020006063012525630F
:1050E000284607B0BDE8F08F0000000000008040B7
:1050F0008DEDB5A0F7C6B03E48414C5F4D4D435FC6
:10510000526561644578744353442052584F564564
:105110005252000048414C5F4D4D435F52656164FF
:105120004578744353442020202025313075204396
:1051300079636C65732C2025352E326C66204D42C8
:1051400070730A00B0B504460DA005F0B3FF10A0BF
:1051500005F0B0FF2046FBF72DFC40F22005C2F21F
:10516000004558B9012028702046FBF709FC18B902
:10517000287800F0FE002870287828702878B0BDC4
:105180004D4D435F696E697469616C697A650000B1
:1051900020444D410000000070B588B040F220036B
:1051A000C2F200431B78DB070ED1044603290DD859
:1051B00015460026DFE801F01C020C1401A9204668
:1051C000FBF7CEFB069811E0032616E004260FE05D
:1051D00001A92046FBF7C4FB07982880002607E0BA
:1051E00001A92046FBF7BCFB0798400A286000266F
:1051F0002046FBF7C5FB0028FAD1304608B070BD49
:105200002DE9F04740F2EC240746C2F200440020AA
:1052100099469246206038468846FBF769FC80B183
:1052200040F29C304FF41D71C2F2004017FB0100A8
:1052300051464A46436B34A005F04AFA0120BDE8C6
:10524000F087FCF79EFF064640F2E245206820B951
:10525000FCF797FF801BA842F8D320680028DFD016
:1052600000202060FCF78DFF064640F2E14400BFBD
:10527000FCF787FF801BA042D2D83846FBF780FBA3
:105280000028F5D108F01F0040EA4921012913DB6D
:10529000BFF34F8F4EF65C7228F01F002031CEF224
:1052A000000200BF20391060202900F12000F9DC45
:1052B000BFF34F8FBFF36F8F40F21800BAF1000FAA
:1052C000C2F2004007D1D8F8C6114FF6FD738A1E0E
:1052D0009A4298BF01600068504509D306A0514624
:1052E0004A4605F0F5F94FF400704146FCF72AF8FC
:1052F0000020BDE8F08700BF5245414420256C6482
:105300002025640A00000000522025356C64202509
:105310003264202825303858290A000010B540F2A0
:1053200020040121C2F200442170FBF729FB18B9C7
:10533000207800F0FE002070207810BD2DE9F043A9
:1053400081B001F01F07994647EA43239046012B9D
:10535000064613DBBFF34F8F03F120024EF668734E
:1053600021F01F00CEF20003203A1860202A00F13D
:105370002000F9DCBFF34F8FBFF36F8F40F284350D
:105380000020C2F2004542464B4628603046FBF7FB
:10539000C8FB88B140F29C304FF41D71C2F200404E
:1053A00016FB010041464A46436B15A005F090F9F3
:1053B000012001B0BDE8F083FCF7E3FE074640F2B0
:1053C000E24400BF286820B9FCF7DBFEC01BA04206
:1053D000F8D328680028DDD000202860FCF7D1FE33
:1053E000074640F2E14500BFFCF7CBFEC01BA842D8
:1053F000D0D83046FBF7C4FA0028F5D10020D8E712
:10540000572025356C6420253264202825303858F3
:10541000290A000080B547F200014FF40042C5F2AE
:10542000002101600021C0E90111C0E9032102212E
:105430004161FDF70CFB002818BF012080BD000072
:10544000FEE7704710B5B0B001AC9C2104F120001C
:10545000FAF794FF4FF480300190149008200790E1
:105460000520029060200390042006900221CDE9DF
:105470000410002008902046FEF704F908B930B067
:1054800010BD4BF2F9604FF4DD61C0F60000FCF78F
:105490007BF87047F0B581B044F20047C5F60207CB
:1054A000BA6A02F00302032A01D1012073E0054623
:1054B00038680C4620F080603860FCF762FE0646D3
:1054C0003868000105D5FCF75CFE801B0228F7D97F
:1054D0005EE0B86AEE6895E80E0020F47C30012C9E
:1054E00040EA0130A2F101016FF35F214FF47E42E7
:1054F00002EB4322B86292B24FF0FE4302EB01008E
:105500004FF4FE012A6901EB064101F4FE0103EBB1
:105510000262084402F0FE410844B863F86A69690F
:1055200020F0C00040EA0100F862F86AA96920F0A2
:10553000200040EA0100F862F86A4FF6F87120F0A6
:105540001000F862F86BEA6920EA01004FF40011DC
:1055500040EAC200F863F86A08BF4FF4801140F0D7
:105560001000002CF86208BF4FF40021F86A0843CD
:10557000F862386840F080603860FCF702FE04464C
:105580003868000106D4FCF7FCFD001B0328F7D3A4
:10559000032000E0002001B0F0BD0000F0B581B0B4
:1055A00044F20047C5F60207BA6A02F00302032A72
:1055B00001D1012073E0054638680C4620F0805088
:1055C0003860FCF7DEFD06463868800005D5FCF73C
:1055D000D8FD801B0228F7D95EE0B86AEE6895E82E
:1055E0000E0020F07C70012C40EA0150A2F1010174
:1055F0006FF35F214FF47E4202EB4322B86292B216
:105600004FF0FE4302EB01004FF4FE012A6901EB6B
:10561000064101F4FE0103EB0262084402F0FE4180
:1056200008443864F86A696920F4406040EA01007F
:10563000F862F86AA96920F4007040EA0100F86293
:10564000F86A4FF6F87120F48070F862786CEA69B5
:1056500020EA01004FF0807140EAC2007864F86AE5
:1056600008BF4FF4000140F48070002CF86208BFBE
:105670004FF48001F86A0843F862386840F08050BF
:105680003860FCF77EFD04463868800006D4FCF7DD
:1056900078FD001B0328F7D3032000E0002001B0B1
:1056A000F0BD0020FBF77BB981604EF2C002C168FB
:1056B000CFF6FE7201EA020341F2101C102141F202
:1056C000883243EA0C03C36000F032B900218160E4
:1056D0004EF2C002C168CFF6FE72114044F6D352BA
:1056E00001F58051C16040F22401C1F26202C2F2B0
:1056F00000410968A1FB0212510A41F2883251436C
:10570000C94300BF013108D2426B1206FAD5C52148
:10571000C0F220018163002070474FF000407047C5
:1057200081604EF2C002C168CFF6FE72114041F2B4
:1057300001121143C16000F0C3B981604EF2C00292
:10574000C168CFF6FE7201EA020341F2121C122177
:1057500041F2883243EA0C03C36000F0E9B881608B
:105760004EF2C002C168CFF6FE7201EA020341F2B6
:10577000111C112141F2883243EA0C03C36000F08E
:10578000D7B881604EF2C002C168CFF6FE7201EA5E
:10579000020341F2071C072141F2883243EA0C035D
:1057A000C36000F0C5B8002181604EF2C002C1683C
:1057B000CFF6FE72114041F202321143C16000F097
:1057C00051B981604EF2C002C168CFF6FE7211403D
:1057D00041F209321143C16000F044B981604EF2D8
:1057E000C002C168CFF6FE7201EA020341F2081C52
:1057F000082141F2883243EA0C03C36000F098B8F4
:1058000081604EF2C002C168CFF6FE7201EA020367
:1058100041F20D1C0D2141F2883243EA0C03C360B2
:1058200000F086B8090481604EF2C002C168CFF66C
:10583000FE7241F2031C01EA0203032141F28832A5
:1058400043EA0C03C36000F073B810B50446C068A7
:1058500040F080004EF2C001E060CFF6FE71E068DB
:105860004EF2001220F04000E0600020A060E068EE
:10587000C0F2F552084041F20C110843E0600C21DF
:10588000204600F055F8B0F1007108BF0846E16805
:1058900021F08001E16010BD81604EF2C002C1685C
:1058A000CFF6FE7201EA020341F2061C062141F224
:1058B000883243EA0C03C36000F03AB881604EF2CC
:1058C000C002C168CFF6FE7201EA020341F2191C60
:1058D000192141F2883243EA0C03C36000F028B872
:1058E00081604EF2C002C168CFF6FE7201EA020387
:1058F00041F2181C182141F2883243EA0C03C360BC
:1059000000F016B880B50246D1E900E3D1E902C043
:10591000C2F824E040EA0C0093620B69496918431D
:105920000143D06A20F0FF0300201943D16280BDFB
:1059300040F22403C2F20043D3F800C044F6D3532C
:10594000C1F26203ACFB033C4FEA5C2340F2450C1E
:1059500053430246C0F2200C013300BF013B43D049
:10596000506B10EA0C0FF9D010F40050F6D1506BC8
:1059700040073CD4506BC0073BD10CF180009063D2
:105980001069C0B2884237D14EF208015069CFF693
:10599000FF51084232D0002832D4410033D4810074
:1059A00033D4C10033D4010134D4410135D4C10111
:1059B00036D4010237D4410238D4810239D4C1022D
:1059C0003AD441033BD481033CD4C1033DD4010408
:1059D0003ED441043FD4810440D400074FF400007A
:1059E00058BF4FF4803070474FF00040704704209C
:1059F00000E001209063704701207047002070474D
:105A00004FF00070704740207047802070474FF47F
:105A1000807070474FF4007070474FF4806070479B
:105A20004FF4006070474FF4805070474FF40050BF
:105A300070474FF4804070474FF4004070474FF478
:105A4000003070474FF4802070474FF400207047BB
:105A50004FF4801070474FF4001070474FF48000EF
:105A60007047000040F2240144F6D352C2F20041D4
:105A7000C1F262020968A1FB0212510A41F28832A6
:105A80005143C943013112D2426B12F0450FF9D094
:105A900012F40052F6D1416B49070BD4416BC90790
:105AA0000AD1C521C0F220018163002106E04FF038
:105AB000004103E0042100E00121816308467047B2
:105AC00040F2240144F6D352C2F20041C1F2620214
:105AD0000968A1FB0212510A41F288325143C943BD
