:020000040800F2
:1000000018100120DD01000809110008E5010008B1
:10001000011100080103000891140008000000000D
:10002000000000000000000000000000191100089E
:1000300061040008000000001111000821110008EF
:100040000D0200080D0200080D0200080D02000854
:100050000D0200080D0200080D0200080D02000844
:100060000D0200080D0200080D0200080D02000834
:100070000D0200080D0200080D0200080D02000824
:100080000D0200080D0200080D0200080D02000814
:100090000D0200080D0200080D0200080D02000804
:1000A0000D0200080D0200080D0200080D020008F4
:1000B0000D0200080D0200080D0200080D020008E4
:1000C0000D0200080D0200080D0200080D020008D4
:1000D0000D0200080D0200080D0200080D020008C4
:1000E0000D0200080D0200080D0200080D020008B4
:1000F0000D0200080D0200080D0200080D020008A4
:100100000D0200080D0200080D0200080D02000893
:100110000D0200080D0200080D0200080D02000883
:100120000D0200080D0200080D0200080D02000873
:100130000D0200080D0200080D0200080D02000863
:100140000D0200080D0200080D0200080D02000853
:100150000D0200080D0200080D0200080D02000843
:100160000D0200080D0200080D0200080D02000833
:100170000D0200080D0200080D020008000000003A
:100180000D0200080D0200080D0200080D02000813
:100190000D0200080D0200080D0200080D02000803
:1001A0000D0200080D0200080D0200080D020008F3
:1001B0000D0200080D0200080D0200080D020008E3
:1001C0000D0200080D020008DFF80CD000F086F8E0
:1001D00000480047E1150008181001200C4880472E
:1001E0000C4800471EF0040F0CBFEFF30880EFF33C
:1001F000098021462A46334601F082B9FEE7FEE730
:10020000FEE7FEE7FEE7FEE7FEE7FEE7FEE70000AB
:1002100029110008C90100082DE9F05F05460020FA
:1002200092469B4688460646814640241BE0284667
:1002300041464746224600F041F853465A46C01A06
:10024000914110D311461846224600F028F82D1A85
:1002500067EB01084F4622460120002100F01FF8FD
:1002600017EB00094E41201EA4F10104DFDC4846D3
:1002700031462A464346BDE8F09FD2B201E000F87D
:10028000012B491EFBD270470022F6E710B513463A
:100290000A4604461946FFF7F0FF204610BD202A03
:1002A00004DB203A00FA02F1002070479140C2F1CD
:1002B000200320FA03F3194390407047202A04DBFF
:1002C000203A21FA02F00021704721FA02F3D040CF
:1002D000C2F120029140084319467047064C074D71
:1002E00006E0E06840F0010394E807009847103406
:1002F000AC42F6D3FFF76CFF04200008242000086E
:10030000FEE700000000000010B54EF6005042F27B
:100310000001CEF20000CEF2040104680A686FF317
:100320001F320868030C29A0214601F0E7FA04F007
:100330007F40B0F1824F17D1C4F30B1304F00F02CA
:10034000C4F30351A3F54260072813D8DFE800F097
:1003500004261E2C321E1E3841F68660C0F60000B0
:10036000BDE8104001F0CABA21A0BDE8104001F07C
:1003700017BD00BFB3F5466F08D141F67360C0F6F4
:100380000000BDE8104001F0B9BA00BF41F652705C
:10039000C0F60000BDE8104001F002BD2AA0BDE893
:1003A000104001F0ABBA00BF22A0BDE8104001F040
:1003B000A5BA00BF1AA0BDE8104001F09FBA00BF67
:1003C00012A0BDE8104001F099BA00BF4350554952
:1003D00044202530385820444556494420253033A0
:1003E0005820524556494420253034580A00000010
:1003F000556E6B6E6F776E20434F524520494D50BE
:100400004C454D454E54455200000000436F7274F8
:100410006578204D37207225647025640A0000003D
:10042000436F72746578204D3420722564702564A2
:100430000A000000436F72746578204D33207225E6
:10044000647025640A000000436F72746578204D63
:1004500031207225647025640A000000000000004D
:1004600070470000000000002DE9F04F81B000F15E
:100470003E424FF00A0A02F1FF7742F20042C4F214
:10048000020243F6004E90424FEAB72208BF4FF0F7
:10049000090A092AC4F2010E38BF4FEAB72A00241C
:1004A0004FF0010B0026002707E000BF013702369E
:1004B000102F04F1040400F0A3800BFA07F80B6876
:1004C00013EA080FF2D0D1F804C04CF01003122B3D
:1004D00015D16FF003020F2502EA570304F01C0246
:1004E000034405FA02F9D3F820C00D692CEA090C7F
:1004F00005FA02F242EA0C021A62D1F804C00322A1
:100500000368B240BCF1120F6FEA020923EA02024B
:100510000CF0030303FA06F342EA0302026013D865
:100520000BFA0CF212F0061F0ED08268CB6802EABA
:100530000902B3401A43826042684FEA1C1322EA60
:100540000802BB401A434260C2688B68B34002EAAB
:1005500009025FEACC0542EA0302C260A6D543F66F
:1005600044034FF60849C4F20203CFF6FF790F2582
:100570001A6842F480421A601A6827F0030302F4F2
:10058000804200920EEB0302009B04F00C0352F831
:1005900009C09D402CEA05050AFA03F32B4342F8F3
:1005A0000930DEF800C04B684CEA0805DA0358BF92
:1005B0002CEA08059A03CEF80050DEF804C04CEA95
:1005C000080558BF2CEA0805DA02CEF80450DEF818
:1005D00008C04CEA080558BF2CEA080543F60C4C45
:1005E0009B02C4F2010CCEF80850DCF8002042EA6D
:1005F000080558BF22EA0805CCF8005056E700BFAE
:1006000001B0BDE8F08F000040F21000C2F201001E
:10061000006870470000000040F2040040F2100142
:10062000C2F20100C2F2010100780A6810440860B9
:10063000704700000000000080B543F60040C4F29F
:100640000200016841F400710160016841F48071A9
:100650000160032000F060F80F2000F005F800F0C2
:1006600027F8002080BD000070B540F2040640F27B
:100670000C01C2F20106C2F201014FF47A73044682
:1006800032780968B3FBF2F2B1FBF2F1084600F0F0
:100690007FFB0F2C4FF0010508D838B94FF0FF3021
:1006A00000222146002500F007F87460284670BD3E
:1006B000704700000000000070B54EF60C5C4FF073
:1006C000FF36CEF2000C00F1604505F56445DCF81C
:1006D0000030C3F3022E8EF00703042B28BF04233F
:1006E000BEF1030406FA03F321EA030100F00F034D
:1006F00038BF0024043B0028634406FA04F048BFD6
:1007000003F10C05A14022EA000008430001287013
:1007100070BD0000000000004EF60C514FF6FF03C4
:10072000CEF200010A681A4060F30A2242F08060AB
:1007300040F0FD7008607047B0B582B043F64000ED
:1007400047F20005C4F20200C4F20005016841F05E
:1007500080510160006800F0805001900198286885
:1007600040F480302860FFF74FFF04466868C003FC
:1007700006D4FFF749FF001BB0F57A7FF6D910E0E9
:10078000286840F400302860FFF73EFF044600BFB1
:100790006868800308D4FFF737FF001BB0F57A7F45
:1007A000F6D9032002B0B0BD002002B0B0BD0000F9
:1007B0002DE9F041002800F0898043F6080804463E
:1007C000C4F202080D46D8F8F80300F00F00884282
:1007D0000CD2D8F8F80320F00F002843C8F8F8032B
:1007E000D8F8F80300F00F00A8426FD12068810705
:1007F00017D5410705D5D8F8001041F4E051C8F8E5
:100800000010010705D5D8F8001041F46041C8F880
:100810000010D8F80010A26821F0F0011143C8F8C8
:100820000010C0073AD1D8F8F80300F00F00A84232
:100830000CD9D8F8F80320F00F002843C8F8F803C3
:10084000D8F8F80300F00F00A8423FD12068410714
:1008500007D5D8F80010E26821F4E0511143C8F838
:100860000010000708D5D8F80000216920F4604086
:1008700040EAC100C8F80000D8F8000000F00C0100
:1008800042F200400829C0F2F4003FD004295FD1B1
:1008900041F20020C0F27A005AE000BF60680228EE
:1008A00008D001280ED158F8081C890312D4012061
:1008B000BDE8F08158F8081C89010BD40120BDE87F
:1008C000F08100BF58F8081C890703D40120BDE857
:1008D000F08100BFD8F8001021F003010843C8F8E8
:1008E0000000FFF791FE064641F28837D8F8000075
:1008F000616800F00C00B0EB810F94D0FFF784FE2C
:10090000801BB842F2D90320BDE8F08158F8041CDE
:1009100058F8043C58F8047C01F03F025902C7F330
:10092000881105D4A1FB00010023FFF775FC06E048
:1009300041F20020C0F27A004843B0FBF2F058F8D0
:10094000041C0222C1F3014102EB4101B0FBF1F0B2
:10095000D8F8001041F6C452C0F60002C1F30311EA
:10096000515C40F20C02C2F20102C84010600F203C
:10097000FFF77AFE0020BDE8F081000000000000D3
:1009800040F20C00C2F20100006870470000000055
:1009900040F20C0043F60801C2F20100C4F2020169
:1009A00041F6D45200680968C0F60002C1F3822102
:1009B000515CC8407047000040F20C0043F608014B
:1009C000C2F20100C4F2020141F6D4520068096883
:1009D000C0F60002C1F34231515CC84070470000CC
:1009E00010B543F60404C4F20204606800F00C0180
:1009F00042F200400829C0F2F40007D0042918BFD1
:100A000010BD41F20020C0F27A0010BD22682368B8
:100A1000216802F03F025B02C1F3881106D4A1FBFA
:100A200000010023FFF7F8FB07E000BF41F20020C0
:100A3000C0F27A004843B0FBF2F021680222C1F311
:100A4000014102EB4101B0FBF1F010BD00000000DC
:100A50002DE9F04182B0002858D00446007843F6D2
:100A60000006C007C4F2020625D0B06800F00C00F2
:100A700004281BD0B06800F00C00082802D1706870
:100A8000400213D46068002800F0E880B0F5A02F81
:100A900000F0FC80B0F5803F00F0FC80306820F46E
:100AA00080303060306820F48020F6E030688003C9
:100AB00001D5606850B32078800718D5B06810F071
:100AC0000C0F07D0B06800F00C0008285CD17068EB
:100AD000400259D43068800702D5E068012815D15A
:100AE0003068216920F0F80040EAC10030602078C9
:100AF00000070FD42078400720D4A569002D00F00E
:100B00004181B06800F00C00082873D1012002B0C8
:100B1000BDE8F08160690028706F5BD040F0010093
:100B20007067FFF771FD0546706F8007E2D4FFF72D
:100B30006BFD401B0228F7D9EEE000BF306C10F0CF
:100B4000805808D1306C40F080503064306C00F038
:100B500080500190019847F20007C4F200073868FE
:100B6000C00525D4386840F480703860FFF74CFD2C
:100B7000054600BF3868C0051AD4FFF745FD401B85
:100B80006428F7D9C8E000BFE0680028306853D077
:100B900040F001003060FFF737FD05463068800700
:100BA0009ED4FFF731FD401B0228F7D9B4E000BF07
:100BB000A068002800F08080052800F097800128B8
:100BC00000F09880306F20F001003067306F20F027
:100BD000040092E020F001007067FFF715FD054664
:100BE000706F80077FF586AFFFF70EFD401B022870
:100BF000F6D991E0306820F080703060FFF704FD96
:100C0000022D05460CD100BF3068800140F1928072
:100C1000FFF7FAFC401B02284FF00300F4D9ADE0C7
:100C20003068800140F1AE80FFF7EEFC401B0328E6
:100C30004FF00300F4D3A1E020F001003060FFF793
:100C4000E3FC0546306880077FF551AFFFF7DCFC19
:100C5000401B02284FF00300F4D98FE0306820F4E5
:100C600080303060306820F480203060FFF7CCFCAA
:100C7000054600BF306880037FF51DAFFFF7C4FC59
:100C8000401B64284FF00300F4D977E0306840F44B
:100C900080203060306840F480303060FFF7B4FC72
:100CA000054600BF306880033FF505AFFFF7ACFC99
:100CB000401B6428F6D92FE0306F20F00100306728
:100CC000306F20F004003067FFF79EFC054641F2CC
:100CD000883700BF306F800722D5FFF795FC401B97
:100CE000B8424FF00300F5D948E000BF306F40F044
:100CF00004003067306F40F001003067FFF784FC7C
:100D0000054641F2883700BF306F800708D4FFF7EF
:100D10007BFC401BB842F7D9032002B0BDE8F0814C
:100D2000B8F1000F7FF4E9AE306C20F080503064F1
:100D3000E3E600BF04F11C074FF6FF758FCFDB031E
:100D4000084323EA050140EA8210A1F5803140EA18
:100D50000760084340F000507060306840F08070D9
:100D60003060FFF751FC0446306880010AD4FFF779
:100D70004BFC001B02284FF00300F5D902B0BDE880
:100D8000F08100BF002002B0BDE8F081000000004B
:100D9000411E0020B0EB116F02D00120704700BF50
:100DA0004EF21002F023CEF2000251604EF62351B3
:100DB000CEF200010B7007219060116070470000B7
:100DC000F0B581B0A0B10446406F28B9002084F886
:100DD0007000204600F050F8242060672068016809
:100DE00021F001010160204600F03AFA012803D108
:100DF0000125284601B0F0BD606A10B1204600F020
:100E0000BFF920680027416821F490414160816862
:100E100021F02A018160016841F001010160E7676A
:100E2000FFF7F2FB216800250A6812071BD506466A
:100E3000C86980024FF0000515D400BFFFF7E4FB3E
:100E4000801BB5EB506F206804D1C0698002F5D5D6
:100E5000002508E00168032521F4D0710160816854
:100E600021F00101816020206067A06784F8707024
:100E7000284601B0F0BD00007047000000000000EF
:100E800042F20000CEF2040000686FF31F30A0F2BF
:100E900011415F2900F26E8041F69860C0F60000B3
:100EA000DFE811F0620068006E00680074006800FE
:100EB0007A006800800068006800680068006800C8
:100EC00068006800860068006000680068006800CC
:100ED00068006800680068006800680068006800D2
:100EE000680068008C00680060009200980068004C
:100EF00068006800680068006800680068006800B2
:100F000068009E00A400AA006800B000B600680057
:100F1000BC00C000C6006800680068006800680087
:100F20006800CA00CE00D20068006800680068004F
:100F30006800680068006800680068006800680071
:100F400068006800D600DC0068006800680068007F
:100F50006800680068006800680068006800680051
:100F60006800E00000F01CBF41F60870C0F6000009
:100F700000F016BF41F6B660C0F6000000F010BFEA
:100F800041F6FE60C0F6000000F00ABF41F69E7018
:100F9000C0F6000000F004BF41F6C460C0F60000D7
:100FA00000F0FEBE41F62A70C0F6000000F0F8BE68
:100FB00041F6D260C0F6000000F0F2BE41F6A26039
:100FC000C0F6000000F0ECBE41F63C70C0F6000038
:100FD00000F0E6BE41F6D270C0F6000000F0E0BEC0
:100FE00041F61270C0F6000000F0DABE41F6AC60C7
:100FF000C0F6000000F0D4BE41F64670C0F6000016
:1010000000F0CEBE41F6DC60C0F6000000F0C8BEC5
:1010100041F6F260C0F6000000F0C2BE34A000F05D
:10102000BFBE00BF41F61E70C0F6000000F0B8BEA3
:101030001DA000F0B5BE00BF0CA000F0B1BE00BF07
:1010400013A000F0ADBE00BF0BA000F0A9BE00BF12
:1010500041F6BC70C0F6000000F0A2BE1EA000F079
:101060009FBE00BF16A000F09BBE00BF53544D337F
:10107000324837787800000053544D3332463732C7
:10108000787878206F7220463733787878000000BF
:1010900053544D3332463736787878206F72204675
:1010A000373778787800000053544D333246373460
:1010B000787878206F72204637357878780000008D
:1010C00053544D33324C3452787878206F72204C20
:1010D000345378787800000053544D33324C343513
:1010E000787878206F72204C343678787800000059
:1010F00053544D33324C302043617420350000008E
:10110000FEE7000000000000704700000000000043
:101110007047000000000000704700000000000061
:10112000FFF77ABA000000004EF688504FF0000C2E
:10113000CEF20000016841F47001016043F6000145
:10114000C4F202010A6842F001020A60C1F808C054
:101150004FF6FF720B68CFF6F6621A400A6043F250
:101160001002C2F200424A600A6822F480220A6039
:10117000C1F80CC04FF0006140F8801C70470000BF
:10118000416ACA070CD18A0715D44A071ED40A0738
:1011900027D4CA0630D48A0639D44A0655D541E048
:1011A0000268D0F828C0536823F4003343EA0C03E4
:1011B00053608A07E9D50268D0F82CC0536823F43D
:1011C000803343EA0C0353604A07E0D50268D0F845
:1011D00030C0536823F4802343EA0C0353600A07AA
:1011E000D7D50268D0F834C0536823F4004343EAEB
:1011F0000C035360CA06CED50268D0F838C0936895
:1012000023F4805343EA0C0393608A06C5D5026831
:10121000D0F83CC0936823F4005343EA0C03936076
:101220004A0612D50268D0F840C05368BCF5801F4A
:1012300023F4801343EA0C03536006D1536823F46C
:10124000C00C436C43EA0C035360090658BF704757
:101250000168806C4A6822F400221043486070479D
:1012600070B506460168806846F6F315D6E9033284
:1012700002437069D6F81CC00C68CEF6FF751043A7
:1012800004EA0502104340EA0C000860486820F4B4
:10129000405018434860B06947F2FF73326AC4F2A5
:1012A000000310438A6822F43062994240EA020047
:1012B0004FF01002886019DC44F6FF30C4F20000E1
:1012C00081422DDC44F20040C4F2000081424DD046
:1012D00044F60000C4F20000814271D143F6900050
:1012E000C4F202000068010956E000BF40F6FF703A
:1012F000C4F20100814227DC47F60000C4F200007E
:1013000081423BD047F60040C4F20000814257D1F1
:1013100043F69000C4F202000068810B3CE000BF7D
:1013200044F60040C4F2000081422FD045F2000094
:10133000C4F20000814243D143F69000C4F202009F
:101340000068010A28E000BF41F20040C4F2010039
:10135000814227D041F20000C4F2010081422FD126
:1013600043F69000C4F20200016821E043F69000C9
:10137000C4F20200006881080EE000BF43F690004E
:10138000C4F202000068010B06E000BF43F69000C3
:10139000C4F202000068810941F6EC52C0F6000276
:1013A0000AE000BF43F69000C4F202000068810A20
:1013B00041F6DC52C0F6000201F0030052F8202092
:1013C000BCF5004F12D1082A4FF001003BD844F67B
:1013D0000001C0F2E811DFE802F0051D27362136D2
:1013E00036362500FFF7D4FA41001DE0082A4FF0F9
:1013F000010028D842F20041C0F2F401DFE802F017
:10140000062832232C232323300000BFFFF7C0FA25
:10141000014627E0FFF7D0FA410005E0FFF7E0FAC8
:10142000410001E04FF48031706801EB5001B1FBE5
:10143000F0F04FF6F071014004D0C0F342000843D1
:1014400018E000BF01200021C6E9181170BD00BFDF
:10145000FFF7B2FA014605E0FFF7C2FA014601E0E4
:101460004FF40041706801EB5001B1FBF0F080B225
:10147000102807D33168C86000200021C6E9181180
:1014800070BD00BF01200021C6E9181170BD000029
:10149000FEE700000000000040F60061CEF200010F
:1014A000D1F88020D2071CBF09685FEAC17113D14F
:1014B00044F61C01C4F200010A68120609D40A6845
:1014C00012065CBF0A685FEA026202D40A6812066A
:1014D000F2D5C2B2CA6070474FF0604101E000BF70
:1014E00000BF0A6852B900BF0A683AB900BF0A686B
:1014F000002A02BF00BF0A68002AF1D00870D7E7AF
:1015000082B0044618A0984616460F4600F048FCE4
:1015100041F6FC5094E82E00C0F60000009500F063
:10152000EDF941F6286004F12001C0F600000091B9
:1015300039463246434600F0E1F904F110070EA0A7
:101540008ECF009700F0DAF94EF62850CEF2000068
:101550000169026843688768466912A0009701968E
:1015600000F0CCF9FEE700BF0A5B486172642046D8
:1015700061756C745D0000007231323D2025303899
:10158000582C206C72203D20253038582C20706358
:10159000203D20253038582C207073723D20253096
:1015A00038580A00626661723D253038582C206335
:1015B0006673723D253038582C20686673723D255D
:1015C0003038582C20646673723D253038582C20F2
:1015D000616673723D253038580A00000000000033
:1015E000AAB04EF660754FF6B451CEF20005CFF6B4
:1015F000FF716858800312D4BFF34F8FBFF36F8F12
:10160000002045F8100CBFF34F8FBFF36F8F685861
:1016100040F400306850BFF34F8FBFF36F8F6858AE
:10162000C00361D44FF624600021CFF6FF70012380
:1016300043F6E07B29504FF62060CFF6FF70BFF3F2
:101640004F8F2858C208C0F3C907C0F34E317C1E23
:1016500003EBD000A7F1020A930700F003064FEA5C
:10166000847E4FEA8A700490F81E039004E000BF65
:101670000029A1F1010129D00BEA41103A467EB1BF
:10168000012E43EA00022A60224609D0022E4EEAC9
:1016900000022A60524603D0049A02432A60039A49
:1016A000032FE5D340EA8270013200F1404C80F014
:1016B000004800F1804900BF043A2860C5F800C026
:1016C000C5F80080C5F80090F6D1D1E74FF6B451C7
:1016D000CFF6FF71BFF34F8F685840F480306850E9
:1016E000BFF34F8FBFF36F8FFEF7A6FF05AC00204F
:1016F000CDE90900CDE90700012005904FF4A020B5
:10170000069002200B904FF480010C9108210D915E
:101710004FF4D871CDE90E10092010902046FFF744
:1017200097F908B1FEE700BFFFF706F810B100BF58
:10173000FEE700BF0F2025904FF4A05028904FF4F3
:101740008050299025A80721022726970026279652
:101750004FF00708FFF72CF810B100BFFEE700BFFD
:1017600004F124005C21FEF78FFD43F63000C4F243
:101770000200016941F480210161016901F48021C5
:1017800025912599016841F008010160006825A9AB
:1017900000F00800259025984FF44070CDE925070A
:1017A00044F600070120C4F2000727900320289088
:1017B00007F5E230CDF8A480FEF756FE4FF4E13095
:1017C0000597CDE906060C200A9020460B96CDE938
:1017D0000866CDE90C66FFF7F3FA08B1FEE700BF33
:1017E00031A000F0DDFA40F20C00C2F20100016805
:1017F0004DF68360C4F21B30A1FB000231A0920CB5
:1018000000F07CF8FEF780FDFFF73AFB55F82C1C42
:1018100055F8282C55F8243C55F8200C55F81C7C1C
:1018200055F8186CCDE9000741F654600296C0F6F1
:10183000000000F063F855F8200C78B140F2212147
:10184000C1F2110188420FD02121C1F21101884259
:1018500010D141F6E870C0F600000FE041F66B7061
:10186000C0F600000AE000BF41F67270C0F600004A
:1018700004E000BF41F65F70C0F6000000F090FA8F
:10188000FFF77EF8014614A000F038F8FFF780F863
:10189000014614A000F032F8FFF78EF8014614A0BC
:1018A00000F02CF8FEE700BF0A4E55434C454F2D83
:1018B000463735365A492044454255472044656DE0
:1018C0006F0000000A0A436F72653D25642C2025D5
:1018D00064204D487A0A000048434C4B3D25640A79
:1018E00000000000415042313D25640A0000000024
:1018F000415042323D25640A000000000FB4054B00
:1019000010B503A9044A029800F018F810BC5DF85D
:1019100014FB0000991400080000012002E008C830
:10192000121F08C1002AFAD170477047002001E059
:1019300001C1121F002AFBD1704700002DE9FF4FA3
:101940008DB00F460546002606E025280BD0DDE9C0
:101950000F1290476D1C761C28780028F5D111B025
:101960003046BDE8F08F0024A246A1460122EC4992
:1019700000E0044315F8013F203B02FA03F008425F
:10198000F7D128782A2810D06FF02F022878A0F1FC
:101990003001092914D80AEB8A0102EB410144F015
:1019A000020400EB010A6D1CF0E701CF5FEA000AB8
:1019B00003D544F40054CAF1000A44F002046D1C3B
:1019C00028782E2817D115F8010F44F004042A288E
:1019D0000ED06FF02F022878A0F1300109290AD823
:1019E00009EB890102EB410100EB01096D1CF2E7F3
:1019F00057F8049B6D1C28786C280FD006DC4C2807
:101A000017D068280DD06A2814D104E0742810D0AB
:101A10007A280FD10DE044F400140AE044F4801455
:101A200001E044F440146978814202D104F5801445
:101A30006D1C6D1C2A786E2A1FD00CDC632A31D0F5
:101A400004DC002A8BD0582A11D1A3E0642A68D084
:101A5000692A0CD165E0732A2ED004DC6F2A73D07A
:101A6000702A04D19BE0752A6FD0782A6ED0104678
:101A7000DDE90F129047761C50E1C4F302500228B2
:101A800006D0032809D0042801CF09D0066045E11B
:101A900001CFF117C0E9006140E101CF06803DE1CF
:101AA00006703BE117F8040B8DF8000000208DF85C
:101AB0000100EB46012003E057F804BB4FF0FF3074
:101AC00061074FF0000102D40DE008F101018846E2
:101AD00049450FDA8045F8DB1BF808100029F4D1DE
:101AE00008E008F1010188468142FADB1BF8081082
:101AF0000029F6D1DDE90F23AAEB08008146214633
:101B000000F036F9304400EB080604E0DDE90F127E
:101B10001BF8010B9047B8F10108F7D2214648465F
:101B2000F7E00A21C4F302534FF0000B0891022B97
:101B300004D001CFC117032B09D00AE0FF1D27F005
:101B40000707F7E8020108E032E01FE020E000B2FA
:101B5000C117042B01D140B2C117031E71F100035C
:101B600007DA4FF0000CD0EB0C006CEB01012D23D9
:101B700002E0230504D52B238DF82430012303E054
:101B8000E30701D02023F7E7984658E00A2110E048
:101B900010210EE010204FF0000B08900CE01021F7
:101BA0004FF0000B44F004044FF00809089103E0E3
:101BB00008214FF0000B0891C4F30253022B04D00C
:101BC00001CF0021032B06D006E0FF1D27F00707F9
:101BD000F7E8020103E080B2042B00D1C0B24FF05D
:101BE000000823072BD5702A07D0DDF820C08CF021
:101BF000100C5CEA0B0C05D00EE040238DF824306D
:101C0000012308E050EA010306D030238DF8243088
:101C10008DF8252002239846DDF820C08CF0080CB2
:101C20005CEA0B0C0BD150EA010301D1630706D526
:101C300030238DF824304FF00108A9F10109582A0A
:101C400004D038A20B9208AA0A920BE03AA2F9E754
:101C50005B46089AFEF7E0FA0B9B9B5C0A9A521EC1
:101C60000A92137050EA0102F2D10A98ADEB00001B
:101C700000F1200B600702D524F4803401E04FF01E
:101C80000109D94502DDA9EB0B0000E0002000EBC3
:101C90000B0141440890AAEB010AE00306D4DDE9F8
:101CA0000F232146504600F063F806444FF0000928
:101CB00008E009A911F80900DDE90F12904709F1C0
:101CC0000109761CC145F4DBE0030CD5DDE90F23E7
:101CD0002146504600F04CF8064404E0DDE90F12BE
:101CE00030209047761C0899481E08900029F5DCA2
:101CF00008E00A980A990078491C0A91DDE90F1258
:101D00009047761CBBF10001ABF1010BF1DC2146E1
:101D10005046DDE90F2300F019F806446D1C1BE660
:101D200009280100303132333435363738396162B1
:101D30006364656600000000303132333435363775
:101D40003839414243444546000000002DE9F04146
:101D5000044600251E461746880404D405E039468B
:101D60002020B0476D1C641EF9D52846BDE8F081DF
:101D70002DE9F041044600251E469046C80301D5D2
:101D8000302700E02027880404D505E04146384686
:101D9000B0476D1C641EF9D52846BDE8F0810000EF
:101DA00010B5044601E0FFF777FB14F8010B044976
:101DB0000028F8D1BDE810400A20FFF76DBB0000F5
:101DC00000000120000000000000000001020304E8
:101DD00006070809000000000102030401000000DA
:101DE00004000000020000000800000000000000E5
:101DF0000400000002000000080000007230203DD6
:101E000020253038582C207231203D20253038587C
:101E10002C207232203D20253038582C207233205F
:101E20003D20253038580A007234203D20253038B6
:101E3000582C207235203D20253038582C20723601
:101E4000203D20253038582C207370203D2025302F
:101E500038580A0025303858202530385820253089
:101E600038580A2530385820253038582025303841
:101E7000580A00436F72746578204D302B2072250C
:101E8000647025640A00436F72746578204D3020B9
:101E90007225647025640A0053544D333246343041
:101EA000310053544D3332463431310053544D33A5
:101EB000324634313200556E6B6E6F776E2053545C
:101EC0004D33320053544D33324C30204361742033
:101ED000330053544D3332463434360053544D336B
:101EE00032463033307834206F72204630333078C9
:101EF000360053544D333246303730783600535421
:101F00004D3332463430370053544D333246343536
:101F1000370053544D333246303330783800535401
:101F20004D33324630373078380053544D333246D3
:101F3000343239206F7220463433390053544D33D4
:101F400032463436390053544D33324630333078CC
:101F50004300556E6B6E6F776E20434F52450055B0
:101F60006E6B6E6F776E20465055004E6F20465058
:101F700055004650552D442053696E676C652D7091
:101F80007265636973696F6E20616E6420446F755A
:101F9000626C652D707265636973696F6E0053546E
:101FA0004D33324C34373578782C204C34373678F2
:101FB00078206F72204C34383678780053544D3383
:101FC000324C3439367878206F72204C3441367870
:101FD000780053544D33324C3433787878206F7214
:101FE000204C3434787878004650552D532053696E
:101FF0006E676C652D707265636973696F6E206FB3
:102000006E6C7900282000080000012010000000FC
:102010001C190008382000081000012008100000DA
:102020002C19000800000000000000000100000062
:08203000100000000024F40080
:04000005080001C925
:00000001FF
